:020000040800F2
:10000000381D0024AD0200086D4B00083B47000876
:10001000694B000835120008D16A00080000000092
:100020000000000000000000000000003153000844
:10003000811A000800000000F54C00080555000872
:10004000C7020008C7020008C7020008C70200086C
:10005000C7020008C7020008C7020008C70200085C
:10006000C7020008C7020008C7020008C70200084C
:10007000C7020008C7020008C7020008C70200083C
:1000800041160008C7020008C7020008C70200089E
:10009000C7020008C7020008C7020008C70200081C
:1000A000C7020008C7020008C7020008C70200080C
:1000B000C7020008C7020008C7020008C7020008FC
:1000C000C7020008C7020008C7020008C7020008EC
:1000D000C70200082D69000851690008C70200081E
:1000E000C7020008C702000800000000C70200089D
:1000F000C7020008C7020008C7020008C7020008BC
:10010000C7020008C7020008C7020008C7020008AB
:10011000C7020008C7020008A1550008B155000831
:10012000C7020008C7020008DD170008C702000860
:10013000C7020008C7020008C7020008C70200087B
:1001400000000000000000000000000000000000AF
:10015000C7020008C7020008C7020008C70200085B
:10016000C7020008C7020008C7020008C70200084B
:10017000C7020008C7020008C7020008000000000C
:10018000C7020008C7020008C7020008C70200082B
:10019000C7020008C7020008C7020008C70200081B
:1001A000C7020008C7020008C7020008C70200080B
:1001B000C7020008C7020008C7020008C7020008FB
:1001C000C7020008C7020008C7020008C7020008EB
:1001D000C7020008C7020008C7020008C7020008DB
:1001E000C7020008C7020008C7020008C7020008CB
:1001F000C7020008C7020008C7020008C7020008BB
:10020000C7020008C7020008C7020008C7020008AA
:10021000C7020008C7020008C7020008C70200089A
:10022000C7020008C7020008C7020008000000005B
:10023000C7020008C702000800000000C70200084B
:10024000C7020008C7020008C7020008C70200086A
:10025000C7020008C7020008C7020008C70200085A
:10026000C7020008C7020008C7020008C70200084A
:10027000C7020008C7020008C7020008000000000B
:10028000C702000800000000C702000800000000CC
:1002900000000000C7020008DFF80CD000F0EAFB05
:1002A0000048004729850008381D0024064880477B
:1002B00006480047FEE7FEE7FEE7FEE7FEE7FEE74B
:1002C000FEE7FEE7FEE7FEE70D550008990200088D
:1002D0002DE9F05F0546002092469B46884606467B
:1002E000814640241BE0284641464746224600F00E
:1002F0003AF953465A46C01A914110D3114618464E
:10030000224600F021F92D1A67EB01084F462246DC
:100310000120002100F018F917EB00094E41201EC2
:10032000A4F10104DFDC484631462A464346BDE8D5
:10033000F09F40EA01039B0703D009E008C9121FA0
:1003400008C0042AFAD203E011F8013B00F8013B8F
:10035000521EF9D27047D2B201E000F8012B491EBB
:10036000FBD270470022F6E710B513460A46044652
:100370001946FFF7F0FF204610BD00000FB400B58E
:100380008DB010A909900B9000914FF0FF300A90AA
:1003900000200C9005480690054807906A4609A879
:1003A0000F9900F005F90DB05DF814FBCD050008BC
:1003B000EB0500082DE9FF5F1D464FF0FF3BD5E937
:1003C000014691465F464FF00008A9697F1C0198DD
:1003D0008847296A824688470028F6D1BAF1FF3F4C
:1003E0000CD024F4C064002E19DD600614D5BAF1D7
:1003F0002B0F09D0BAF12D0F0ED103E0584604B0EF
:10040000BDE8F09F44F48064A9697F1C0198884787
:10041000761E8246002E02DDBAF1300F03D0B9F10C
:10042000000F26D032E0A969761E44F400747F1CC8
:10043000019888478246002E05DDBAF1780F06D074
:10044000BAF1580F03D0B9F1000F10D01EE0B9F186
:10045000000F02D0B9F1100F18D1A969761E24F44B
:1004600000747F1C019888478246102002E0082013
:1004700000E00A20814609E008FB0908A969761E08
:1004800044F400747F1C019888478246002E05DDE5
:100490004946504600F077F80028EDDAE9690198FE
:1004A0008847A00502D46FF00100A8E7E00725D136
:1004B000600613D5600502D5C8F1000000E0404693
:1004C00029680A1D2A600968220501D5087015E00F
:1004D000220701D5088011E008600FE02868011D9F
:1004E00029600068210502D580F8008006E0210718
:1004F00002D5A0F8008001E0C0F8008038467EE711
:1005000030B4044696230800214604D0B62330BCFC
:10051000002200F084B820460021F8E730B50B46F1
:10052000014600202022012409E021FA02F59D4223
:1005300005D303FA02F5491B04FA02F52844151EF7
:10054000A2F10102F1DC30BD202A04DB203A00FADE
:1005500002F1002070479140C2F1200320FA03F31A
:10056000194390407047202A04DB203A21FA02F018
:100570000021704721FA02F3D040C2F120029140DD
:100580000843194670473A2800D2303820F020023C
:10059000412A01D3A2F13700884201D34FF0FF3046
:1005A00070470000026811441378016018467047D4
:1005B000D160044951610449116200211161114661
:1005C00000F082BAA5050008BD0A0008426842B1E1
:1005D000016811F8013B23B1521EC0E90012184610
:1005E00070470121C160881E704742685AB1C368D4
:1005F000016843B983688B4205D0491E521CC0E98B
:100600000012002070474FF0FF3070470029A8BF4C
:100610007047401C490008BF20F00100704710B42B
:10062000B0FA80FC00FA0CF050EA010404BF10BCE0
:10063000704749B1CCF1200421FA04F411FA0CF10D
:1006400018BF012121430843A3EB0C01CB1D4FEA46
:1006500000614FEA102042BF002010BC704700EB41
:10066000C35010440029A4BF10BC7047401C49006F
:1006700008BF20F0010010BC70472DE9FE4F8046F6
:1006800081EA0300C00F0C46009021F0004123F0E6
:100690000045B8EB0200A94105D2404621469046EC
:1006A0001C460B46024623F00040104347D0270D5E
:1006B000C7F30A00C3F30A510290401A0190402880
:1006C0006BDAC3F3130040F4801B0098924620B10C
:1006D0000023D2EB030A63EB0B0B01985946C0F1E0
:1006E00040025046FFF730FF06460D465046594639
:1006F000019A00F0D1F910EB08006141002487EA6B
:10070000115284EAE7731A4340D0009A62B3019A07
:10071000012A4FEA075215DC001B61EB02014FF082
:10072000004202EA0752CDE90042001C41F5801167
:1007300032462B4600F06DFB03B0BDE8F08F40461B
:100740002146F9E7001B61EB0201001C41F5801313
:1007500000185B412018A2F5001747EB030140EA9F
:10076000D570B6196D4111E06D084FEA360645EABD
:10077000C0754FEA0752001B61EB0201001C41F5F6
:10078000801149084FEA30000019514132462B468A
:1007900003B0BDE8F04F00F02DBB009801224000EF
:1007A0000023D0EB020263EBE073009821464FEA8E
:1007B000E074B8EB000061EB0401E9E783F000436B
:1007C0005BE781F0004158E72DE9FE4F81EA030421
:1007D00004F0004421F0004100944FF0000B23F09E
:1007E000004350EA01045ED052EA03045BD0C3F335
:1007F0000A54C1F30A552C44A4F2F3340194A0FB2B
:100800000254C1F3130141F48011C3F3130343F401
:10081000801301FB024400FB034E840A970A44EA5A
:10082000815447EA8357A4FB076802958D0A05FBAC
:1008300007854FEA932C04FB0C542705029D4FEAD1
:10084000065847EA1637B5EB08056EEB070C870E1E
:10085000920E47EA811742EA8312A7FB0201B6EB28
:100860000B0164EB00042B0D43EA0C335E1844EBE0
:100870001C50DA465146E7FB0201C5F313044FEA68
:100880000B3343EA14534FEA0432019C43EA060354
:10089000A4F10C040294009CCDE900B400F0B9FA74
:1008A00003B0BDE8F08F00200146F9E72DE9F04DD7
:1008B00081EA030404F0004B21F0004514464FF098
:1008C000000A23F0004150EA050220D054EA010258
:1008D0001DD0C5F30A570246C5F31303C1F3130035
:1008E000C1F30A5640F4801543F48013A7EB0608C1
:1008F000101BD64608F2FD3873EB050002D308F151
:10090000010801E092185B41B8F1000F03DA002002
:100910000146BDE8F08D00204FF480110646844664
:100920000EE0171B73EB050705D3121B63EB0503E2
:1009300006434CEA010C49084FEA300092185B412B
:1009400050EA0107EDD152EA030012D082EA040016
:1009500083EA0501084305D0101BAB4106D20122F2
:10096000002306E000224FF0004302E06FF0010296
:1009700053101AEB06004CEB085110EB0A0041EB48
:100980000B01BDE8F04D00F035BA00002DE9F04153
:10099000054621F000400C46284309D0C4F30A5014
:1009A00040F23341884205DD28462146BDE8F0810A
:1009B0002846FBE740F2FE31884210DC0CDB4FEAB0
:1009C000043040EA155050EA053105D0104804F0D3
:1009D000004101430020E9E700200146E6E7A0F2DC
:1009E00033404642C6F1400228462146FFF7ACFD9F
:1009F00007468846284621463246FFF7B4FD43465F
:100A00003A4600F0F7F93246BDE8F041FFF79CBDE9
:100A10000000F03FC1F30A52C1F3130140F2FF336B
:100A200041F480119A4202DA00200146704740F2F8
:100A300033439A42A2F2334202DC5242FFF793BDA3
:100A4000FFF782BD30B5041E71F1000404DB4FF0E6
:100A50000044404264EB0101141E73F1000405DB05
:100A60001C464FF00043524263EB0403994208BF17
:100A7000904230BD064C074D06E0E06840F00103AF
:100A800094E8070098471034AC42F6D3FFF708FC0F
:100A900020A4000850A40008202A06DBCB17203A27
:100AA00041FA02F043EAE07306E041FA02F3D04073
:100AB000C2F120029140084319467047C0B24FF47A
:100AC000F05100F0F5B900002DE9F34F8BB04FF075
:100AD000000801F10C000C464FF0010B46460DF1E9
:100AE000080A01906269012101989047051E2DD0E6
:100AF000252D2CD0216A8847C0B162690121019857
:100B00009047216A88470028F7D1411E6269019801
:100B1000904700E0761CA1690B988847216A8847B6
:100B20000028F7D1E1690B988847DBE7A1690B98AA
:100B300088470746A84201D1761CD3E7E1690B98A4
:100B400088477F1C02D1B8F1000F6FD046E1002723
:100B500062693D463946019890472A2804D1626966
:100B60000121019890470125DFF8849262690121F3
:100B700001989047A0F130010A290AD24F45E5DCDF
:100B800007EB870100EB4107303FDFD445F010054C
:100B9000ECE7E90601D46FF000476C280AD04C2836
:100BA00014D0682815D06A280DD074281CD07A2853
:100BB0001AD01DE062690121019890476C2802D08B
:100BC00045F0040514E045F002050DE045F0200570
:100BD0000AE06269012101989047682802D045F037
:100BE000080505E045F40065626901210198904718
:100BF000C4E9015765283DD019DC58287AD00CDCAF
:100C0000452837D004DC252826D0412831D131E0D1
:100C100046282FD047282CD12CE05B2877D061289C
:100C200028D063287CD0642823D15AE0D0E06F28F4
:100C300048D008DC66281DD067281BD0692821D041
:100C40006E2816D127E0702845D0732868D0752803
:100C500047D078280DD14DE0A1690B98884705460B
:100C600025283FF469AFE1690B9888476D1C3FF474
:100C70006AAFB3E023466A466FF001000B99AFF309
:100C800000809EE045F040006060A80723464FF0DA
:100C9000000236D43EE0E8077FF447AF2068011D2C
:100CA00021600068290501D506701BE7290701D5D9
:100CB000068017E7A90703D5F117C0E9006111E71E
:100CC00006600FE745F040006060A80723464FF03C
:100CD000080216D41EE040F60E0125EA010060600D
:100CE00016E045F040006060A80723464FF00A0276
:100CF00007D40FE045F040006060A80708D5234600
:100D000010226FF001000B99AFF3008059E007E06B
:100D1000234610226FF001000B99FFF74BFB50E0C8
:100D20004FF000094F464B46632802D05B2806D09F
:100D300040E0E80601D40120A06001273AE06269A2
:100D40000121019890475E2805D14FF001096269A1
:100D5000494601989047216939B900210A4653460E
:100D600043F82120491C0829FADBB0B3216969B98D
:100D7000C11700EBD16253110AEB830122F01F026D
:100D8000821A01200B68904003430B6062690121C5
:100D9000019890475D28E8D1B9F1000F09D00020F3
:100DA000514651F82020D24341F82020401C082809
:100DB000F7DB02AB224600976FF001000B99AFF30F
:100DC000008000280CDA401C08D1BBF1000F05D0D0
:100DD0004FF0FF300DB0BDE8F08FFFE74046F9E778
:100DE000E90701D108F1010806444FF0000B79E64C
:100DF000CCCCCC0C10B5141E73F1000408DA401CE6
:100E000041F1000192185B411A4301D120F0010029
:100E100010BD2DE9F04D92469B4611B1B1FA81F219
:100E200002E0B0FA80F220329046FFF78DFB0446D4
:100E30000F4640EA0A0041EA0B0153465A4608436E
:100E400013D0114653EA010019D0C8F140025046B0
:100E5000FFF789FB05460E46504659464246FFF7C6
:100E600073FB084305D0012004E020463946BDE865
:100E7000F08D0020054346EAE0762C4337430A987C
:100E80006305E40AA0EB08000022FD0A44EA475487
:100E90000A3002D500200146E9E701051019694131
:100EA000DDE9084500196941BDE8F04DA2E7000001
:100EB0007F2801D9002208E0064A02EB5002C00751
:100EC000127800D1120902F00F0201209040084070
:100ED00070470000A89A000830B58C1810F8012B54
:100EE00012F00F0301D110F8013B120906D110F8DE
:100EF000012B03E010F8015B01F8015B5B1EF9D1E7
:100F000001E001F8013B521EFBD1A142E6D30020D3
:100F100030BD000030B52DED108B8DB004460D4670
:100F200094ED090AB0EE40BA94ED0C0AF0EE40BA26
:100F300094ED0F0AB0EE40CA94ED0A0AF0EE40CAF2
:100F400094ED0D0AB0EE40DA94ED100AF0EE40DABE
:100F500094ED0B0AB0EE40EA94ED0E0AF0EE40EA92
:100F600094ED110AB0EE40FA94ED1B0A8DED0C0AD7
:100F700094ED1E0AB0EE408A94ED1C0A8DED0B0A2A
:100F800094ED1F0AF0EE408A94ED1D0A8DED0A0AD9
:100F900094ED200AB0EE409A9DED0C0A3BEE400A1B
:100FA0008DED090A3BEEC80AF0EE409A9DED0B0A62
:100FB0003CEEC00A8DED080A3DEE680AB0EE40AA8C
:100FC0009DED0A0A3EEE400A8DED070A3EEEC90A83
:100FD000F0EE40AA8B4890ED001A9DED090AF0EE64
:100FE000690A41EE000ACDED060A90ED001A9DED6A
:100FF000080AF0EE4A0A41EE000ACDED050A90ED2E
:10100000001A9DED070AF0EE6A0A41EE000ACDEDE6
:10101000040A7D48D0ED000A9DED060A07F014FF92
:101020007A48D0ED000A20EE200A7648D0ED000A7A
:1010300000EEA90A30EE0C0A7548D0ED000A20EE49
:10104000200A68EE890A734890ED001A7248D0EDC4
:10105000001A31EE611A00EEC10A8DED030A6A48EA
:10106000D0ED000A9DED050A07F0EEFE6B48D0EDCD
:10107000000A20EE200A6348D0ED000A00EE8A0A3A
:1010800030EE2D0A6348D0ED000A20EE200A69EE0A
:10109000080A614890ED001A5D48D0ED001A31EE63
:1010A000611A00EEC10A8DED020A5748D0ED000A20
:1010B0009DED040A07F0C8FE5948D0ED000A20EE65
:1010C000200A5048D0ED000A00EEAA0A30EE0F0ABE
:1010D0005148D0ED000A20EE200A68EE280A4C485C
:1010E00090ED001A4B48D0ED001A31EE611A00EE77
:1010F000C10A8DED010A4B4890ED000AB9EE001AC5
:1011000020EE010A484890ED001A20EE010AF0EEA8
:10111000400A9DED030A07F03DF8F0EE40FA414821
:1011200090ED000AB1EE001A20EE010A3E4890ED63
:10113000001A20EE010AF0EE400AB0EE6F0A07F046
:101140002FF885ED030A374890ED000AB9EE001A32
:1011500020EE010A344890ED001A20EE010AF0EE6C
:10116000400A9DED020A07F015F8F0EE40FA2D480E
:1011700090ED000AB1EE001A20EE010A2A4890ED27
:10118000001A20EE010AF0EE400AB0EE6F0A07F0F6
:1011900007F885ED040A234890ED000AB9EE001A1D
:1011A00020EE010A204890ED001A20EE010AF0EE30
:1011B000400A9DED010A06F0EDFFF0EE40FA1948F5
:1011C00090ED000AB1EE001A20EE010A164890EDEB
:1011D000001A20EE010AF0EE400AB0EE6F0A06F0A7
:1011E000DFFF85ED050A1148007838B99FED100A38
:1011F00085ED030A9FED0E0A85ED040A0DB0BDECE6
:10120000108B30BD3C000024440000242C0000243E
:101210000C000024100000241400002430000024DE
:1012200034000024180000241C000024480000247E
:101230000000000000BFFEE710B504F03BF803F02B
:10124000EBFF0348006840F004000149086010BD4E
:101250009CEF00E000B5D0ED000AB0EE600A00F0AF
:10126000A5F981ED000AD0ED010AB0EE600A00F0A8
:101270009DF981ED010AD0ED020AB0EE600A00F09E
:1012800095F981ED020AD0ED030AB0EE600A00F094
:101290008DF981ED030AD0ED040AB0EE600A00F08A
:1012A00085F981ED040AD0ED050AB0EE600A00F080
:1012B0007DF981ED050AD0ED060AB0EE600A00F076
:1012C00075F981ED060AD0ED070AB0EE600A00F06C
:1012D0006DF981ED070AD0ED080AB0EE600A00F062
:1012E00065F981ED080AD0ED090AB0EE600A00F058
:1012F0005DF981ED090AD0ED0A0AB0EE600A00F04E
:1013000055F981ED0A0AD0ED0B0AB0EE600A00F043
:101310004DF981ED0B0A00BD2DE9F043B7B004464D
:101320000F46302106A8FFF71DF84FF000090020F6
:10133000059094ED020AB7EEC00A8DED020B94ED14
:10134000010AB7EEC00A8DED000B94ED001AB7EE5E
:10135000C11AB0EE410B53EC102B54A005F09AFBD0
:1013600094ED050AB7EEC00A8DED020B94ED040A68
:10137000B7EEC00A8DED000B94ED031AB7EEC11A5B
:10138000B0EE410B53EC102B52A005F083FB002074
:1013900019E004EB800191ED000AB7EEC00A2AA91A
:1013A00001EBC00181ED000B04F10C0101EB8001A8
:1013B00091ED000AB7EEC00A2AAAC11C02EBC101D6
:1013C00081ED000B401C0328E3DB4CA005F062FB21
:1013D00000251FE02AA800EBC50090ED000B032DAF
:1013E0009FED4C1B9FED4D2B22FE011B80EE012B30
:1013F0001EA800EBC50080ED002B1EA800EBC50069
:1014000090ED001BB0EE410B53EC102B45A005F006
:1014100041FB6D1C062DDDDB44A005F03BFB12A952
:101420001EA807F0F9F9062212A941A007F0CCF98D
:1014300012A91EA806F0F6FF814643A005F02AFB7C
:101440004C48D0F804804C4912A807F03FFA4948AC
:101450004068A0EB080649480068864201D9474821
:1014600006604748006830444549086045480068C0
:10147000401C4449086044A005F00CFB05AB4A46FB
:101480003D491EA806F0BCFC059860B146480068BE
:10149000401C4549086006A9374800F00BFB06A927
:1014A000384606F0C1FA37B0BDE8F0835047442013
:1014B000696E707574205468727573743A205B2578
:1014C0002E35662C20252E35662C20252E35665D82
:1014D0000D0A000050474420696E70757420546FE7
:1014E000727175653A205B252E35662C20252E35C8
:1014F000662C20252E35665D0D0A000050474420DD
:10150000696E70757420465F6E6F726D3A0D0A5B7E
:10151000000000002A5C8FC2F528DC3F93E34EE90F
:1015200060FDAF3F20252E33662000005D0D0A00D0
:1015300050726F6A65637465642054617267657484
:1015400020465F70726F6A000D0A52756E6E696E8A
:10155000672050726F6A65637465642047726164C6
:1015600069656E742044657363656E742E2E2E0D4E
:101570000A000000001000E0D8160024E800002453
:10158000EC000024F00000240D0A566572696679AB
:10159000696E672050474420536F6C7574696F6E95
:1015A0002E2E2E0D0A000000DC000024F0EE400A72
:1015B0009FED1A0AF4EEC00AF1EE10FA08D89FED7A
:1015C000180A30EEC00ADFED171A80EE211A17E074
:1015D0009FED150AF4EEC00AF1EE10FA08D89FED5F
:1015E000130A30EEC00ADFED121A80EE211A07E06E
:1015F0009FED100A30EEC00ADFED0F1A80EE211ABF
:10160000DFED0E1AB2EE0A2A00BF82FE010A00BF09
:1016100000BF81FEC02AB0EE420A70470090984594
:1016200066AE52C5B597CD4300142A4666B689C446
:10163000CE98954366AE074598DE59430000B44204
:1016400010B55F4800685F49884204D95E48006869
:1016500000F4007027E05A4800685A49603988420F
:1016600005D95848B438006800F400701BE05448AD
:1016700000685649884205D95248B838006800F4D5
:10168000007010E04E48006850496039884205D922
:101690004E48B838406800F4007004E04B48B83851
:1016A000006800F40070002873D045480068454980
:1016B000884204D948154449091D086024E040487F
:1016C000006840496039884204D948153D49AC3921
:1016D000086019E03A4800683C49884204D9481536
:1016E0003849B03908600FE035480068374960393B
:1016F000884204D948153549B839C86004E04FF428
:1017000000703249B83988602D4800682F49A839DF
:1017100088420DD32A4800682A49884208D82848B8
:101720000068006820F0010025490968086007E0AA
:1017300023480068006820F001002149096808601A
:101740001F4800682149A839884209D31C4800680D
:101750001C49884204D8081519490968486004E002
:101760004FF48060164909684860154800681749B9
:10177000A83988420ED3124800681249884209D815
:101780000F480068006840F001000D4909680860D2
:1017900008E011E00A480068006840F001000849CC
:1017A000096808604FF480600949088000200949F1
:1017B0000880094807F044FB014800F07DFA10BD9D
:1017C000D4030024B804024000540258B800024078
:1017D0005A0000245C0000249C00002410B502483C
:1017E00000F06AFA10BD00005C030024014608788E
:1017F00010381823B0FBF3F20848805CC865032A50
:1018000005D908686FF30900001D886503E00868C2
:101810006FF309008865886D704700009C9500088B
:1018200010B500210268174B9A4213D8154B8C3B18
:101830009A420FD30378083B1424B3FBF4F1124B04
:1018400003EB81030366104B8033436601238B4017
:10185000836616E00378103B1824B3FBF4F10B4BBE
:101860009A4204D8094BA83B9A4200D30831084B4E
:1018700003EB81030366064B8033436601238B40F1
:10188000836610BD9454025800580258B8040240B0
:101890000008024010B502680179E9B108291BD897
:1018A0000E4B9A420CD80D4B8C3B9A4208D34B1EE0
:1018B0000B4C04EB8303C366094B4033036707E01B
:1018C0004B1E084C04EB8303C366064B403303678F
:1018D0004B1E01249C40446710BD000094540258E4
:1018E0000059025800090240014600208A69D2B915
:1018F0008A6A32B1012A0DD0022A03D0032A10D1FC
:101900000EE000BFCA6A02F08072B2F1807F00D19F
:10191000012007E0CA6AB2F1C07F00D1012001E0D6
:1019200000E000BF36E08A69B2F5005F1BD18A6A29
:1019300032B1012A07D0022A03D0032A11D10AE0CA
:1019400000BF01200EE0CA6A02F08072B2F1807F0F
:1019500000D1012006E0CA6AB2F1C07F00D10120A7
:1019600000E000BF16E08A6A32B1012A05D0022ADF
:1019700004D0032A0CD103E000BF00BF012008E01F
:10198000CA6A02F08072B2F1807F00D1012000E0CB
:1019900000BF00BF70470000F0B5846DD0E9196545
:1019A0007560C56E15B1D0E91C657560244E05687B
:1019B000B54205D3234E0568B54201D8012500E0A4
:1019C0000025CDB190F85C603F25B540A560056865
:1019D0002D6825F480250668356005686B6085688C
:1019E000402D04D10568AA600568E96026E0056815
:1019F000A9600568EA6021E0134E0568B5421DD371
:101A0000114E8C360568B54218D80F4D2D1F2D6824
:101A100090F85C700126BE4035430B4E361F356092
:101A200005686B608568402D04D10568AA6005686B
:101A3000E96003E00568A9600568EA60F0BD0000A0
:101A400010000240B80402400854025808480068D8
:101A500040F0807006490860064807490860002089
:101A6000064948600846006840F001000860704779
:101A7000FCED00E055CEACC5B01F00E0001000E06A
:101A80007047000010B50848007860B10020074991
:101A9000074A12888854084603F0C8FA002004490F
:101AA00008800149087010BD600000244C04002427
:101AB0005E00002470B52DED028B06460D46002415
:101AC00014E006EBC40090ED000B9FED1C1B80EEB4
:101AD000012BB0EE428BB0EE480B05F03BFAB7EEAF
:101AE000C00B05EB840080ED000A641C0C2CE8DBC5
:101AF00014A004F0CFFF002417E005EB840090ED64
:101B0000001AB7EEC11AB0EE410B53EC102B11A026
:101B100004F0C0FF601C062190FBF1F201FB1200F3
:101B200010B90EA004F0B6FF641C0C2CE5DB0BA072
:101B300004F0B0FFBDEC028B70BD0000B9CDA696DD
:101B4000CD27FE3D50474420536F6C7574696F6E0E
:101B50003A0D0A002531302E346620000D0A0000AF
:101B600070B506460D46144629463046FFF7D4FBAD
:101B700021462846FFF76EFB204603F0DBFB02A060
:101B800004F088FF70BD000046616E2053706565EB
:101B9000642063616C63756C6174656420616E645C
:101BA0002050574D2064757479206379636C6520EB
:101BB0007365742E0D0A000010B504460CB901209F
:101BC00010BD94F83500022803D080206065012004
:101BD000F6E734492068884205D3334920688842B3
:101BE00001D8012000E00020C0B1042084F83500B5
:101BF0002C49206888420AD32B492068884206D89D
:101C00002068006820F001002168086048E0206832
:101C1000006820F001002168086041E02068006849
:101C200020F00E00216808601E49206888420AD30F
:101C30001D492068884206D82068006820F001000D
:101C40002168086005E02068006820F00100216834
:101C50000860206E006820F48070216E086094F89F
:101C60005C100120884011490860D4E919104860CF
:101C7000E06E40B1E06E006820F48070E16E0860B4
:101C8000D4E91C10486000BF002084F8340000BF75
:101C9000012084F83500206D10B12046216D884761
:101CA00000208DE710000240B8040240045402589E
:101CB0000146486D704700002DE9F84304460027AF
:101CC000002500200090FE4800684FF41651B0FB3C
:101CD000F1F8A66D3768FB492068884205D3FA49B8
:101CE0002068884201D8012000E0002000287BD035
:101CF00094F85C1008208840384000B3F14920680F
:101D0000884208D3F0492068884204D820680068D7
:101D100000F0040003E02068006800F0080070B1E3
:101D20002068006820F004002168086094F85C10C6
:101D300008208840B060606D40F00100606594F854
:101D40005C10E24888403840C8B1DE4920688842CB
:101D500008D3DD492068884204D82068406900F033
:101D6000800002E020680068002040B194F85C1018
:101D7000D6488840B060606D40F00200606594F81D
:101D80005C10D248C01C88403840D0B1CD49206892
:101D9000884208D3CC492068884204D8206800686B
:101DA00000F0020002E020680068002048B194F8CA
:101DB0005C10C648C01C8840B060606D40F00400F4
:101DC000606594F85C1010208840384030B3BD49FD
:101DD0002068884209D3BC492068884205D8206819
:101DE000006800F0080004E0EFE02068006800F000
:101DF000040098B194F85C1010208840B06020680E
:101E0000006800F4802080B12068006800F40020A1
:101E100028B9206C10B12046216C884715E0A06CD1
:101E200098B12046A16C88470FE02068006800F454
:101E3000807028B92068006820F0080021680860D8
:101E4000206C10B12046216C884794F85C1020204B
:101E500088403840002873D09A492068884208D3C7
:101E600099492068884204D82068006800F0100072
:101E700003E02068006800F00200002860D094F8B9
:101E80005C1020208840B06094F83500042829D1E7
:101E90002068006820F0160021680860206840690A
:101EA00020F0800021684861206C08B9A06C28B13E
:101EB0002068006820F008002168086094F85C1031
:101EC0003F208840B06000BF002084F8340000BF8D
:101ED000012084F83500206D10B12046216D88471F
:101EE000BDE8F8832068006800F4802080B1206895
:101EF000006800F4002028B9606C10B12046616CC5
:101F000088471DE0E06BD8B12046E16B884717E0B9
:101F10002068006800F4807068B92068006820F0CC
:101F200010002168086000BF002084F8340000BF62
:101F3000012084F83500E06B10B12046E16B884742
:101F4000606D002840D0606D00F0010090B3042067
:101F500084F835005B49206888420AD35A492068D2
:101F6000884206D82068006820F0010021680860D7
:101F700005E02068006820F001002168086000BFCB
:101F80000098401C0090404500D905E0206800689A
:101F900000F001000028F3D100BF00BF002084F84A
:101FA000340000BF2068006800F0010018B1032071
:101FB00084F8350002E0012084F83500E06C002848
:101FC00002D02046E16C884797E04149206888426A
:101FD00006D33F498C312068884201D8012000E0B7
:101FE0000020002853D0256839480838006894F844
:101FF0005C20042191400840E0B1286800F0040012
:10200000C0B1286800F0200018B9286820F004004A
:1020100028602F48001F006894F85C20042191403C
:1020200008432B49091F0860206C80B32046216CAF
:10203000884762E026480838006894F85C2002214E
:102040009140084020B3286800F0020000B32868DF
:1020500000F0200058B9286820F00A00286000BF6E
:10206000002084F8340000BF012084F835001848AF
:10207000001F006894F85C20022191400843144935
:10208000091F0860E06B10B12046E16B884734E01F
:102090000F480838006894F85C20082191400840F7
:1020A00058B3286800F0080038B3286820F00E0004
:1020B00028600748001F006894F85C20012109E0AF
:1020C0000000002410000240B8040240010080001B
:1020D000085402589140084309490860012060658E
:1020E00000BF002084F8340000BF012084F83500D0
:1020F000E06C10B12046E16C884700BFF0E60000BC
:10210000045402582DE9F0410446002500F0DAFAA3
:102110000646002714B90120BDE8F08179492068FE
:10212000884205D378492068884201D8012000E020
:102130000020002871D0606A00B100BF00BF0020FD
:1021400084F8340000BF022084F835006D4920680F
:1021500088420AD36C492068884206D82068006803
:1021600020F001002168086005E02068006820F088
:102170000100216808600BE000F0A4FA801B05282C
:1021800006D920206065032084F835000120C3E7CC
:102190002068006800F001000028EDD12068056883
:1021A0005A480540D4E9020108432169084361699E
:1021B0000843A1690843E1690843216A08430543CC
:1021C000606A042803D1D4E90B0108430543206861
:1021D00005602068456925F00705606A0543606A67
:1021E00004280DD1A06A0543E06A48B12046FFF7F4
:1021F0007BFB28B140206065012084F835008BE727
:10220000206845612046FFF7F1FA074694F85C1014
:102210003F208840B8604DE0FFE73D492068884294
:1022200006D33B498C312068884201D8012000E068
:102230000020B8B300BF002084F8340000BF0220A3
:1022400084F835002068056847F6F0708543A0687B
:10225000402801D1102105E0A068802801D1C101EA
:1022600000E00021E06841EAD001206941EAD001A4
:10227000606941EAD001A06941EAD0002022E16909
:1022800002EAD1010843216A40EA1110054320689F
:1022900005601F492068401A1421B0FBF1F080004E
:1022A000E06507E0FFE740206065032084F8350023
:1022B000012031E72046FFF7B3FAA068802801D15A
:1022C000002060602079216E0860D4E91910486010
:1022D000606860B16068082809D82046FFF7DAFA1C
:1022E0000020E16E0860D4E91C10486003E0002083
:1022F000E0662067606700206065012084F8350093
:10230000002009E710000240B80402403F8010FEA0
:10231000085402582DE9F04104460D4616461F4662
:102320004FF0000814B90120BDE8F08100BF94F817
:102330003400012801D10220F6E7012084F834009E
:1023400000BF94F8350001287CD1022084F83500C4
:10235000002060654149206888420AD340492068CE
:10236000884206D82068006820F0010021680860D3
:1023700005E02068006820F00100216808603B4605
:10238000324629462046FFF707FB34492068884239
:1023900005D333492068884201D8012000E000209D
:1023A000B0B12068006820F01E0040F016002168DF
:1023B00008602068406940F0800021684861206C16
:1023C000B0B12068006840F00800216808600FE0A4
:1023D0002068006820F00E0040F00A0021680860C4
:1023E000206C28B12068006840F004002168086073
:1023F000206E006800F4803028B1206E006840F440
:102400008070216E0860E06E28B1E06E006840F4D4
:102410008070E16E08601149206888420BD3104932
:102420002068884207D82068006840F001002168D1
:10243000086011E006E02068006840F001002168B3
:10244000086009E000BF002084F8340000BF4FF4AA
:10245000006060654FF00108404665E710000240EB
:10246000B80402400348006840F0010001490860D8
:102470007047000020040058F8B502460B460021C2
:10248000002600240020824D00BFFCE0012707FA4F
:1024900001F61F6807EA0604B4427CD15F68022F88
:1024A00002D05F68122F1AD14FEAD10C02F1200737
:1024B00057F82C004F074FEAD76C0F2707FA0CF795
:1024C000B8434FEA417C4FEADC6C1F6907FA0CF70E
:1024D00038434FEAD10C02F1200747F82C0010686E
:1024E0004FEA410C032707FA0CF7B8431F7907F0AE
:1024F00003074FEA410C07FA0CF7384310605F6896
:10250000012F08D05F68022F05D05F68112F02D01D
:102510005F68122F17D190684FEA410C032707FA22
:102520000CF7B8434FEA410CDF6807FA0CF7384361
:102530009060506801278F40B8431F79C7F3001798
:102540008F4038435060D0684FEA410C032707FAA8
:102550000CF7B8434FEA410C9F6807FA0CF7384371
:10256000D0605F6807F08057B7F1805F95D100BFFA
:10257000484F3F6847F00207DFF818C1CCF80070F9
:1025800067463F6807F00207009700BF00BF424F51
:102590004FEA910C00E075E057F82C008F074FEAE6
:1025A000177C0F2707FA0CF7B8433C4FBA4201D10A
:1025B00000272DE03A4FBA4201D1012728E0394FD8
:1025C000BA4201D1022723E0374FBA4201D1032793
:1025D0001EE0364FBA4201D1042719E0344FBA4207
:1025E00001D1052714E0334FBA4201D106270FE08D
:1025F000314FBA4201D107270AE0304FBA4201D128
:10260000082705E02E4FBA4201D1092700E00A272A
:102610004FEA817C4FEA1C7C07FA0CF738431E4FC7
:102620004FEA910C47F82C002868A0435F6807F434
:102630008037B7F5803F00D1204328606868A04309
:102640005F6807F40037B7F5003F00D120436860AA
:102650004FF0B0473868A0435F6807F48017B7F5BC
:10266000801F00D120434FF0B04738607868A04306
:102670005F6807F40017B7F5001F00D120434FF043
:10268000B0477860491C1029FFF400AFF8BD000086
:1026900080000058F4440258080400580000025812
:1026A0000004025800080258000C0258001002589A
:1026B0000014025800180258001C0258002002584A
:1026C000002402580148006870470000B40000244C
:1026D00003480068034909780844014908607047C5
:1026E000B4000024BC00002410B5032000F0D2F890
:1026F0000F2000F007F808B1012010BD00F08CF8A1
:102700000020FAE770B504460E4800784FF47A715D
:10271000B1FBF0F00C490968B1FBF0F5284601F077
:1027200033F908B1012070BD102C07D200222146D8
:10273000501E00F072F80548046001E00120F2E745
:102740000020F0E7BC00002400000024B8000024B2
:102750004178154A11600178F9B1121D4168116084
:10276000017B0907C27A41EA0261827A41EAC241E9
:10277000427B41EA8241827B41EA4241C27B41EA9B
:102780000241427A41EA0221027A41EA4201027898
:102790001143054A0832116005E00021024A121D6A
:1027A0001160121D1160704798ED00E000BF00BF7E
:1027B00000BFBFF35F8F00BF00BF00BF05480068C8
:1027C00020F480300349086000200249703108601D
:1027D0007047000024ED00E040F001010D4A116057
:1027E0000C497039096841F480310A4A703A116025
:1027F00000BF00BF00BFBFF34F8F00BF00BF00BFCF
:1028000000BF00BF00BFBFF36F8F00BF00BF00BF9E
:102810007047000094ED00E070472DE9F05F8046BE
:102820000D46164604F0A4F9074639462A463346B3
:1028300001F00700C0F1070ABAF1040F02D94FF006
:10284000040A01E0C0F1070AD14600F1040ABAF116
:10285000070F02D24FF0000A01E0A0F1030AD446AC
:102860004FF0010A0AFA09FAAAF1010A0AEA020A71
:102870000AFA0CFA4FF0010B0BFA0CFBABF1010B4F
:102880000BEA030B4AEA0B042146404604F08CF99C
:10289000BDE8F09F00BF00F00702064B19684FF635
:1028A000FF031940044B0B4343EA0221014B19601B
:1028B00000BF70470CED00E00000FA0510B500F015
:1028C000CBFB0949096801F470614FF4807292FAF8
:1028D000A2F2B2FA82F2D140044A515CC8400449E3
:1028E00008600846006810BD184402585C9500084E
:1028F0000000002410B500F067FB0749096801F0EB
:102900007001102292FAA2F2B2FA82F2D140034A86
:10291000515CC84010BD0000204402585C9500087E
:1029200070B5014600220120002300249FED811A8A
:10293000B0EE410A9FED7F1AF0EE410A7E4D2D6800
:1029400005F003027C4D2D68C5F305307A4D2D1D31
:102950002D6805F01003784D14352D68C5F3CC05AE
:1029600015FB03F501EE105AB8EE411AB0EE410A1C
:1029700022B1012A4DD0022A7DD169E06E4D283D59
:102980002D68C5F340152DB36B4D283D2D68C5F35B
:10299000C1066A4D25FA06F4B4FBF0F501EE105AB3
:1029A000F8EE411A9FED661A80EE012A624D10354D
:1029B0002D68C5F3080501EE105AB8EE411A32EE43
:1029C000011AB7EE002A31EE021A21EE811AF0EE5A
:1029D000410A1DE0594DB5FBF0F501EE105AF8EE35
:1029E000411A9FED571A80EE012A534D10352D687C
:1029F000C5F3080501EE105AB8EE411A32EE011A7D
:102A0000B7EE002A31EE021A21EE811AF0EE410AE9
:102A10005EE04C4DB5FBF0F501EE105AB8EE412AE0
:102A20009FED471AC0EE011A434D10352D68C5F3CE
:102A3000080501EE105AB8EE411A31EE811AF7EE90
:102A4000001A31EE211A22EE011AF0EE410A3FE09F
:102A50003D4DB5FBF0F501EE105AF8EE411A9FED31
:102A6000381A80EE012A344D10352D68C5F308055B
:102A700001EE105A00E00CE0B8EE411A32EE011AF5
:102A8000B7EE002A31EE021A21EE811AF0EE410A69
:102A90001EE02C4DB5FBF0F501EE105AB8EE412AC0
:102AA0009FED271AC0EE011A234D10352D68C5F38E
:102AB000080501EE105AB8EE411A31EE811AF7EE10
:102AC000001A31EE211A22EE011AF0EE410A00BF7F
:102AD00000BF194D10352D68C5F346256D1C01EE5C
:102AE000105AB8EE411AC0EE811ABCEEE11A81ED1F
:102AF000001A114D10352D68C5F306456D1C01EE09
:102B0000105AB8EE411AC0EE811ABCEEE11A81EDFE
:102B1000011A094D10352D68C5F306656D1C01EECF
:102B2000105AB8EE411AC0EE811ABCEEE11A81EDDE
:102B3000021A70BD00000000284402580090D00323
:102B40000000004600093D0040787D0170B5014657
:102B500000220120002300249FED811AB0EE410ADB
:102B60009FED7F1AF0EE410A7E4D2D6805F00302BD
:102B70007C4D2D68C5F305507A4D2D1D2D6805F44B
:102B80008073784D1C352D68C5F3CC0515FB03F516
:102B900001EE105AB8EE411AB0EE410A22B1012AF4
:102BA0004DD0022A7DD169E06E4D283D2D68C5F3D8
:102BB00040152DB36B4D283D2D68C5F3C1066A4DF8
:102BC00025FA06F4B4FBF0F501EE105AF8EE411ABE
:102BD0009FED661A80EE012A624D18352D68C5F307
:102BE000080501EE105AB8EE411A32EE011AB7EE9E
:102BF000002A31EE021A21EE811AF0EE410A1DE0A0
:102C0000594DB5FBF0F501EE105AF8EE411A9FED63
:102C1000571A80EE012A534D18352D68C5F3080563
:102C200001EE105AB8EE411A32EE011AB7EE002A40
:102C300031EE021A21EE811AF0EE410A5EE04C4DAF
:102C4000B5FBF0F501EE105AB8EE412A9FED471A98
:102C5000C0EE011A434D18352D68C5F3080501EE85
:102C6000105AB8EE411A31EE811AF7EE001A31EE21
:102C7000211A22EE011AF0EE410A3FE03D4DB5FB6C
:102C8000F0F501EE105AF8EE411A9FED381A80EE79
:102C9000012A344D18352D68C5F3080501EE105A88
:102CA00000E00CE0B8EE411A32EE011AB7EE002A4D
:102CB00031EE021A21EE811AF0EE410A1EE02C4D8F
:102CC000B5FBF0F501EE105AB8EE412A9FED271A38
:102CD000C0EE011A234D18352D68C5F3080501EE25
:102CE000105AB8EE411A31EE811AF7EE001A31EEA1
:102CF000211A22EE011AF0EE410A00BF00BF194D61
:102D000018352D68C5F346256D1C01EE105AB8EE36
:102D1000411AC0EE811ABCEEE11A81ED001A114D84
:102D200018352D68C5F306456D1C01EE105AB8EE36
:102D3000411AC0EE811ABCEEE11A81ED011A094D6B
:102D400018352D68C5F306656D1C01EE105AB8EEF6
:102D5000411AC0EE811ABCEEE11A81ED021A70BD73
:102D600000000000284402580090D00300000046F4
:102D700000093D0040787D0170B504460D460026EF
:102D80008D48006800F00700A8420ED28A4800680B
:102D900020F007002843884908600846006800F0D2
:102DA0000700A84201D0012070BD207800F0020089
:102DB000022807D18148006820F00F00E16808432D
:102DC0007E490860207800F00100002851D07B483F
:102DD000006820F47060A168084378490860606862
:102DE000022807D1754818380068C0F34040F8B988
:102DF0000120D9E76068032807D1704818380068B7
:102E0000C0F34060A0B90120CEE76068012807D177
:102E10006A4818380068C0F3002048B90120C3E7A9
:102E2000664818380068C0F3800008B90120BBE785
:102E300062480838006820F00700616808435F496D
:102E400008390860FFF73EFC06466068022811D189
:102E500008E0FFF737FC801B41F28831884201D936
:102E60000320A1E755480838006800F03800102812
:102E7000EFD13AE06068032811D108E0FFF722FCA7
:102E8000801B41F28831884201D903208CE74B48EE
:102E90000838006800F038001828EFD125E0606895
:102EA000012811D108E0FFF70DFC801B41F28831A9
:102EB000884201D9032077E740480838006800F0CD
:102EC00038000828EFD110E008E0FFF7FBFB801B7B
:102ED00041F28831884201D9032065E73748083834
:102EE000006800F038000028EFD13348006800F097
:102EF0000700A8420ED93048006820F00700284398
:102F00002D4908600846006800F00700A84201D07B
:102F1000012049E7207800F00400042807D1274861
:102F2000006820F070002169084324490860207877
:102F300000F00800082809D12048001D006820F092
:102F40007000616908431D49091D0860207800F080
:102F50001000102809D11948001D006820F4E06015
:102F6000A16908431549091D0860207800F0200078
:102F7000202809D111480830006820F07000E1696C
:102F800008430E490831086000F066F80B490968EB
:102F900001F470614FF4807292FAA2F2B2FA82F2F6
:102FA000D140074A515CC840064908600F20FFF72E
:102FB000A9FB0020F8E60000002000521844025847
:102FC0005C9500080000002410B5FFF777FC094964
:102FD000096801F00F01012292FAA2F2B2FA82F21C
:102FE000D140054A515CC840044908600846006861
:102FF00010BD0000184402585C950008040000242D
:1030000010B5FFF7E1FF0749096801F070011022D0
:1030100092FAA2F2B2FA82F2D140034A515CC8405D
:1030200010BD00001C4402585C95000810B5FFF765
:10303000CBFF0749096801F4E0614FF4807292FA0E
:10304000A2F2B2FA82F2D140024A515CC84010BDED
:103050001C4402585C95000870B5012500EE905A9A
:103060000022012100230024DFED861AB0EE610A60
:10307000DFED841AB0EE611A0020834D2D6805F053
:10308000380535B1082D15D0102D15D0182D7CD14F
:1030900014E07D4D103D2D68C5F3401545B17A4DC6
:1030A000103D2D68C5F3C106784D25FA06F000E005
:1030B0007648E5E07648E3E07648E1E0724D183581
:1030C0002D6805F00302704D18352D68C5F3051104
:1030D0006D4D1C352D6805F001036B4D24352D68B1
:1030E000C5F3CC0515FB03F501EE905AF8EE611A15
:1030F000B0EE610A22B1012A4FD0022A7DD16BE0E5
:10310000614D103D2D68C5F340152DB35E4D103D4A
:103110002D68C5F3C1065D4D25FA06F4B4FBF1F543
:1031200001EE905AB8EE612ADFED5B1AC0EE212A5B
:10313000554D20352D68C5F3080501EE905AF8EE7F
:10314000611A72EEA11AF7EE002A71EEA21A62EE6F
:10315000211AB0EE611A1FE04C4DB5FBF1F501EEFE
:10316000905AB8EE612ADFED4C1AC0EE212A464D86
:1031700020352D68C5F3080501EE905AF8EE611A66
:1031800072EEA11AF7EE002A00E077E071EEA21AC3
:1031900062EE211AB0EE611A5EE03D4DB5FBF1F52D
:1031A00001EE905AB8EE612ADFED3B1AC0EE212AFB
:1031B000354D20352D68C5F3080501EE905AF8EE1F
:1031C000611A72EEA11AF7EE002A71EEA21A62EEEF
:1031D000211AB0EE611A3FE02E4DB5FBF1F501EE7C
:1031E000905AB8EE612ADFED2C1AC0EE212A264D46
:1031F00020352D68C5F3080500E00EE001EE905A79
:10320000F8EE611A72EEA11AF7EE002A71EEA21A18
:1032100062EE211AB0EE611A1EE01D4DB5FBF1F50C
:1032200001EE905AF8EE612ADFED1B1A80EE212A9A
:10323000154D20352D68C5F3080501EE905AF8EEBE
:10324000611A72EE211AB7EE002A71EE821A62EE4E
:10325000A11AB0EE611A00BF00BF0B4D20352D68DA
:10326000C5F346256D1C00EE905AF8EE601A81EE0B
:10327000212AFCEEC21A11EE900A01E0044800BFB8
:1032800000BF70BD00000000104402580090D00341
:1032900000093D0040787D010000004670B50446FD
:1032A0000025207800F00100002872D0F94800685D
:1032B00000F0380010280CD0F648006800F0380004
:1032C000182812D1F3481830006800F003000228D3
:1032D0000BD1F04810380068C0F3404000286DD092
:1032E000606800286AD1012070BD00BF6068B0F539
:1032F000803F08D1E7481038006840F48030E54945
:10330000103908602EE0606868B9E248103800683B
:1033100020F48030DF49103908600846006820F446
:10332000802008601EE06068B0F5A02F0DD1D9485C
:103330001038006840F48020D649103908600846EB
:10334000006840F4803008600CE0D2481038006813
:1033500020F48030CF49103908600846006820F416
:103360008020086000BF6068A0B1FFF7ABF9054698
:1033700008E0FFF7A7F9401B41F28831884201D9E4
:103380000320B1E7C34810380068C0F3404000286C
:10339000EFD013E0FFF796F9054608E0FFF792F942
:1033A000401B41F28831884201D903209CE7B9488B
:1033B00010380068C0F340400028EFD1207800F0BA
:1033C0000200022847D1B348006800F0380058B125
:1033D000B048006800F0380018283ED1AD481830D9
:1033E000006800F00300B8BBAA4810380068C0F3BA
:1033F000800018B1E06808B9012075E7A5481038C9
:10340000006820F01900E1680843A24910390860FB
:10341000FFF758F9054606E0FFF754F9401B02286C
:1034200001D9032060E79B4810380068C0F3800092
:103430000028F1D097480C38006820F47C304FF415
:103440007C3292FAA2F2B2FA82F2216991400843E8
:1034500090490C3908604AE0FFE7E06868B38D489E
:103460001038006820F01900E168084389491039D4
:103470000860FFF727F9054606E0FFF723F9401B30
:10348000022801D903202FE7824810380068C0F3D2
:1034900080000028F1D07F480C38006820F47C3090
:1034A0004FF47C3292FAA2F2B2FA82F22169914090
:1034B000084378490C39086019E0764810380068EC
:1034C00020F00100734910390860FFF7FBF805464A
:1034D00006E0FFF7F7F8401B022801D9032003E7B5
:1034E0006C4810380068C0F380000028F1D12078C3
:1034F00000F01000102877D16648006800F038000E
:1035000008280CD06348006800F03800182823D140
:1035100060481830006800F0030001281CD15D48A5
:1035200010380068C0F3002020B1E069802801D085
:103530000120D9E657480C38006820F0F8404FF0D9
:10354000F84292FAA2F2B2FA82F2216A914008435A
:1035500050490C39086047E0E06958B34D481038CD
:10356000006840F080004B4910390860FFF7AAF866
:10357000054606E0FFF7A6F8401B022801D9032004
:10358000B2E6444810380068C0F300200028F1D0AB
:1035900040480C38006820F0F8404FF0F84292FAAA
:1035A000A2F2B2FA82F2216A9140084339490C39F9
:1035B000086019E037481038006820F0800035496D
:1035C00010390860FFF77EF8054606E0FFF77AF845
:1035D000401B022801D9032086E62E4810380068D7
:1035E000C0F300200028F1D1207800F0080008285E
:1035F00036D16069D0B127486430006840F00100DE
:10360000244964310860FFF75DF8054606E0FFF7DE
:1036100059F8401B022801D9032065E61D48643093
:103620000068C0F340000028F1D019E01948643068
:10363000006820F00100174964310860FFF742F884
:10364000054606E0FFF73EF8401B022801D903209B
:103650004AE6104864300068C0F340000028F1D109
:10366000207800F02000202834D1A069D8B1094882
:103670001038006840F48050064910390860FFF7A0
:1036800021F8054608E0FFF71DF8401B022803D982
:10369000032029E610440258AF480068C0F34030C8
:1036A0000028F0D016E0AC48006820F48050AA4909
:1036B0000860FFF707F8054606E0FFF703F8401B30
:1036C000022801D903200FE6A3480068C0F3403068
:1036D0000028F2D1207800F0040004287DD19F4812
:1036E000006840F480709D490860FEF7EBFF0546D6
:1036F00006E0FEF7E7FF401B642801D90320F3E54D
:103700009648006800F480700028F2D000BFA068DE
:10371000012808D190487030006840F001008E49BF
:10372000703108602DE0A06868B98B48703000687F
:1037300020F001008849703108600846006820F0D8
:10374000040008601DE0A06805280DD18248703093
:10375000006840F004008049703108600846006845
:1037600040F0010008600CE07B487030006820F0F9
:1037700001007949703108600846006820F00400B3
:10378000086000BFA068A0B1FEF79CFF054608E0F6
:10379000FEF798FF401B41F28831884201D903208F
:1037A000A2E56D4870300068C0F340000028EFD0FB
:1037B00013E0FEF787FF054608E0FEF783FF401B96
:1037C00041F28831884201D903208DE5624870308A
:1037D0000068C0F340000028EFD1606A00287CD068
:1037E0005D481030006800F03800182876D0606A14
:1037F000022874D15848006820F08070564908604B
:10380000FEF760FF054606E0FEF75CFF401B02285E
:1038100001D9032068E550480068C0F340600028E3
:10382000F2D100BFD4E90A1041EA00104A49283118
:10383000096840F2F3329143084347492831086050
:10384000208E401EC0F30800616B491E4FF47E427B
:1038500002EA41210843218F491ED20102EA0141B7
:1038600008433C21095D491E120202EA0161084336
:1038700039493031086000BF081D00684FF6F87103
:1038800088434FF6F87292FAA2F2B2FA82F2A16C71
:10389000914008433049343108602F482C3000688B
:1038A00020F00C00216C08432B492C31086008469D
:1038B000006820F00200616C084327492C31086041
:1038C0000846006840F4803008600846006840F40C
:1038D000003008600846006802E03BE038E01FE086
:1038E00040F4802008600846006840F0010008604D
:1038F0001948006840F0807017490860FEF7E2FE42
:10390000054606E0FEF7DEFE401B022801D9032033
:10391000EAE411480068C0F340600028F2D019E0E2
:103920000D48006820F080700B490860FEF7CAFE61
:10393000054606E0FEF7C6FE401B022801D903201B
:10394000D2E405480068C0F340600028F2D101E0ED
:103950000120C9E40020C7E400440258004802588E
:10396000042808D14FF0E021096941F004014FF02B
:10397000E022116107E04FF0E021096921F0040124
:103980004FF0E0221161704770B504462546681E6D
:10399000B0F1807F01D301200FE0681E4FF0E021DD
:1039A00048610F214FF0FF3003F0FEF800204FF088
:1039B000E021886107200861002070BD70477047D2
:1039C000704710B5044620680069C0F34000D8B1C4
:1039D0002068C068C0F34000B0B16FF002002168F9
:1039E0000861012020772068806900F0030018B189
:1039F0002046FFF7E5FF05E0204600F0BEF8204630
:103A000000F080FA0020207720680069C0F3800071
:103A1000D8B12068C068C0F38000B0B16FF0040076
:103A200021680861022020772068806900F44070D6
:103A300018B12046FFF7C4FF05E0204600F09DF8CE
:103A4000204600F05FFA0020207720680069C0F36C
:103A5000C000D8B12068C068C0F3C000B0B16FF03A
:103A6000080021680861042020772068C06900F000
:103A7000030018B12046FFF7A3FF05E0204600F041
:103A80007CF8204600F03EFA00202077206800698C
:103A9000C0F30010D8B12068C068C0F30010B0B106
:103AA0006FF0100021680861082020772068C06945
:103AB00000F4407018B12046FFF782FF05E0204671
:103AC00000F05BF8204600F01DFA00202077206807
:103AD000006900F0010058B12068C06800F00100E2
:103AE00030B16FF0010021680861204600F044FA0F
:103AF00020680069C0F3C01058B12068C068C0F3E6
:103B0000C01030B16FF08000216808612046FFF7D7
:103B100055FF20680069C0F3002058B12068C068D4
:103B2000C0F3C01030B16FF08000216808612046FA
:103B3000FFF744FF20680069C0F3801058B1206887
:103B4000C068C0F3801030B16FF040002168086198
:103B5000204600F071FA20680069C0F3401058B1A7
:103B60002068C068C0F3401030B16FF020002168B9
:103B700008612046FFF723FF10BD704770B504466B
:103B80000D46164600BF94F83C00012801D10220E2
:103B900070BD012084F83C0000BF022084F83D0085
:103BA0000C2E51D005DC4EB1042E1ED0082E7AD139
:103BB00033E0102E60D0142EF9D175E0294620682C
:103BC00001F09CFD2068806940F008002168886150
:103BD0002068806920F0040021688861206880697D
:103BE000296908432168886177E02946206801F047
:103BF000DDFD2068806940F40060216888612068EC
:103C0000806920F480602168886120688069296962
:103C100040EA0120216888615FE02946206801F0C0
:103C200023FE2068C06940F008002168C861206850
:103C3000C06920F004002168C8612068C069296952
:103C400008432168C86148E02946206801F066FE03
:103C50002068C06940F400602168C8612068C069BC
:103C600020F480602168C8612068C069296940EA41
:103C700001202168C86130E02946206801F08AFEF1
:103C80002068406D40F00800216848652068406D5C
:103C900020F00400216848652068406D29690843C8
:103CA0002168486519E017E02946206801F0AAFE5E
:103CB0002068406D40F40060216848652068406DD0
:103CC00020F48060216848652068406D296940EAD9
:103CD00001202168486500E000BF00BF012084F892
:103CE0003D0000BF002084F83C0000BF00BF4FE74C
:103CF00010B504460CB9012010BD94F83D0028B958
:103D0000002084F83C00204600F00CF8022084F8E3
:103D10003D00211D206801F07DFC012084F83D005C
:103D20000020E9E710B586B004466D492068884256
:103D30003FD100BF6B48006840F00200694908604D
:103D40000846006800F00200009000BF00BF00BFFE
:103D500064480838006840F001006249083908608A
:103D60000846006800F00100009000BF00BF00BFDF
:103D70000846006840F0020008600846006800F04D
:103D80000200009000BF00BFC020019002200290FE
:103D900001200390032004900220059001A95248BD
:103DA000FEF76AFB0320019001A95048FEF764FB6F
:103DB00094E04F49206888422DD100BF49480068EF
:103DC00040F00400474908600846006800F004001D
:103DD000009000BF00BF00BF42480838006840F0B4
:103DE00002004049083908600846006800F00200F7
:103DF000009000BF00BF4FF460700190022002905D
:103E000001200390032004900220059001A9374867
:103E1000FEF732FB62E03749206888422DD100BFAF
:103E20003048006840F008002E49086008460068E5
:103E300000F00800009000BF00BF00BF294808380C
:103E4000006840F08000274908390860084600688B
:103E500000F08000009000BF00BF4FF44060019070
:103E6000022002900120039003200490022005907C
:103E700001A92148FEF700FB30E020492068884274
:103E80002CD100BF17480830006840F002001549E7
:103E9000083108600846006800F00200009000BF8A
:103EA00000BF00BF0F480838006840F480700D491B
:103EB000083908600846006800F48070009000BF70
:103EC00000BFE02001900220029001200390032017
:103ED0000490059001A90A48FEF7CEFA06B010BD7D
:103EE00000040040E8440258000002580004025850
:103EF00000080040000C0040001C02580004014073
:103F0000002002587047000030B504460D460122DB
:103F10002946206801F0E4FB1249206888420FD04E
:103F20001149206888420BD010492068884207D088
:103F30000F492068884203D00E492068884201D189
:103F4000012000E0002028B12068406C40F40040CF
:103F5000216848642068008840F0010021680880DA
:103F6000002030BD0000014000040140004001403D
:103F7000004401400048014070B505462348854291
:103F800041D10120224908702248007818B1002050
:103F90002049087070BD204846682049204800F03C
:103FA000ABFE1E491E48FCF7B5FF1E490978C1EB60
:103FB000C1011D4A02EB810018221849FCF7B9F92A
:103FC000012018490978C1EBC101174A02EB8101B0
:103FD00008761448007880F00100124908700E48F5
:103FE0004068841B11480068844201D90F4804606E
:103FF0000F48006820440E4908600E480068401CC5
:104000000C49086000BF00BFC4E700008C14002406
:10401000C0000024F5000024001000E0200200246D
:1040200000010024D800002440160024C40000240D
:10403000CC000024C80000247047704710B5044627
:104040002F49206888425AD1E06F00F00F00002805
:1040500055D0606F00682B4988420DD3606F0068AF
:104060002949884208D8606F0068006820F0010084
:10407000616F0968086007E0606F0068006820F001
:104080000100616F09680860606F00681D4988421F
:1040900009D3606F00681C49884204D80815616F15
:1040A0000968486004E04FF48060616F0968486007
:1040B000606F0068134988420DD3606F0068124931
:1040C000884208D8606F0068006840F00100616FA6
:1040D0000968086007E0606F0068006840F0010050
:1040E000616F096808604FF480600849088000200B
:1040F00007490880074804F0A3FE0020E06710BDD0
:104100000044004010000240B80402405A0000245D
:104110005C0000249C0000242DE9F0410446206846
:10412000C569206807682068866805F00F08B8F13F
:10413000000F0DD105F0200050B107F0200010B99C
:1041400006F0805020B1204601F061FEBDE8F0810C
:10415000B8F1000F72D05D48304018B907F4907084
:1041600000287AD005F0010048B107F4807030B122
:10417000012021680862E06F40F00100E06705F06F
:10418000020048B106F0010030B102202168086247
:10419000E06F40F00400E06705F0040048B106F06D
:1041A000010030B1042021680862E06F40F0020095
:1041B000E06705F0080078B107F0200028B906F0A4
:1041C000805010B906F0010030B108202168086263
:1041D000E06F40F00800E067E06F70B305F020008A
:1041E00040B107F0200010B906F0805010B1204611
:1041F00001F00DFEE06F00F0080020B92068806833
:1042000000F0400018B3204601F0D7FD2068806818
:1042100000F04000B8B12068806820F040002168BC
:104220008860606F58B12A48616F0865606FFDF75C
:10423000C3FC10B1606F016D88470DE00DE02046B2
:10424000FFF7FCFE08E02046FFF7F8FE04E02046FA
:10425000FFF7F4FE0020E06778E705F4801078B1FE
:1042600006F4800060B14FF48010216808622020BD
:1042700084F8790084F87A002046FFF7DEFE65E7CF
:1042800005F0800048B107F0800010B906F4000086
:1042900018B1204602F0D2FA58E705F0400030B1DC
:1042A00007F0400018B1204601F097FD4EE705F4F5
:1042B000000040B107F0804028B12068006820F07D
:1042C00080402168086000BF40E700000100001046
:1042D000AF5C000810B504460CB9012010BDA06900
:1042E00000B100E000BF94F8790028B9002084F8FC
:1042F0007800204600F02AF8242084F8790020680D
:10430000006820F0010021680860204601F0C4FD2B
:10431000012800D1E2E7606B10B1204601F018FCE3
:104320002068406820F490402168486020688068D8
:1043300020F02A00216888602068006840F00100B1
:1043400021680860204601F078FCC7E7704700004C
:1043500070B504460E46154694F87A00202843D1DD
:1043600006B10DB9012070BD00BF94F87800012896
:1043700001D10220F7E7012084F8780000BF6666CB
:10438000A4F868500020E067222084F87A001748DB
:10439000616FC8631648616F08641648616FC8642E
:1043A0000020616F0865236803F124012B46626ECB
:1043B000606FFDF7AFFF00BF002084F8780000BFFA
:1043C0002068006840F48070216808602068806878
:1043D00040F00100216888602068806840F040005B
:1043E000216888600020BEE70220BCE7235D00084A
:1043F000695D0008C75C000810B5034693F87A00B1
:10440000202867D101B10AB9012010BD00BF93F87F
:104410007800012801D10220F7E7012083F8780015
:1044200000BF5966A3F86820A3F86A2000BF986807
:10443000B0F5805F0AD1186920B940F2FF10A3F8E7
:104440006C001CE0FF20A3F86C0018E0986848B9E5
:10445000186918B9FF20A3F86C0010E07F20A3F8BA
:104460006C000CE09868B0F1805F08D1186918B949
:104470007F20A3F86C0002E03F20A3F86C0000BF8F
:104480000020D867222083F87A0000BF002083F83C
:10449000780000BF1868806840F001001C68A060C8
:1044A0001868006800F0005060B11868006840F4B7
:1044B00080701C6820601868806840F080501C681C
:1044C000A06005E01868006840F490701C682060E7
:1044D00000209AE7022098E738B50446234920686F
:1044E000884242D122480078009001222049214888
:1044F000FFF782FF2048007808BB9DF800000A28DB
:1045000003D09DF800000D2807D11C480088002822
:1045100015DD01201849087011E0184800883F286F
:104520000ADA9DF80010154802880088401C134BD9
:1045300018801348815402E00020104908800121AE
:10454000684604F049FC0121684603F045FE10B1BD
:1045500004F0F0FE08E00BA1064802F069FA0D48ED
:104560000068401C0B49086000BF38BD00100140C6
:10457000580000245C020024600000245E00002437
:104580004C0400240D0A5B4649464F2046554C4CCE
:104590005D0D0A005000002470472DE9F8430446E1
:1045A0000D4616461F464FF0000994F87900202862
:1045B00054D105B116B90120BDE8F88300BF94F8C5
:1045C0007800012801D10220F6E7012084F8780064
:1045D00000BF00206034E06121206076FEF772F8B1
:1045E000814626806680603C21E0B4F86200401E6F
:1045F000A4F862004B46002280212046009702F07A
:104600005EF908B10320D7E7A068B0F5805F0AD152
:10461000206940B9A846B8F80000C0F30800216836
:104620000885AD1C03E015F8010B21680885B4F876
:1046300062000028D9D14B46002240212046009735
:1046400002F03DF908B10320B6E7202084F8790094
:1046500000BF002084F8780000BFADE70220ABE780
:1046600070B504460E46154694F8790020283CD1D2
:1046700006B10DB9012070BD00BF94F87800012883
:1046800001D10220F7E7012084F8780000BFE66539
:10469000A4F86050A4F862500020E067212084F85C
:1046A00079001348216FC8631248216F08641248CB
:1046B000216FC8640020216F0865236803F1280278
:1046C0002B46E16D206FFDF725FE40202168086232
:1046D00000BF002084F8780000BF2068806840F0A8
:1046E0008000216888600020C5E70220C3E7000041
:1046F000775D0008AD5D0008C75C000810B5044692
:104700000A492068884200D010BD72B6B4F8600033
:104710000749098808440649088062B6002005490F
:10472000087004F007FE00BFEEE700000010014033
:104730006400002459000024704700BFFEE7000019
:104740009FED280A284880ED000A9FED280A284896
:1047500080ED000A9FED270A274880ED000A9FEDB3
:10476000270A274880ED000A9FED260A264880ED9B
:10477000000A9FED260A264880ED000A9FED250AD3
:10478000254880ED000A9FED230A244880ED000AA9
:104790009FED200A224880ED000A9FED1E0A214865
:1047A00080ED000A9FED1B0A1F4880ED000A9FED77
:1047B000190A1E4880ED000A9FED1D0A1D4880ED74
:1047C000000A9FED1B0A1C4880ED000AB7EE000AA4
:1047D0001A4880ED000AB7EE000A194880ED000A79
:1047E00070470000295C4B41080000249357673D47
:1047F0000C0000242F513D3D10000024E38DCC3CE3
:1048000014000024CDCC4C3E180000247368913D68
:104810001C000024CDCCCC3F200000242400002428
:10482000280000242C000024300000243400002440
:104830006666A63F380000243C00002440000024A7
:104840004400002470B505460C4690212846FBF72D
:1048500089FD18212046FBF785FD034A03490448DA
:10486000FDF77EF970BD0000A8160024781600241C
:10487000200200241FB5FDF799FF01208DF80000EC
:1048800004208DF801000F4801900E208DF80800DB
:1048900000208DF80A008DF80E008DF80F00012021
:1048A0008DF80D0003208DF80B0001208DF80C0011
:1048B00000208DF809006846FDF74AFF0420FDF747
:1048C0008BFF1FBD00000030F8B504460D4600BF49
:1048D0009948006840F00100974908600846006860
:1048E00000F00100009000BF00BF00BF92481030F0
:1048F000006840F0100090491031086008460068D8
:1049000000F01000009000BF00BF00BF8A480830D0
:10491000006840F4003088490831086008460068A3
:1049200000F40030009000BF00BF00BF824808388C
:10493000006840F0010080490839086008460068B6
:1049400000F00100009000BF00BF00BF08460068F3
:1049500040F0020008600846006800F00200009085
:1049600000BF00BF07234FF480625110734803F06B
:104970003BFD22467249734804F012FD01220321D7
:10498000084600F0F4F806463146252002F0F8F813
:10499000252002F0E0F801226B496A48FFF72CFD60
:1049A0006748806820F001006549886065480068B4
:1049B000006820F080006349096808606348644922
:1049C00008602A2048604021614881600021C16060
:1049D0004FF480610161002141618161C161016227
:1049E000FDF790FB00BF5A485649086708465849EA
:1049F000886300BF01220221032000F0B8F80646B8
:104A000031463A2002F0BCF83A2002F0A4F84D48B2
:104A10000068006820F080004A49096808600723A0
:104A200008220421454803F0DFFC2A4649494A4848
:104A300004F0B6FC00220121032000F098F806469D
:104A40003146262002F09CF8262002F084F84348E4
:104A5000434908602B204860002141488160C160C3
:104A60004FF4806101610021416181614FF48071E7
:104A7000C16149020162FDF745FB00BF3848364974
:104A8000486708463649886300BF0022032108466C
:104A900000F06DF806463146102002F071F8102043
:104AA00002F059F84FF480622E492B48FFF750FC72
:104AB0002B4800682949783988420ED32848006875
:104AC00022497831884208D825480068006820F0DB
:104AD000180023490968086007E021480068006859
:104AE00020F006001E49096808601B48006800683D
:104AF00040F0100018490968086019480068174913
:104B0000783988420ED316480068104978318842B7
:104B100008D813480068006840F00400104909688C
:104B2000086007E00E480068006840F008000C4983
:104B300009680860F8BD0000E0440258000002580F
:104B4000001001405C020024580000244004024090
:104B50005C03002400440040DC0200248800024082
:104B6000D40300240000003000BFFEE77047F0B51A
:104B700003460C4603F00701C1F10700042801D9E0
:104B8000042001E0C1F107000646081D072801D2F4
:104B9000002000E0C81E05460120B040401E204015
:104BA000A8400127AF407F1E17403843F0BD0000EA
:104BB00010B54448444908604449434800F098FF10
:104BC000002242494048FEF7D9FF04223F493E48AF
:104BD000FEF7D4FF08223D493B48FEF7CFFF0C22E9
:104BE0003A493948FEF7CAFF00213748FFF78CF9E8
:104BF00004213548FFF788F908213348FFF784F985
:104C00000C213148FFF780F93148324908603249B8
:104C1000304800F06DFF04222F492E48FEF7AEFF0A
:104C200008222D492B48FEF7A9FF0C222A492948C2
:104C3000FEF7A4FF04212748FFF766F9082125485D
:104C4000FFF762F90C212348FFF75EF92348244956
:104C500008602449224800F04BFF002221492048E7
:104C6000FEF78CFF04221F491D48FEF787FF002135
:104C70001B48FFF749F904211948FFF745F91A487D
:104C80001A4908601A49194800F032FF00221849F1
:104C90001648FEF773FF042215491448FEF76EFF0D
:104CA000082213491148FEF769FF00210F48FFF75A
:104CB0002BF904210D48FFF727F908210B48FFF7CE
:104CC00023F910BD00040040CC140024CC150024AE
:104CD000000800400C150024E8150024000C0040DA
:104CE0004C15002404160024000401408C150024F7
:104CF000201600247047000030B52DED108B93B0C6
:104D000004460D4694ED000AB0EE40BA94ED030A55
:104D1000F0EE40BA94ED060AB0EE40CA94ED010AF6
:104D2000F0EE40CA94ED040AB0EE40DA94ED070AC2
:104D3000F0EE40DA94ED020AB0EE40EA94ED050A96
:104D4000F0EE40EA94ED080AB0EE40FA94ED120A53
:104D50008DED120A94ED150A8DED110A94ED130AEA
:104D60008DED100A94ED160A8DED0F0A94ED140ADC
:104D70008DED0E0A94ED170A8DED0D0A94ED1B0AC8
:104D80008DED0C0A94ED1C0A8DED0B0A94ED1D0AB5
:104D90008DED0A0A9DED120A3BEE400A8DED090ADF
:104DA0009DED110A3BEEC00AF0EE409A9DED100A0F
:104DB0003CEEC00A8DED080A9DED0F0A3DEE400A5B
:104DC000B0EE40AA9DED0E0A3EEE400A8DED070AB8
:104DD0009DED0D0A3EEEC00AF0EE40AA894890ED26
:104DE000001A9DED090AF0EE690A41EE000ACDEDC8
:104DF000060A90ED001A9DED080AF0EE4A0A41EE0F
:104E0000000ACDED050A90ED001A9DED070AF0EEBF
:104E10006A0A41EE000ACDED040A9DED0A1ADDEDA5
:104E20000B0A9DED0C0A04F015FB7748D0ED000A43
:104E30009DED060A04F008F8F0EE400AB0EE4C0AC8
:104E4000704890ED001A01EE290A704890ED001AA2
:104E500001EE200AB0EE408A6B48D0ED000A9DEDCD
:104E6000050A03F0F1FFF0EE400AB0EE6D0A654866
:104E700090ED001A01EE0A0A654890ED001A01EE65
:104E8000200AF0EE408A6048D0ED000A9DED040A49
:104E900003F0DAFFF0EE400AB0EE4F0A594890ED09
:104EA000001A01EE2A0A5B4890ED001A01EE200A72
:104EB000B0EE409A584890ED000A20EE080AD0ED76
:104EC000030A00EEA80AD0ED060A00EE890A53484C
:104ED000D0ED000A20EE200A8DED010A4E4890ED3B
:104EE000010A20EE080AD0ED040A00EEA80AD0ED6F
:104EF000070A00EE890A4948D0ED000A20EE200A90
:104F00008DED020A444890ED020A20EE080AD0ED29
:104F1000050A00EEA80AD0ED080A00EE890A3F480B
:104F2000D0ED000A20EE200A8DED030A3C4890EDFA
:104F3000001AF8EE001A21EE211AF0EE410A9DED5A
:104F4000011AB0EE410A03F025F9F0EE40FA3448B8
:104F500090ED000AB0EE001A20EE010AF0EE400AD1
:104F6000B0EE6F0A03F01CF985ED000A2C4890EDB5
:104F7000001AF8EE001A21EE211AF0EE410A9DED1A
:104F8000021AB0EE410A03F005F9F0EE40FA2448A7
:104F900090ED000AB0EE001A20EE010AF0EE400A91
:104FA000B0EE6F0A03F0FCF885ED010A1C4890EDA5
:104FB000001AF8EE001A21EE211AF0EE410A9DEDDA
:104FC000031AB0EE410A03F0E5F8F0EE40FA144897
:104FD00090ED000AB0EE001A20EE010AF0EE400A51
:104FE000B0EE6F0A03F0DCF885ED020A0D48007898
:104FF00018B99FED0D0A85ED020A13B0BDEC108BB8
:1050000030BD0000380000244000002420000024AF
:105010002400002428000024380200240800002472
:1050200018000024480000240000000070B52DED99
:10503000028B82B006464FF0FF30019000200090B6
:105040006B4601AA4FA13046FBF798F902287DD1A3
:105050009DED000AB8EEC00AB0EE408AB2EE0A0A30
:10506000B4EEC08AF1EE10FA03D2B2EE0A0AB0EE44
:10507000408A9FED470AB4EEC08AF1EE10FA03DDD4
:105080009FED430AB0EE408A0198632801D10120C8
:1050900000E00020044601250CB9019810B93D48F4
:1050A00080ED008A14B90198012802D1394880EDB9
:1050B000018A14B90198022802D1364880ED028A8B
:1050C00014B90198032802D1324880ED038A14B93B
:1050D0000198042802D12F4880ED048A14B9019860
:1050E000052802D12B4880ED058A14B901980628BD
:1050F00002D1284880ED068A14B90198072802D108
:10510000244880ED078A14B90198082802D1214863
:1051100080ED088A14B90198092802D11D4880ED54
:10512000098A14B901980A2802D11A4880ED0A8A1E
:1051300014B901980B2802D1164880ED0B8A44B9A6
:105140000198002804DB01980B2800E012E000DD44
:1051500000255DB10F4800F0EDF8B7EEC80A53EC3A
:10516000102B0DA0019901F095FC02E015A001F0B3
:1051700091FC02E01DA001F08DFC02B0BDEC028BA1
:1051800070BD00002346414E3A25642C2564000082
:105190000000B442A81600240D0A5B434D445D2074
:1051A0005365742046616E2049443A2564202D3EA3
:1051B00020447574793A252E31662525204F4B0DF4
:1051C0000A0000000D0A5B434D445D20496E766184
:1051D0006C69642046616E2049442028302D3131AD
:1051E0002C2039393D416C6C290D0A000D0A5B43B6
:1051F0004D445D2053796E746178204572726F72F0
:105200002E205573653A202346414E3A69642C643A
:105210007574790D0A00000010B50023234C23603B
:1052200000BF00BF00BFBFF34F8F00BF00BF00BF74
:10523000231F1868C0F34E3100BFC0F3C90200BF7E
:1052400043F6E07303EA41134FF0404404EA8274EA
:105250002343174C236000BF00BF131EA2F10102BD
:10526000EED10B1EA1F10101E7D100BF00BF00BFCD
:10527000BFF34F8F00BF00BF00BF0C4B703B1B68DC
:1052800043F48033094C703C236000BF00BF00BF73
:10529000BFF34F8F00BF00BF00BF00BF00BF00BF04
:1052A000BFF36F8F00BF00BF00BF10BD84ED00E0F3
:1052B00060EF00E000BF00BF00BFBFF34F8F00BF33
:1052C00000BF00BF00BF00BF00BFBFF36F8F00BFB4
:1052D00000BF00BF00201449086000BF00BF00BF2E
:1052E000BFF34F8F00BF00BF00BF00BF00BF00BFB4
:1052F000BFF36F8F00BF00BF00BF0C48006840F4D1
:1053000000300A49086000BF00BF00BFBFF34F8FE5
:1053100000BF00BF00BF00BF00BF00BFBFF36F8F63
:1053200000BF00BF00BF704750EF00E014ED00E089
:105330007047000010B50446D4ED000AB0EE600AD4
:1053400000212E4800F098FBD4ED040AB0EE600A6C
:1053500004212A4800F090FBD4ED080AB0EE600A60
:105360000821264800F088FBD4ED030AB0EE600A5D
:105370000421234800F080FBD4ED070AB0EE600A58
:1053800008211F4800F078FBD4ED0A0AB0EE600A4D
:105390000C211B4800F070FBD4ED010AB0EE600A4E
:1053A0000421184800F068FBD4ED060AB0EE600A4C
:1053B0000821144800F060FBD4ED090AB0EE600A41
:1053C0000C21104800F058FBD4ED020AB0EE600A40
:1053D00004210D4800F050FBD4ED050AB0EE600A40
:1053E0000021094800F048FBD4ED0B0AB0EE600A3A
:1053F0000021034800F040FB10BD00008C15002484
:10540000CC1400240C1500244C1500242DE9F04187
:105410009CB080460C4615461E460027374800685B
:1054200020F004003549086000BF00200090334898
:105430000C30006840F4404030490C3108600846A8
:10544000006800F44040009000BF00BF00BF2B4840
:105450000C30006800F40050B0F5005FF7D1012077
:1054600001900004029000200490089002200A900D
:1054700002210B91CDF834800C940E950F960021EB
:1054800012910821119101A8FDF708FF07460FB1FD
:1054900000BFFEE73F2014900320159000201690D7
:1054A000082017904020199000011A904020189071
:1054B00050201B90022114A8FDF75EFC07460FB197
:1054C00000BFFEE70E48006840F080000C4908600D
:1054D00000BF0B48F430006840F002000849F43186
:1054E00008600846006800F00200009000BF00BF9E
:1054F000FCF7B8FF1CB0BDE8F08100000C48025872
:105500000044025810B5FDF7E3F810BD20480068CC
:1055100040F470001E4908601E48006840F0010019
:105520001C49086000201B491031086019480068B8
:1055300019490840174908600020164918310860C9
:10554000091D0860091D0860124928310860091DFD
:105550000860091D0860091D0860091D0860091D13
:105560000860091D0860091D08600A48006820F4E9
:105570008020084908600020064960310860012049
:1055800006490860C006024980390860704700007B
:1055900088ED00E0004402587FEDF6EA08810051F2
:1055A00010B50248FEF70DFA10BD00008C1400245F
:1055B00010B50D480068006900F0010098B16FF067
:1055C000010009490968086108480068401C07494A
:1055D00008600846016806A001F05CFA01200B494A
:1055E00008700B49087010BDE8180024F80000246A
:1055F000536F667420574447207265736574212089
:10560000636E743D256C750D0A000000F4000024E3
:10561000F500002410B500220288294B98420ED0D4
:10562000B0F1804F0BD0274B984208D0264B9842C0
:1056300005D0264B984202D0254B984203D122F048
:1056400070024B681A431E4B984217D0B0F1804F3E
:1056500014D01C4B984211D01B4B98420ED01B4BC0
:1056600098420BD01A4B984208D01A4B984205D05A
:10567000194B984202D0194B984203D122F4407240
:10568000CB681A4322F080034C6943EA040202808B
:105690008B68C3620B880385094B98420BD00C4B77
:1056A000984208D00B4B984205D00B4B984202D041
:1056B0000A4B984201D10B8A03860123436110BD36
:1056C000000001400004004000080040000C0040C1
:1056D00000040140004001400044014000480140F6
:1056E00030B50023012404FA01F3046A9C430462E8
:1056F000046A02FA01F52C43046230BD30B500247F
:1057000000220023056A25F001050562026A43684C
:105710008469204D2C4024F003040D682C4322F0B2
:1057200002028D682A431C4DA84200D10FE01B4D98
:10573000A84200D10BE01A4DA84200D107E0194D54
:10574000A84200D103E0184DA84206D100BF22F0C4
:105750000802CD682A4322F004020F4DA8420BD064
:105760000E4DA84208D00E4DA84205D00D4DA842BE
:1057700002D00D4DA84207D123F4807323F40073A7
:105780004D692B438D692B43436084614D684563AC
:10579000026230BD8FFFFEFF0000014000040140A7
:1057A00000400140004401400048014030B5002461
:1057B00000220023056A25F010050562026A43688D
:1057C0008469234D2C4024F440740D6844EA052478
:1057D00022F020028D6842EA05121E4DA84200D137
:1057E0000FE01D4DA84200D10BE01C4DA84200D196
:1057F00000BF1B4DA84200D100BF1A4DA84207D1DF
:1058000006E022F08002CD6842EA051222F0400252
:10581000104DA8420BD0104DA84208D00F4DA84201
:1058200005D00F4DA84202D00E4DA84209D123F455
:10583000806323F400634D6943EA85038D6943EA7D
:105840008503436084614D688563026230BD00005A
:10585000FF8FFFFE000001400004014000400140B6
:10586000004401400048014030B5002400220023DC
:10587000056A25F480750562026A4368C46924F0EC
:10588000700424F003040D682C4322F400728D6828
:1058900042EA05221C4DA84200D10FE01B4DA84250
:1058A00000D10BE01A4DA84200D100BF194DA8420B
:1058B00000D100BF184DA84207D106E022F40062D3
:1058C000CD6842EA052222F480620F4DA8420BD037
:1058D0000E4DA84208D00E4DA84205D00D4DA8424D
:1058E00002D00D4DA84209D123F4805323F4005374
:1058F0004D6943EA05138D6943EA05134360C461AA
:105900004D68C563026230BD0000014000040140E3
:1059100000400140004401400048014030B50022F1
:1059200000230024056A25F480550562036A446853
:10593000C26922F4E04222F440720D6842EA052274
:1059400023F400538D6843EA05330D4DA8420BD074
:105950000C4DA84208D00C4DA84205D00B4DA842D2
:1059600002D00B4DA84204D124F480444D6944EA8E
:1059700085144460C2614D680564036230BD000057
:10598000000001400004014000400140004401408B
:105990000048014030B5002300220024056A25F4A8
:1059A00080350562026A4468436D23F070030D6818
:1059B0002B4322F400320D8942EA05420C4DA842E5
:1059C0000BD00C4DA84208D00B4DA84205D00B4D72
:1059D000A84202D00A4DA84204D124F480344D6973
:1059E00044EA0524446043654D688565026230BD24
:1059F000000001400004014000400140004401401B
:105A00000048014030B5002200230024056A25F437
:105A100080150562036A4468426D22F4E0420D6815
:105A200042EA052223F400130D8943EA05530D4D84
:105A3000A8420BD00C4DA84208D00C4DA84205D06E
:105A40000B4DA84202D00B4DA84204D124F40034DF
:105A50004D6944EA8524446042654D68C56503622A
:105A600030BD000000000140000401400040014042
:105A7000004401400048014070B52DED048B044600
:105A80000D46B0EE408A9FED190AC8EE000AE068A4
:105A9000401C00EE100AB8EE400A20EE800AB7EE75
:105AA000C00AB0EE409B01F03BF9BCEEC00B10EE1B
:105AB000106A15B92068466315E0042D02D12068EC
:105AC000866310E0082D02D12068C6630BE00C2D20
:105AD00002D12068066406E0102D02D12068866598
