:020000040800F2
:10000000F01C0024AD020008E9430008833F00080B
:10001000E5430008A90C00084D610008000000003D
:10002000000000000000000000000000A9490008D6
:10003000851300080000000071450008F54B00081A
:10004000C7020008C7020008C7020008C70200086C
:10005000C7020008C7020008C7020008C70200085C
:10006000C7020008C7020008C7020008C70200084C
:10007000C7020008C7020008C7020008C70200083C
:10008000450F0008C7020008C7020008C7020008A1
:10009000C7020008C7020008C7020008C70200081C
:1000A000C7020008C7020008C7020008C70200080C
:1000B000C7020008C7020008C7020008C7020008FC
:1000C000C7020008C7020008C7020008C7020008EC
:1000D000C70200083160000855600008C702000828
:1000E000C7020008C702000800000000C70200089D
:1000F000C7020008C7020008C7020008C7020008BC
:10010000C7020008C7020008C7020008C7020008AB
:10011000C7020008C7020008914C0008DD4C000827
:10012000C7020008C7020008E1100008C702000863
:10013000C7020008C7020008C7020008C70200087B
:1001400000000000000000000000000000000000AF
:10015000C7020008C7020008C7020008C70200085B
:10016000C7020008C7020008C7020008C70200084B
:10017000C7020008C7020008C7020008000000000C
:10018000C7020008C7020008C7020008C70200082B
:10019000C7020008C7020008C7020008C70200081B
:1001A000C7020008C7020008C7020008C70200080B
:1001B000C7020008C7020008C7020008C7020008FB
:1001C000C7020008C7020008C7020008C7020008EB
:1001D000C7020008C7020008C7020008C7020008DB
:1001E000C7020008C7020008C7020008C7020008CB
:1001F000C7020008C7020008C7020008C7020008BB
:10020000C7020008C7020008C7020008C7020008AA
:10021000C7020008C7020008C7020008C70200089A
:10022000C7020008C7020008C7020008000000005B
:10023000C7020008C702000800000000C70200084B
:10024000C7020008C7020008C7020008C70200086A
:10025000C7020008C7020008C7020008C70200085A
:10026000C7020008C7020008C7020008C70200084A
:10027000C7020008C7020008C7020008000000000B
:10028000C702000800000000C702000800000000CC
:1002900000000000C7020008DFF80CD000F0E4FA0C
:1002A00000480047FD770008F01C002406488047FE
:1002B00006480047FEE7FEE7FEE7FEE7FEE7FEE74B
:1002C000FEE7FEE7FEE7FEE7FD4B000899020008A7
:1002D0002DE9F05F0546002092469B46884606467B
:1002E000814640241BE0284641464746224600F00E
:1002F00077F853465A46C01A914110D31146184612
:10030000224600F05EF82D1A67EB01084F462246A0
:100310000120002100F055F817EB00094E41201E86
:10032000A4F10104DFDC484631462A464346BDE8D5
:10033000F09F40EA01039B0703D009E008C9121FA0
:1003400008C0042AFAD203E011F8013B00F8013B8F
:10035000521EF9D27047D2B201E000F8012B491EBB
:10036000FBD270470022F6E710B513460A46044652
:100370001946FFF7F0FF204610BD30B4044696231F
:100380000800214604D0B62330BC002200F041B85A
:1003900020460021F8E730B50B4601460020202218
:1003A000012409E021FA02F59D4205D303FA02F582
:1003B000491B04FA02F52844151EA2F10102F1DCE2
:1003C00030BD202A04DB203A00FA02F100207047F9
:1003D0009140C2F1200320FA03F319439040704783
:1003E000202A04DB203A21FA02F00021704721FA8A
:1003F00002F3D040C2F120029140084319467047F1
:100400000029A8BF7047401C490008BF20F0010028
:10041000704710B4B0FA80FC00FA0CF050EA010406
:1004200004BF10BC704749B1CCF1200421FA04F498
:1004300011FA0CF118BF012121430843A3EB0C0171
:10044000CB1D4FEA00614FEA102042BF002010BCD4
:10045000704700EBC35010440029A4BF10BC704784
:10046000401C490008BF20F0010010BC70472DE976
:10047000FE4F804681EA0300C00F0C46009021F039
:10048000004123F00045B8EB0200A94105D24046E7
:10049000214690461C460B46024623F0004010437E
:1004A00047D0270DC7F30A00C3F30A510290401A40
:1004B000019040286BDAC3F3130040F4801B0098CE
:1004C000924620B10023D2EB030A63EB0B0B019899
:1004D0005946C0F140025046FFF773FF06460D46ED
:1004E00050465946019A00F0D1F910EB08006141DD
:1004F000002487EA115284EAE7731A4340D0009A35
:1005000062B3019A012A4FEA075215DC001B61EB26
:1005100002014FF0004202EA0752CDE90042001CFE
:1005200041F5801132462B4600F0D1F903B0BDE809
:10053000F08F40462146F9E7001B61EB0201001CE9
:1005400041F5801300185B412018A2F5001747EB16
:10055000030140EAD570B6196D4111E06D084FEA0C
:10056000360645EAC0754FEA0752001B61EB0201EF
:10057000001C41F5801149084FEA30000019514133
:1005800032462B4603B0BDE8F04F00F091B9009819
:10059000012240000023D0EB020263EBE0730098DD
:1005A00021464FEAE074B8EB000061EB0401E9E793
:1005B00083F000435BE781F0004158E72DE9FE4FEF
:1005C00081EA030404F0004421F0004100944FF05C
:1005D000000B23F0004350EA01045ED052EA03040A
:1005E0005BD0C3F30A54C1F30A552C44A4F2F3348C
:1005F0000194A0FB0254C1F3130141F48011C3F331
:10060000130343F4801301FB024400FB034E840AEE
:10061000970A44EA815447EA8357A4FB0768029586
:100620008D0A05FB07854FEA932C04FB0C54270524
:10063000029D4FEA065847EA1637B5EB08056EEB00
:10064000070C870E920E47EA811742EA8312A7FB36
:100650000201B6EB0B0164EB00042B0D43EA0C33F3
:100660005E1844EB1C50DA465146E7FB0201C5F325
:1006700013044FEA0B3343EA14534FEA0432019C4C
:1006800043EA0603A4F10C040294009CCDE900B4F3
:1006900000F01DF903B0BDE8F08F00200146F9E736
:1006A0002DE9F04D81EA030404F0004B21F00045F0
:1006B00014464FF0000A23F0004150EA050220D012
:1006C00054EA01021DD0C5F30A570246C5F31303CD
:1006D000C1F31300C1F30A5640F4801543F48013AC
:1006E000A7EB0608101BD64608F2FD3873EB050091
:1006F00002D308F1010801E092185B41B8F1000F44
:1007000003DA00200146BDE8F08D00204FF480118F
:10071000064684460EE0171B73EB050705D3121B34
:1007200063EB050306434CEA010C49084FEA30002D
:1007300092185B4150EA0107EDD152EA030012D052
:1007400082EA040083EA0501084305D0101BAB418F
:1007500006D20122002306E000224FF0004302E00F
:100760006FF0010253101AEB06004CEB085110EB2E
:100770000A0041EB0B01BDE8F04D00F099B8000014
:100780002DE9F041054621F000400C46284309D0F0
:10079000C4F30A5040F23341884205DD2846214621
:1007A000BDE8F0812846FBE740F2FE31884210DCCC
:1007B0000CDB4FEA043040EA155050EA053105D011
:1007C000104804F0004101430020E9E70020014601
:1007D000E6E7A0F233404642C6F1400228462146F1
:1007E000FFF7EFFD07468846284621463246FFF7C9
:1007F000F7FD43463A4600F05BF83246BDE8F0416B
:10080000FFF7DFBD0000F03FC1F30A52C1F313014F
:1008100040F2FF3341F480119A4202DA002001468F
:10082000704740F233439A42A2F2334202DC524212
:10083000FFF7D6BDFFF7C5BD30B5041E71F100044A
:1008400004DB4FF00044404264EB0101141E73F1DD
:10085000000405DB1C464FF00043524263EB0403E7
:10086000994208BF904230BD064C074D06E0E06853
:1008700040F0010394E8070098471034AC42F6D3E7
:10088000FFF70EFD308C0008608C0008202A06DB84
:10089000CB17203A41FA02F043EAE07306E041FA4E
:1008A00002F3D040C2F1200291400843194670473C
:1008B00010B5141E73F1000408DA401C41F1000168
:1008C00092185B411A4301D120F0010010BD2DE9BF
:1008D000F04D92469B4611B1B1FA81F202E0B0FAB6
:1008E00080F220329046FFF76CFD04460F4640EA46
:1008F0000A0041EA0B0153465A46084313D01146F9
:1009000053EA010019D0C8F140025046FFF768FDD4
:1009100005460E46504659464246FFF752FD0843EB
:1009200005D0012004E020463946BDE8F08D0020C6
:10093000054346EAE0762C4337430A986305E40A08
:10094000A0EB08000022FD0A44EA47540A3002D511
:1009500000200146E9E7010510196941DDE9084574
:1009600000196941BDE8F04DA2E730B58C1810F8C8
:10097000012B12F00F0301D110F8013B120906D12F
:1009800010F8012B03E010F8015B01F8015B5B1E1E
:10099000F9D101E001F8013B521EFBD1A142E6D39F
:1009A000002030BD30B52DED108B8DB004460D46C6
:1009B00094ED090AB0EE40BA94ED0C0AF0EE40BA9C
:1009C00094ED0F0AB0EE40CA94ED0A0AF0EE40CA68
:1009D00094ED0D0AB0EE40DA94ED100AF0EE40DA34
:1009E00094ED0B0AB0EE40EA94ED0E0AF0EE40EA08
:1009F00094ED110AB0EE40FA94ED1B0A8DED0C0A4D
:100A000094ED1E0AB0EE408A94ED1C0A8DED0B0A9F
:100A100094ED1F0AF0EE408A94ED1D0A8DED0A0A4E
:100A200094ED200AB0EE409A9DED0C0A3BEE400A90
:100A30008DED090A3BEEC80AF0EE409A9DED0B0AD7
:100A40003CEEC00A8DED080A3DEE680AB0EE40AA01
:100A50009DED0A0A3EEE400A8DED070A3EEEC90AF8
:100A6000F0EE40AA864890ED001A9DED090AF0EEDE
:100A7000690A41EE000ACDED060A90ED001A9DEDDF
:100A8000080AF0EE4A0A41EE000ACDED050A90EDA3
:100A9000001A9DED070AF0EE6A0A41EE000ACDED5C
:100AA000040A7848D0ED000A9DED060A07F056FAD0
:100AB0007548D0ED000A20EE200A7148D0ED000AFA
:100AC00000EEA90A30EE0C0A7048D0ED000A20EEC4
:100AD000200A68EE890A6E4890ED001A6D48D0ED44
:100AE000001A31EE611A00EEC10A8DED030A654865
:100AF000D0ED000A9DED050A07F030FA6648D0ED0A
:100B0000000A20EE200A5E48D0ED000A00EE8A0AB4
:100B100030EE2D0A5E48D0ED000A20EE200A69EE84
:100B2000080A5C4890ED001A5848D0ED001A31EEE2
:100B3000611A00EEC10A8DED020A5248D0ED000A9A
:100B40009DED040A07F00AFA5448D0ED000A20EEA1
:100B5000200A4B48D0ED000A00EEAA0A30EE0F0A38
:100B60004C48D0ED000A20EE200A68EE280A4748DB
:100B700090ED001A4648D0ED001A31EE611A00EEF1
:100B8000C10A8DED010A464890ED000AB9EE001A3F
:100B900020EE010A434890ED001A20EE010AF0EE23
:100BA000400A9DED030A06F0C4FCF0EE40FA3C4812
:100BB00090ED000AB1EE001A20EE010A394890EDDE
:100BC000001A20EE010AF0EE400AB0EE6F0A06F0BD
:100BD000B6FC85ED030A324890ED000AB9EE001A22
:100BE00020EE010A2F4890ED001A20EE010AF0EEE7
:100BF000400A9DED020A06F09CFCF0EE40FA2848FF
:100C000090ED000AB1EE001A20EE010A254890EDA1
:100C1000001A20EE010AF0EE400AB0EE6F0A06F06C
:100C20008EFC85ED040A1E4890ED000AB9EE001A0C
:100C300020EE010A1B4890ED001A20EE010AF0EEAA
:100C4000400A9DED010A06F074FCF0EE40FA1448EB
:100C500090ED000AB1EE001A20EE010A114890ED65
:100C6000001A20EE010AF0EE400AB0EE6F0A06F01C
:100C700066FC85ED050A0DB0BDEC108B30BD0000A3
:100C8000400000244800002430000024100000240C
:100C9000140000241800002434000024380000242C
:100CA0001C0000242000002400BFFEE710B503F064
:100CB0003DFE03F0EDFD0348006840F004000149EB
:100CC000086010BD9CEF00E000B5D0ED000AB0EE6A
:100CD000600A00F0EDF881ED000AD0ED010AB0EEF7
:100CE000600A00F0E5F881ED010AD0ED020AB0EEED
:100CF000600A00F0DDF881ED020AD0ED030AB0EEE3
:100D0000600A00F0D5F881ED030AD0ED040AB0EED8
:100D1000600A00F0CDF881ED040AD0ED050AB0EECE
:100D2000600A00F0C5F881ED050AD0ED060AB0EEC4
:100D3000600A00F0BDF881ED060AD0ED070AB0EEBA
:100D4000600A00F0B5F881ED070AD0ED080AB0EEB0
:100D5000600A00F0ADF881ED080AD0ED090AB0EEA6
:100D6000600A00F0A5F881ED090AD0ED0A0AB0EE9C
:100D7000600A00F09DF881ED0A0AD0ED0B0AB0EE92
:100D8000600A00F095F881ED0B0A00BD2DE9F041F5
:100D9000B2B005460E46302102A8FFF7E3FA4FF045
:100DA00000080020019000BF19E005EB800191EDE3
:100DB000000AB7EEC00A26A901EBC00181ED000BC5
:100DC00005F10C0101EB800191ED000AB7EEC00ABC
:100DD00026AAC11C02EBC10181ED000B401C0328B7
:100DE000E3DB002014E026A901EBC00191ED000B2C
:100DF00003289FED251B9FED262B22FE011B80EE75
:100E0000012B1AA901EBC00181ED002B00F10100BB
:100E10000628E8DB0EA91AA806F04AFE0EA91AA8B1
:100E200006F0A8FC80461C4847681C490EA806F03E
:100E300099FE19484068C41B19480068844201D9CA
:100E4000174804601748006820441649086016488F
:100E50000068401C1449086001AB42460F491AA8BB
:100E600006F0CCFA019860B110480068401C0F49A8
:100E7000086002A9094800F087FA02A9304606F086
:100E800013F932B0BDE8F081C4F5285C8FC2174079
:100E9000518D976E1283EC3F001000E090160024F5
:100EA000E4000024E8000024EC000024D800002422
:100EB000F0EE400A9FED1A0AF4EEC00AF1EE10FAC5
:100EC00008D89FED180A30EEC00ADFED171A80EE41
:100ED000211A17E09FED150AF4EEC00AF1EE10FAA0
:100EE00008D89FED130A30EEC00ADFED121A80EE2B
:100EF000211A07E09FED100A30EEC00ADFED0F1A4D
:100F000080EE211ADFED0E1AB2EE042A00BF82FE37
:100F1000010A00BF00BF81FEC02AB0EE420A70473E
:100F20000090984566AE52C5B597CD4300142A4649
:100F300066B689C4CE98954366AE074598DE594398
:100F40000000B44210B55F4800685F49884204D988
:100F50005E48006800F4007027E05A4800685A496B
:100F60006039884205D95848B438006800F40070E8
:100F70001BE0544800685649884205D95248B838A1
:100F8000006800F4007010E04E4800685049603975
:100F9000884205D94E48B838406800F4007004E033
:100FA0004B48B838006800F40070002873D04548FA
:100FB00000684549884204D948154449091D08601C
:100FC00024E04048006840496039884204D9481507
:100FD0003D49AC39086019E03A4800683C4988420C
:100FE00004D948153849B03908600FE03548006821
:100FF00037496039884204D948153549B839C8603D
:1010000004E04FF400703249B83988602D48006818
:101010002F49A83988420DD32A4800682A498842B6
:1010200008D828480068006820F0010025490968B0
:10103000086007E023480068006820F001002149AB
:10104000096808601F4800682149A839884209D307
:101050001C4800681C49884204D8081519490968C9
:10106000486004E04FF480601649096848601548FC
:1010700000681749A83988420ED3124800681249FF
:10108000884209D80F480068006840F001000D4907
:101090000968086008E011E00A480068006840F04C
:1010A00001000849096808604FF480600949088018
:1010B000002009490880094806F04CFF014800F06B
:1010C00019FA10BDD0030024B8040240005402589D
:1010D000B80002405A0000245C0000249C00002458
:1010E00010B5024800F006FA10BD000058030024B5
:1010F0000146087810381823B0FBF3F20848805CEA
:10110000C865032A05D908686FF30900001D8865C2
:1011100003E008686FF309008865886D7047000078
:101120005883000810B500210268174B9A4213D863
:10113000154B8C3B9A420FD30378083B1424B3FB26
:10114000F4F1124B03EB81030366104B80334366CB
:1011500001238B40836616E00378103B1824B3FB11
:10116000F4F10B4B9A4204D8094BA83B9A4200D3A6
:101170000831084B03EB81030366064B803343665B
:1011800001238B40836610BD9454025800580258C6
:10119000B80402400008024010B502680179E9B1C4
:1011A00008291BD80E4B9A420CD80D4B8C3B9A4207
:1011B00008D34B1E0B4C04EB8303C366094B40332F
:1011C000036707E04B1E084C04EB8303C366064B22
:1011D000403303674B1E01249C40446710BD000050
:1011E0009454025800590258000902400146002058
:1011F0008A69D2B98A6A32B1012A0DD0022A03D093
:10120000032A10D10EE000BFCA6A02F08072B2F168
:10121000807F00D1012007E0CA6AB2F1C07F00D10F
:10122000012001E000E000BF36E08A69B2F5005F0E
:101230001BD18A6A32B1012A07D0022A03D0032ABD
:1012400011D10AE000BF01200EE0CA6A02F08072EC
:10125000B2F1807F00D1012006E0CA6AB2F1C07FFE
:1012600000D1012000E000BF16E08A6A32B1012AF5
:1012700005D0022A04D0032A0CD103E000BF00BF2E
:10128000012008E0CA6A02F08072B2F1807F00D1CA
:10129000012000E000BF00BF70470000F0B5846D82
:1012A000D0E919657560C56E15B1D0E91C6575602A
:1012B000244E0568B54205D3234E0568B54201D8D2
:1012C000012500E00025CDB190F85C603F25B540D8
:1012D000A56005682D6825F48025066835600568D9
:1012E0006B608568402D04D10568AA600568E960D7
:1012F00026E00568A9600568EA6021E0134E0568EC
:10130000B5421DD3114E8C360568B54218D80F4D25
:101310002D1F2D6890F85C700126BE4035430B4EA2
:10132000361F356005686B608568402D04D10568FF
:10133000AA600568E96003E00568A9600568EA60DD
:10134000F0BD000010000240B804024008540258EA
:101350000848006840F08070064908600648074960
:1013600008600020064948600846006840F0010017
:1013700008607047FCED00E055CEACC5B01F00E042
:10138000001000E07047000070B52DED028B05469F
:101390000E46002414E005EBC40090ED000B9FED19
:1013A0000B1B80EE012BB0EE428BB0EE480B05F02C
:1013B00011F9B7EEC00B06EB840080ED000A641C47
:1013C0000C2CE8DBBDEC028B70BD0000B9CDA696FD
:1013D000CD27FE3D70B506460D46144629463046DB
:1013E000FFF7D4FC21462846FFF76EFC204603F0A9
:1013F000DDFA70BD10B504460CB9012010BD94F89B
:101400003500022803D0802060650120F6E73449CA
:101410002068884205D333492068884201D80120DA
:1014200000E00020C0B1042084F835002C49206879
:1014300088420AD32B492068884206D82068006871
:1014400020F001002168086048E02068006820F072
:1014500001002168086041E02068006820F00E006B
:10146000216808601E49206888420AD31D49206807
:10147000884206D82068006820F0010021680860D2
:1014800005E02068006820F0010021680860206EF7
:10149000006820F48070216E086094F85C100120D0
:1014A000884011490860D4E919104860E06E40B1E5
:1014B000E06E006820F48070E16E0860D4E91C10D2
:1014C000486000BF002084F8340000BF012084F889
:1014D0003500206D10B12046216D884700208DE732
:1014E00010000240B8040240045402580146486DFE
:1014F000704700002DE9F84304460027002500202E
:101500000090FE4800684FF41651B0FBF1F8A66D4C
:101510003768FB492068884205D3FA492068884229
:1015200001D8012000E0002000287BD094F85C1056
:1015300008208840384000B3F1492068884208D329
:10154000F0492068884204D82068006800F0040050
:1015500003E02068006800F0080070B120680068AF
:1015600020F004002168086094F85C10082088408E
:10157000B060606D40F00100606594F85C10E24876
:1015800088403840C8B1DE492068884208D3DD4928
:101590002068884204D82068406900F0800002E09A
:1015A00020680068002040B194F85C10D64888405C
:1015B000B060606D40F00200606594F85C10D24845
:1015C000C01C88403840D0B1CD492068884208D33B
:1015D000CC492068884204D82068006800F00200E6
:1015E00002E020680068002048B194F85C10C6480A
:1015F000C01C8840B060606D40F00400606594F8E5
:101600005C1010208840384030B3BD4920688842C3
:1016100009D3BC492068884205D82068006800F0DA
:10162000080004E0EFE02068006800F0040098B1D2
:1016300094F85C1010208840B0602068006800F4C6
:10164000802080B12068006800F4002028B9206C58
:1016500010B12046216C884715E0A06C98B1204657
:10166000A16C88470FE02068006800F4807028B9FA
:101670002068006820F0080021680860206C10B124
:101680002046216C884794F85C1020208840384020
:10169000002873D09A492068884208D39949206865
:1016A000884204D82068006800F0100003E0206839
:1016B000006800F00200002860D094F85C10202040
:1016C0008840B06094F83500042829D1206800686B
:1016D00020F01600216808602068406920F0800032
:1016E00021684861206C08B9A06C28B120680068A6
:1016F00020F008002168086094F85C103F208840C2
:10170000B06000BF002084F8340000BF012084F8DE
:101710003500206D10B12046216D8847BDE8F88363
:101720002068006800F4802080B12068006800F420
:10173000002028B9606C10B12046616C88471DE01C
:10174000E06BD8B12046E16B884717E0206800685D
:1017500000F4807068B92068006820F010002168EB
:10176000086000BF002084F8340000BF012084F826
:101770003500E06B10B12046E16B8847606D0028B2
:1017800040D0606D00F0010090B3042084F8350073
:101790005B49206888420AD35A492068884206D8A3
:1017A0002068006820F001002168086005E02068DA
:1017B000006820F001002168086000BF0098401C0C
:1017C0000090404500D905E02068006800F0010065
:1017D0000028F3D100BF00BF002084F8340000BF10
:1017E0002068006800F0010018B1032084F835007B
:1017F00002E0012084F83500E06C002802D0204689
:10180000E16C884797E041492068884206D33F4908
:101810008C312068884201D8012000E00020002897
:1018200053D0256839480838006894F85C200421B2
:1018300091400840E0B1286800F00400C0B1286879
:1018400000F0200018B9286820F0040028602F4814
:10185000001F006894F85C200421914008432B4944
:10186000091F0860206C80B32046216C884762E025
:1018700026480838006894F85C200221914008400E
:1018800020B3286800F0020000B3286800F02000B0
:1018900058B9286820F00A00286000BF002084F8AA
:1018A000340000BF012084F835001848001F00688C
:1018B00094F85C200221914008431449091F0860F4
:1018C000E06B10B12046E16B884734E00F480838E0
:1018D000006894F85C2008219140084058B32868BB
:1018E00000F0080038B3286820F00E002860074890
:1018F000001F006894F85C20012109E00400002426
:1019000010000240B8040240010080000854025850
:1019100091400843094908600120606500BF00202C
:1019200084F8340000BF012084F83500E06C10B169
:101930002046E16C884700BFF0E6000004540258DE
:101940002DE9F0410446002500F0DAFA06460027AA
:1019500014B90120BDE8F08179492068884205D397
:1019600078492068884201D8012000E00020002842
:1019700071D0606A00B100BF00BF002084F834005D
:1019800000BF022084F835006D49206888420AD3E0
:101990006C492068884206D82068006820F0010061
:1019A0002168086005E02068006820F001002168D7
:1019B00008600BE000F0A4FA801B052806D920205F
:1019C0006065032084F835000120C3E720680068C3
:1019D00000F001000028EDD1206805685A48054054
:1019E000D4E9020108432169084361690843A169F8
:1019F0000843E1690843216A08430543606A0428F3
:101A000003D1D4E90B010843054320680560206831
:101A1000456925F00705606A0543606A04280DD111
:101A2000A06A0543E06A48B12046FFF7DFFB28B112
:101A300040206065012084F835008BE7206845610F
:101A40002046FFF755FB074694F85C103F2088407E
:101A5000B8604DE0FFE73D492068884206D33B4926
:101A60008C312068884201D8012000E00020B8B302
:101A700000BF002084F8340000BF022084F8350045
:101A80002068056847F6F0708543A068402801D1BA
:101A9000102105E0A068802801D1C10100E00021EB
:101AA000E06841EAD001206941EAD001606941EA79
:101AB000D001A06941EAD0002022E16902EAD10107
:101AC0000843216A40EA11100543206805601F4958
:101AD0002068401A1421B0FBF1F08000E06507E0B7
:101AE000FFE740206065032084F83500012031E7DE
:101AF0002046FFF717FBA068802801D10020606016
:101B00002079216E0860D4E919104860606860B1DE
:101B10006068082809D82046FFF73EFB0020E16EE8
:101B20000860D4E91C10486003E00020E0662067EC
:101B3000606700206065012084F83500002009E717
:101B400010000240B80402403F8010FE08540258C2
:101B50002DE9F04104460D4616461F464FF0000899
:101B600014B90120BDE8F08100BF94F834000128C9
:101B700001D10220F6E7012084F8340000BF94F878
:101B8000350001287CD1022084F8350000206065F2
:101B90004149206888420AD340492068884206D8D3
:101BA0002068006820F001002168086005E02068D6
:101BB000006820F00100216808603B463246294653
:101BC0002046FFF76BFB34492068884205D3334930
:101BD0002068884201D8012000E00020B0B12068D0
:101BE000006820F01E0040F01600216808602068A0
:101BF000406940F0800021684861206CB0B12068E5
:101C0000006840F00800216808600FE02068006864
:101C100020F00E0040F00A0021680860206C28B116
:101C20002068006840F0040021680860206E0068A9
:101C300000F4803028B1206E006840F48070216E7E
:101C40000860E06E28B1E06E006840F48070E16EDC
:101C500008601149206888420BD3104920688842E7
:101C600007D82068006840F001002168086011E092
:101C700006E02068006840F001002168086009E083
:101C800000BF002084F8340000BF4FF4006060659E
:101C90004FF00108404665E710000240B8040240DA
:101CA0000348006840F001000149086070470000E7
:101CB00020040058F8B502460B46002100260024F7
:101CC0000020824D00BFFCE0012707FA01F61F68E3
:101CD00007EA0604B4427CD15F68022F02D05F6835
:101CE000122F1AD14FEAD10C02F1200757F82C001D
:101CF0004F074FEAD76C0F2707FA0CF7B8434FEAA4
:101D0000417C4FEADC6C1F6907FA0CF738434FEA55
:101D1000D10C02F1200747F82C0010684FEA410C63
:101D2000032707FA0CF7B8431F7907F003074FEAB8
:101D3000410C07FA0CF7384310605F68012F08D098
:101D40005F68022F05D05F68112F02D05F68122FE5
:101D500017D190684FEA410C032707FA0CF7B843F4
:101D60004FEA410CDF6807FA0CF73843906050687F
:101D700001278F40B8431F79C7F300178F403843BE
:101D80005060D0684FEA410C032707FA0CF7B843BC
:101D90004FEA410C9F6807FA0CF73843D0605F6840
:101DA00007F08057B7F1805F95D100BF484F3F687B
:101DB00047F00207DFF818C1CCF8007067463F68AB
:101DC00007F00207009700BF00BF424F4FEA910C97
:101DD00000E075E057F82C008F074FEA177C0F27BB
:101DE00007FA0CF7B8433C4FBA4201D100272DE067
:101DF0003A4FBA4201D1012728E0394FBA4201D106
:101E0000022723E0374FBA4201D103271EE0364FA5
:101E1000BA4201D1042719E0344FBA4201D1052753
:101E200014E0334FBA4201D106270FE0314FBA42D6
:101E300001D107270AE0304FBA4201D1082705E057
:101E40002E4FBA4201D1092700E00A274FEA817CD0
:101E50004FEA1C7C07FA0CF738431E4F4FEA910CEF
:101E600047F82C002868A0435F6807F48037B7F56F
:101E7000803F00D1204328606868A0435F6807F472
:101E80000037B7F5003F00D1204368604FF0B047FE
:101E90003868A0435F6807F48017B7F5801F00D14A
:101EA00020434FF0B04738607868A0435F6807F47C
:101EB0000017B7F5001F00D120434FF0B0477860FE
:101EC000491C1029FFF400AFF8BD00008000005845
:101ED000F444025808040058000002580004025854
:101EE00000080258000C0258001002580014025852
:101EF00000180258001C0258002002580024025802
:101F00000148006870470000B000002470B5044626
:101F10000CB9012070BD4CF6CC402168086045F238
:101F2000555021680860D4E9001048602168A06815
:101F30008860FFF7E5FF054606E0FFF7E1FF401B7D
:101F4000302801D90320E5E72068C0680028F4D1D3
:101F500020680169E068814203D02168E068086177
:101F600003E04AF6AA20216808600020D2E7014673
:101F70004AF6AA200A6810600020704703480068EB
:101F8000034909780844014908607047B0000024FB
:101F9000B800002410B5032000F0E2F80F2000F094
:101FA00007F808B1012010BD00F08CF80020FAE716
:101FB00070B504460E4800784FF47A71B1FBF0F02A
:101FC0000C490968B1FBF0F5284601F043F908B166
:101FD000012070BD102C07D200222146501E00F0B7
:101FE00082F80548046001E00120F2E70020F0E7F4
:101FF000B800002404000024B40000244178154AED
:1020000011600178F9B1121D41681160017B090767
:10201000C27A41EA0261827A41EAC241427B41EAE4
:102020008241827B41EA4241C27B41EA0241427ADB
:1020300041EA0221027A41EA420102781143054A4B
:102040000832116005E00021024A121D1160121DC4
:102050001160704798ED00E000BF00BF00BFBFF304
:102060005F8F00BF00BF00BF0548006820F48030CC
:102070000349086000200249703108607047000081
:1020800024ED00E040F001010D4A11600C49703967
:10209000096841F480310A4A703A116000BF00BFFC
:1020A00000BFBFF34F8F00BF00BF00BF00BF00BF26
:1020B00000BFBFF36F8F00BF00BF00BF70470000BD
:1020C00094ED00E0704701460846002809DB00F067
:1020D0001F0301229A4043099B0003F1E023C3F848
:1020E000002100BF70472DE9F05F80460D4616467F
:1020F00004F07CF8074639462A46334601F00700CB
:10210000C0F1070ABAF1040F02D94FF0040A01E046
:10211000C0F1070AD14600F1040ABAF1070F02D252
:102120004FF0000A01E0A0F1030AD4464FF0010A83
:102130000AFA09FAAAF1010A0AEA020A0AFA0CFAE8
:102140004FF0010B0BFA0CFBABF1010B0BEA030B8D
:102150004AEA0B042146404604F064F8BDE8F09FCB
:1021600000BF00F00702064B19684FF6FF03194045
:10217000044B0B4343EA0221014B196000BF704737
:102180000CED00E00000FA0510B500F0CBFB0949AA
:10219000096801F470614FF4807292FAA2F2B2FA07
:1021A00082F2D140044A515CC840044908600846A4
:1021B000006810BD18440258E4820008040000249E
:1021C00010B500F067FB0749096801F070011022A3
:1021D00092FAA2F2B2FA82F2D140034A515CC840AC
:1021E00010BD000020440258E482000870B501468A
:1021F00000220120002300249FED811AB0EE410A45
:102200009FED7F1AF0EE410A7E4D2D6805F0030226
:102210007C4D2D68C5F305307A4D2D1D2D6805F0D8
:102220001003784D14352D68C5F3CC0515FB03F567
:1022300001EE105AB8EE411AB0EE410A22B1012A5D
:102240004DD0022A7DD169E06E4D283D2D68C5F341
:1022500040152DB36B4D283D2D68C5F3C1066A4D61
:1022600025FA06F4B4FBF0F501EE105AF8EE411A27
:102270009FED661A80EE012A624D10352D68C5F378
:10228000080501EE105AB8EE411A32EE011AB7EE07
:10229000002A31EE021A21EE811AF0EE410A1DE009
:1022A000594DB5FBF0F501EE105AF8EE411A9FEDCD
:1022B000571A80EE012A534D10352D68C5F30805D5
:1022C00001EE105AB8EE411A32EE011AB7EE002AAA
:1022D00031EE021A21EE811AF0EE410A5EE04C4D19
:1022E000B5FBF0F501EE105AB8EE412A9FED471A02
:1022F000C0EE011A434D10352D68C5F3080501EEF7
:10230000105AB8EE411A31EE811AF7EE001A31EE8A
:10231000211A22EE011AF0EE410A3FE03D4DB5FBD5
:10232000F0F501EE105AF8EE411A9FED381A80EEE2
:10233000012A344D10352D68C5F3080501EE105AF9
:1023400000E00CE0B8EE411A32EE011AB7EE002AB6
:1023500031EE021A21EE811AF0EE410A1EE02C4DF8
:10236000B5FBF0F501EE105AB8EE412A9FED271AA1
:10237000C0EE011A234D10352D68C5F3080501EE96
:10238000105AB8EE411A31EE811AF7EE001A31EE0A
:10239000211A22EE011AF0EE410A00BF00BF194DCA
:1023A00010352D68C5F346256D1C01EE105AB8EEA8
:1023B000411AC0EE811ABCEEE11A81ED001A114DEE
:1023C00010352D68C5F306456D1C01EE105AB8EEA8
:1023D000411AC0EE811ABCEEE11A81ED011A094DD5
:1023E00010352D68C5F306656D1C01EE105AB8EE68
:1023F000411AC0EE811ABCEEE11A81ED021A70BDDD
:1024000000000000284402580090D003000000465D
:1024100000093D0040787D0170B501460022012091
:10242000002300249FED811AB0EE410A9FED7F1A30
:10243000F0EE410A7E4D2D6805F003027C4D2D68BB
:10244000C5F305507A4D2D1D2D6805F48073784D28
:102450001C352D68C5F3CC0515FB03F501EE105AAC
:10246000B8EE411AB0EE410A22B1012A4DD0022A3B
:102470007DD169E06E4D283D2D68C5F340152DB323
:102480006B4D283D2D68C5F3C1066A4D25FA06F44B
:10249000B4FBF0F501EE105AF8EE411A9FED661A02
:1024A00080EE012A624D18352D68C5F3080501EE4E
:1024B000105AB8EE411A32EE011AB7EE002A31EE88
:1024C000021A21EE811AF0EE410A1DE0594DB5FBCA
:1024D000F0F501EE105AF8EE411A9FED571A80EE12
:1024E000012A534D18352D68C5F3080501EE105A21
:1024F000B8EE411A32EE011AB7EE002A31EE021A96
:1025000021EE811AF0EE410A5EE04C4DB5FBF0F58C
:1025100001EE105AB8EE412A9FED471AC0EE011A9B
:10252000434D18352D68C5F3080501EE105AB8EE75
:10253000411A31EE811AF7EE001A31EE211A22EE1D
:10254000011AF0EE410A3FE03D4DB5FBF0F501EE1A
:10255000105AF8EE411A9FED381A80EE012A344DD8
:1025600018352D68C5F3080501EE105A00E00CE09F
:10257000B8EE411A32EE011AB7EE002A31EE021A15
:1025800021EE811AF0EE410A1EE02C4DB5FBF0F56C
:1025900001EE105AB8EE412A9FED271AC0EE011A3B
:1025A000234D18352D68C5F3080501EE105AB8EE15
:1025B000411A31EE811AF7EE001A31EE211A22EE9D
:1025C000011AF0EE410A00BF00BF194D18352D6801
:1025D000C5F346256D1C01EE105AB8EE411AC0EE47
:1025E000811ABCEEE11A81ED001A114D18352D68E3
:1025F000C5F306456D1C01EE105AB8EE411AC0EE47
:10260000811ABCEEE11A81ED011A094D18352D68C9
:10261000C5F306656D1C01EE105AB8EE411AC0EE06
:10262000811ABCEEE11A81ED021A70BD00000000B3
:10263000284402580090D0030000004600093D00E5
:1026400040787D0170B504460D4600268D4800682F
:1026500000F00700A8420ED28A48006820F0070068
:102660002843884908600846006800F00700A8422F
:1026700001D0012070BD207800F00200022807D1AF
:102680008148006820F00F00E16808437E49086037
:10269000207800F00100002851D07B48006820F429
:1026A0007060A1680843784908606068022807D113
:1026B000754818380068C0F34040F8B90120D9E7E0
:1026C0006068032807D1704818380068C0F340607C
:1026D000A0B90120CEE76068012807D16A48183800
:1026E0000068C0F3002048B90120C3E766481838E5
:1026F0000068C0F3800008B90120BBE762480838D1
:10270000006820F00700616808435F4908390860E5
:10271000FFF7F6FB06466068022811D108E0FFF7D4
:10272000EFFB801B41F28831884201D90320A1E7E9
:1027300055480838006800F038001028EFD13AE01A
:102740006068032811D108E0FFF7DAFB801B41F233
:102750008831884201D903208CE74B48083800684B
:1027600000F038001828EFD125E06068012811D169
:1027700008E0FFF7C5FB801B41F28831884201D990
:10278000032077E740480838006800F03800082840
:10279000EFD110E008E0FFF7B3FB801B41F2883176
:1027A000884201D9032065E737480838006800F0FF
:1027B00038000028EFD13348006800F00700A84235
:1027C0000ED93048006820F0070028432D490860E2
:1027D0000846006800F00700A84201D0012049E740
:1027E000207800F00400042807D12748006820F072
:1027F00070002169084324490860207800F008002F
:10280000082809D12048001D006820F07000616987
:1028100008431D49091D0860207800F010001028A9
:1028200009D11948001D006820F4E060A16908433F
:102830001549091D0860207800F02000202809D1E2
:1028400011480830006820F07000E16908430E4923
:102850000831086000F066F80B49096801F47061FE
:102860004FF4807292FAA2F2B2FA82F2D140074A91
:10287000515CC840064908600F20FFF799FB002013
:10288000F8E600000020005218440258E4820008D4
:102890000400002410B5FFF777FC0949096801F02E
:1028A0000F01012292FAA2F2B2FA82F2D140054A55
:1028B000515CC840044908600846006810BD00002B
:1028C00018440258E48200080800002410B5FFF7FD
:1028D000E1FF0749096801F07001102292FAA2F2A3
:1028E000B2FA82F2D140034A515CC84010BD0000E8
:1028F0001C440258E482000810B5FFF7CBFF0749DB
:10290000096801F4E0614FF4807292FAA2F2B2FA1F
:1029100082F2D140024A515CC84010BD1C440258AA
:10292000E482000870B5012500EE905A00220121D2
:1029300000230024DFED861AB0EE610ADFED841A71
:10294000B0EE611A0020834D2D6805F0380535B1D1
:10295000082D15D0102D15D0182D7CD114E07D4DEB
:10296000103D2D68C5F3401545B17A4D103D2D68D9
:10297000C5F3C106784D25FA06F000E07648E5E09B
:102980007648E3E07648E1E0724D18352D6805F0B1
:102990000302704D18352D68C5F305116D4D1C35BA
:1029A0002D6805F001036B4D24352D68C5F3CC056A
:1029B00015FB03F501EE905AF8EE611AB0EE610ACC
:1029C00022B1012A4FD0022A7DD16BE0614D103D2A
:1029D0002D68C5F340152DB35E4D103D2D68C5F330
:1029E000C1065D4D25FA06F4B4FBF1F501EE905AEF
:1029F000B8EE612ADFED5B1AC0EE212A554D203575
:102A00002D68C5F3080501EE905AF8EE611A72EED2
:102A1000A11AF7EE002A71EEA21A62EE211AB0EEA8
:102A2000611A1FE04C4DB5FBF1F501EE905AB8EE7E
:102A3000612ADFED4C1AC0EE212A464D20352D6863
:102A4000C5F3080501EE905AF8EE611A72EEA11A6C
:102A5000F7EE002A00E077E071EEA21A62EE211A8A
:102A6000B0EE611A5EE03D4DB5FBF1F501EE905A16
:102A7000B8EE612ADFED3B1AC0EE212A354D203534
:102A80002D68C5F3080501EE905AF8EE611A72EE52
:102A9000A11AF7EE002A71EEA21A62EE211AB0EE28
:102AA000611A3FE02E4DB5FBF1F501EE905AB8EEFC
:102AB000612ADFED2C1AC0EE212A264D20352D6823
:102AC000C5F3080500E00EE001EE905AF8EE611A39
:102AD00072EEA11AF7EE002A71EEA21A62EE211A26
:102AE000B0EE611A1EE01D4DB5FBF1F501EE905AF6
:102AF000F8EE612ADFED1B1A80EE212A154D2035F4
:102B00002D68C5F3080501EE905AF8EE611A72EED1
:102B1000211AB7EE002A71EE821A62EEA11AB0EE07
:102B2000611A00BF00BF0B4D20352D68C5F3462547
:102B30006D1C00EE905AF8EE601A81EE212AFCEE30
:102B4000C21A11EE900A01E0044800BF00BF70BD38
:102B500000000000104402580090D00300093D001E
:102B600040787D010000004670B5044600252078BD
:102B700000F00100002872D0F948006800F0380029
:102B800010280CD0F648006800F03800182812D140
:102B9000F3481830006800F0030002280BD1F04819
:102BA00010380068C0F3404000286DD060680028ED
:102BB0006AD1012070BD00BF6068B0F5803F08D1C8
:102BC000E7481038006840F48030E5491039086063
:102BD0002EE0606868B9E2481038006820F4803060
:102BE000DF49103908600846006820F4802008603A
:102BF0001EE06068B0F5A02F0DD1D94810380068EC
:102C000040F48020D649103908600846006840F436
:102C1000803008600CE0D2481038006820F4803022
:102C2000CF49103908600846006820F48020086009
:102C300000BF6068A0B1FFF763F9054608E0FFF741
:102C40005FF9401B41F28831884201D90320B1E786
:102C5000C34810380068C0F340400028EFD013E0AC
:102C6000FFF74EF9054608E0FFF74AF9401B41F22D
:102C70008831884201D903209CE7B94810380068A0
:102C8000C0F340400028EFD1207800F00200022875
:102C900047D1B348006800F0380058B1B048006828
:102CA00000F0380018283ED1AD481830006800F018
:102CB0000300B8BBAA4810380068C0F3800018B100
:102CC000E06808B9012075E7A5481038006820F0D1
:102CD0001900E1680843A24910390860FFF710F9AC
:102CE000054606E0FFF70CF9401B022801D9032036
:102CF00060E79B4810380068C0F380000028F1D0DE
:102D000097480C38006820F47C304FF47C3292FAFB
:102D1000A2F2B2FA82F221699140084390490C393B
:102D200008604AE0FFE7E06868B38D481038006843
:102D300020F01900E1680843894910390860FFF75D
:102D4000DFF8054606E0FFF7DBF8401B022801D953
:102D500003202FE7824810380068C0F38000002865
:102D6000F1D07F480C38006820F47C304FF47C327E
:102D700092FAA2F2B2FA82F22169914008437849AC
:102D80000C39086019E076481038006820F001001E
:102D9000734910390860FFF7B3F8054606E0FFF7FE
:102DA000AFF8401B022801D9032003E76C48103814
:102DB0000068C0F380000028F1D1207800F01000F6
:102DC000102877D16648006800F0380008280CD039
:102DD0006348006800F03800182823D16048183094
:102DE000006800F0030001281CD15D48103800681D
:102DF000C0F3002020B1E069802801D00120D9E68D
:102E000057480C38006820F0F8404FF0F84292FA2A
:102E1000A2F2B2FA82F2216A9140084350490C3979
:102E2000086047E0E06958B34D481038006840F04A
:102E300080004B4910390860FFF762F8054606E04C
:102E4000FFF75EF8401B022801D90320B2E6444890
:102E500010380068C0F300200028F1D040480C383A
:102E6000006820F0F8404FF0F84292FAA2F2B2FA6D
:102E700082F2216A9140084339490C39086019E00F
:102E800037481038006820F0800035491039086054
:102E9000FFF736F8054606E0FFF732F8401B022838
:102EA00001D9032086E62E4810380068C0F30020C0
:102EB0000028F1D1207800F00800082836D1606998
:102EC000D0B127486430006840F0010024496431E3
:102ED0000860FFF715F8054606E0FFF711F8401BFC
:102EE000022801D9032065E61D4864300068C0F35C
:102EF00040000028F1D019E019486430006820F043
:102F00000100174964310860FEF7FAFF054606E044
:102F1000FEF7F6FF401B022801D903204AE61048BD
:102F200064300068C0F340000028F1D1207800F040
:102F30002000202834D1A069D8B109481038006891
:102F400040F48050064910390860FEF7D9FF054665
:102F500008E0FEF7D5FF401B022803D9032029E62D
:102F600010440258AF480068C0F340300028F0D049
:102F700016E0AC48006820F48050AA490860FEF7CB
:102F8000BFFF054606E0FEF7BBFF401B022801D944
:102F900003200FE6A3480068C0F340300028F2D1B8
:102FA000207800F0040004287DD19F48006840F498
:102FB00080709D490860FEF7A3FF054606E0FEF716
:102FC0009FFF401B642801D90320F3E59648006861
:102FD00000F480700028F2D000BFA068012808D15A
:102FE00090487030006840F001008E4970310860F0
:102FF0002DE0A06868B98B487030006820F00100AF
:103000008849703108600846006820F004000860B4
:103010001DE0A06805280DD182487030006840F09E
:1030200004008049703108600846006840F00100E3
:1030300008600CE07B487030006820F0010079499E
:10304000703108600846006820F00400086000BF86
:10305000A068A0B1FEF754FF054608E0FEF750FF58
:10306000401B41F28831884201D90320A2E56D4816
:1030700070300068C0F340000028EFD013E0FEF786
:103080003FFF054608E0FEF73BFF401B41F2883159
:10309000884201D903208DE5624870300068C0F392
:1030A00040000028EFD1606A00287CD05D481030D5
:1030B000006800F03800182876D0606A022874D1C1
:1030C0005848006820F0807056490860FEF718FFE5
:1030D000054606E0FEF714FF401B022801D9032035
:1030E00068E550480068C0F340600028F2D100BF96
:1030F000D4E90A1041EA00104A492831096840F22F
:10310000F33291430843474928310860208E401E1E
:10311000C0F30800616B491E4FF47E4202EA412170
:103120000843218F491ED20102EA014108433C2194
:10313000095D491E120202EA016108433949303132
:10314000086000BF081D00684FF6F87188434FF60D
:10315000F87292FAA2F2B2FA82F2A16C914008439C
:103160003049343108602F482C30006820F00C00C2
:10317000216C08432B492C3108600846006820F078
:103180000200616C084327492C310860084600683A
:1031900040F4803008600846006840F40030086061
:1031A0000846006802E03BE038E01FE040F4802081
:1031B00008600846006840F001000860194800688F
:1031C00040F0807017490860FEF79AFE054606E059
:1031D000FEF796FE401B022801D90320EAE41148BD
:1031E0000068C0F340600028F2D019E00D48006884
:1031F00020F080700B490860FEF782FE054606E06D
:10320000FEF77EFE401B022801D90320D2E40548C8
:103210000068C0F340600028F2D101E00120C9E459
:103220000020C7E40044025800480258042808D18E
:103230004FF0E021096941F004014FF0E0221161F3
:1032400007E04FF0E021096921F004014FF0E0228E
:103250001161704770B504462546681EB0F1807F45
:1032600001D301200FE0681E4FF0E02148610F21DB
:103270004FF0FF3002F0D6FF00204FF0E0218861D0
:1032800007200861002070BD7047704710B50446E4
:103290000CB9012010BD94F83D0028B9002084F835
:1032A0003C00204600F00CF8022084F83D00211D6F
:1032B000206801F031FD012084F83D000020E9E79D
:1032C00038B504460D492068884215D100BF0C4826
:1032D000006840F010000A4908600846006800F0E5
:1032E0001000009000BF00BF002201213620FEF731
:1032F000FAFE3620FEF7E7FE38BD00000010004061
:10330000E84402580146022081F83D000868008820
:1033100040F001000A681080012081F83D00002083
:10332000704701460868C06840F001000A68D06034
:103330000868008840F001000A681080002070478B
:10334000704710B5044620680069C0F34000D8B14A
:103350002068C068C0F34000B0B16FF0020021687F
:103360000861012020772068806900F0030018B10F
:103370002046FFF7E5FF05E0204600F0BEF82046B6
:1033800000F080FA0020207720680069C0F38000F8
:10339000D8B12068C068C0F38000B0B16FF00400FD
:1033A00021680861022020772068806900F440705D
:1033B00018B12046FFF7C4FF05E0204600F09DF855
:1033C000204600F05FFA0020207720680069C0F3F3
:1033D000C000D8B12068C068C0F3C000B0B16FF0C1
:1033E000080021680861042020772068C06900F087
:1033F000030018B12046FFF7A3FF05E0204600F0C8
:103400007CF8204600F03EFA002020772068006912
:10341000C0F30010D8B12068C068C0F30010B0B18C
:103420006FF0100021680861082020772068C069CB
:1034300000F4407018B12046FFF782FF05E02046F7
:1034400000F05BF8204600F01DFA0020207720688D
:10345000006900F0010058B12068C06800F0010068
:1034600030B16FF0010021680861204600F044FA95
:1034700020680069C0F3C01058B12068C068C0F36C
:10348000C01030B16FF08000216808612046FFF75E
:10349000FBFE20680069C0F3002058B12068C068B6
:1034A000C0F3C01030B16FF0800021680861204681
:1034B000FFF7EAFE20680069C0F3801058B1206869
:1034C000C068C0F3801030B16FF04000216808611F
:1034D000204600F071FA20680069C0F3401058B12E
:1034E0002068C068C0F3401030B16FF02000216840
:1034F00008612046FFF7C9FE10BD704770B504464D
:103500000D46164600BF94F83C00012801D1022068
:1035100070BD012084F83C0000BF022084F83D000B
:103520000C2E51D005DC4EB1042E1ED0082E7AD1BF
:1035300033E0102E60D0142EF9D175E029462068B2
:1035400001F05EFC2068806940F008002168886115
:103550002068806920F00400216888612068806903
:10356000296908432168886177E02946206801F0CD
:103570009FFC2068806940F40060216888612068B1
:10358000806920F4806021688861206880692969E9
:1035900040EA0120216888615FE02946206801F047
:1035A000E5FC2068C06940F008002168C861206817
:1035B000C06920F004002168C8612068C0692969D9
:1035C00008432168C86148E02946206801F028FDC9
:1035D0002068C06940F400602168C8612068C06943
:1035E00020F480602168C8612068C069296940EAC8
:1035F00001202168C86130E02946206801F04CFDB7
:103600002068406D40F00800216848652068406DE2
:1036100020F00400216848652068406D296908434E
:103620002168486519E017E02946206801F06CFD23
:103630002068406D40F40060216848652068406D56
:1036400020F48060216848652068406D296940EA5F
:1036500001202168486500E000BF00BF012084F818
:103660003D0000BF002084F83C0000BF00BF4FE7D2
:1036700010B504460CB9012010BD94F83D0028B9DE
:10368000002084F83C00204600F00CF8022084F86A
:103690003D00211D206801F03FFB012084F83D0022
:1036A0000020E9E710B586B004466D4920688842DD
:1036B0003FD100BF6B48006840F0020069490860D4
:1036C0000846006800F00200009000BF00BF00BF85
:1036D00064480838006840F0010062490839086011
:1036E0000846006800F00100009000BF00BF00BF66
:1036F0000846006840F0020008600846006800F0D4
:103700000200009000BF00BFC02001900220029084
:1037100001200390032004900220059001A9524843
:10372000FEF7C8FA0320019001A95048FEF7C2FA3B
:1037300094E04F49206888422DD100BF4948006875
:1037400040F00400474908600846006800F00400A3
:10375000009000BF00BF00BF42480838006840F03A
:1037600002004049083908600846006800F002007D
:10377000009000BF00BF4FF46070019002200290E3
:1037800001200390032004900220059001A93748EE
:10379000FEF790FA62E03749206888422DD100BFD9
:1037A0003048006840F008002E490860084600686C
:1037B00000F00800009000BF00BF00BF2948083893
:1037C000006840F080002749083908600846006812
:1037D00000F08000009000BF00BF4FF440600190F7
:1037E0000220029001200390032004900220059003
:1037F00001A92148FEF75EFA30E02049206888429E
:103800002CD100BF17480830006840F0020015496D
:10381000083108600846006800F00200009000BF10
:1038200000BF00BF0F480838006840F480700D49A1
:10383000083908600846006800F48070009000BFF6
:1038400000BFE0200190022002900120039003209D
:103850000490059001A90A48FEF72CFA06B010BDA5
:1038600000040040E84402580000025800040258D6
:1038700000080040000C0040001C025800040140F9
:10388000002002587047000030B504460D46012262
:103890002946206801F0A6FA1249206888420FD014
:1038A0001149206888420BD010492068884207D00F
:1038B0000F492068884203D00E492068884201D110
:1038C000012000E0002028B12068406C40F4004056
:1038D000216848642068008840F001002168088061
:1038E000002030BD000001400004014000400140C4
:1038F000004401400048014070B505462348854218
:1039000041D10120224908702248007818B10020D6
:103910002049087070BD204846682049204800F0C2
:1039200029FE1E491E48FDF73DF81E490978C1EBE6
:10393000C1011D4A02EB810018221849FCF7F9FC6D
:10394000012018490978C1EBC101174A02EB810136
:1039500008761448007880F00100124908700E487B
:103960004068841B11480068844201D90F480460F4
:103970000F48006820440E4908600E480068401C4B
:103980000C49086000BF00BFC4E7000048140024D1
:10399000BC000024F1000024001000E01C02002400
:1039A000FC000024D4000024F8150024C0000024EA
:1039B000C8000024C40000247047704710B50446B6
:1039C0002F49206888425AD1E06F00F00F0000288C
:1039D00055D0606F00682B4988420DD3606F006836
:1039E0002949884208D8606F0068006820F001000B
:1039F000616F0968086007E0606F0068006820F088
:103A00000100616F09680860606F00681D498842A5
:103A100009D3606F00681C49884204D80815616F9B
:103A20000968486004E04FF48060616F096848608D
:103A3000606F0068134988420DD3606F00681249B7
:103A4000884208D8606F0068006840F00100616F2C
:103A50000968086007E0606F0068006840F00100D6
:103A6000616F096808604FF4806008490880002091
:103A700007490880074804F06DFA0020E06710BD90
:103A80000044004010000240B80402405A000024E4
:103A90005C0000249C0000242DE9F04104462068CD
:103AA000C569206807682068866805F00F08B8F1C6
:103AB000000F0DD105F0200050B107F0200010B923
:103AC00006F0805020B1204601F023FDBDE8F081D2
:103AD000B8F1000F72D05D48304018B907F490700B
:103AE00000287AD005F0010048B107F4807030B1A9
:103AF000012021680862E06F40F00100E06705F0F6
:103B0000020048B106F0010030B1022021680862CD
:103B1000E06F40F00400E06705F0040048B106F0F3
:103B2000010030B1042021680862E06F40F002001B
:103B3000E06705F0080078B107F0200028B906F02A
:103B4000805010B906F0010030B1082021680862E9
:103B5000E06F40F00800E067E06F70B305F0200010
:103B600040B107F0200010B906F0805010B1204697
:103B700001F0CFFCE06F00F0080020B920688068F9
:103B800000F0400018B3204601F099FC20688068DE
:103B900000F04000B8B12068806820F04000216843
:103BA0008860606F58B12A48616F0865606FFDF7E3
:103BB00021FC10B1606F016D88470DE00DE02046DB
:103BC000FFF7FCFE08E02046FFF7F8FE04E0204681
:103BD000FFF7F4FE0020E06778E705F4801078B185
:103BE00006F4800060B14FF4801021680862202044
:103BF00084F8790084F87A002046FFF7DEFE65E756
:103C000005F0800048B107F0800010B906F400000C
:103C100018B1204602F094F958E705F0400030B1A1
:103C200007F0400018B1204601F059FC4EE705F4BA
:103C3000000040B107F0804028B12068006820F003
:103C400080402168086000BF40E7000001000010CC
:103C5000B353000810B504460CB9012010BDA0698B
:103C600000B100E000BF94F8790028B9002084F882
:103C70007800204600F02AF8242084F87900206893
:103C8000006820F0010021680860204601F086FCF1
:103C9000012800D1E2E7606B10B1204601F0DAFAAA
:103CA0002068406820F4904021684860206880685F
:103CB00020F02A00216888602068006840F0010038
:103CC00021680860204601F03AFBC7E77047000012
:103CD00070B504460E46154694F87A00202843D164
:103CE00006B10DB9012070BD00BF94F8780001281D
:103CF00001D10220F7E7012084F8780000BF666652
:103D0000A4F868500020E067222084F87A00174861
:103D1000616FC8631648616F08641648616FC864B4
:103D20000020616F0865236803F124012B46626E51
:103D3000606FFDF70DFF00BF002084F8780000BF22
:103D40002068006840F480702168086020688068FE
:103D500040F00100216888602068806840F04000E1
:103D6000216888600020BEE70220BCE727540008D5
:103D70006D540008CB53000810B5034693F87A0041
:103D8000202867D101B10AB9012010BD00BF93F806
:103D90007800012801D10220F7E7012083F878009C
:103DA00000BF5966A3F86820A3F86A2000BF98688E
:103DB000B0F5805F0AD1186920B940F2FF10A3F86E
:103DC0006C001CE0FF20A3F86C0018E0986848B96C
:103DD000186918B9FF20A3F86C0010E07F20A3F841
:103DE0006C000CE09868B0F1805F08D1186918B9D0
:103DF0007F20A3F86C0002E03F20A3F86C0000BF16
:103E00000020D867222083F87A0000BF002083F8C2
:103E1000780000BF1868806840F001001C68A0604E
:103E20001868006800F0005060B11868006840F43D
:103E300080701C6820601868806840F080501C68A2
:103E4000A06005E01868006840F490701C6820606D
:103E500000209AE7022098E738B504460D4920680B
:103E6000884215D10C480078009001220A490B487D
:103E7000FFF782FF0121684603F07EFB10B104F0DA
:103E800029F904E006480068401C0549086000BFA5
:103E900038BD0000001001405800002458020024E2
:103EA000500000247047000070B504460E461546C9
:103EB00094F8790020283CD106B10DB9012070BDDD
:103EC00000BF94F87800012801D10220F7E7012013
:103ED00084F8780000BFE665A4F86050A4F862504A
:103EE0000020E067212084F879001348216FC8631F
:103EF0001248216F08641248216FC8640020216FA6
:103F00000865236803F128022B46E16D206FFDF759
:103F10001FFE40202168086200BF002084F878005E
:103F200000BF2068806840F0800021688860002021
:103F3000C5E70220C3E700007B540008B154000825
:103F4000CB53000810B504460A492068884200D0C7
:103F500010BD72B6B4F860000749098808440649E4
:103F6000088062B600200549087004F0B3F800BF6D
:103F7000EEE700000010014060000024590000241A
:103F8000704700BFFEE7000010B50748074908600A
:103F9000042048604B210548816040F6FF71C160F4
:103FA000FDF7B4FF10BD000000480058E0180024E1
:103FB00010B50248FDF7DBFF10BD0000E01800243B
:103FC0009FED280A284880ED000A9FED280A28481E
:103FD00080ED000A9FED270A274880ED000A9FED3B
:103FE000270A274880ED000A9FED260A264880ED23
:103FF000000A9FED260A264880ED000AB7EE080A5F
:10400000244880ED000A9FED240A244880ED000A30
:10401000B7EE000A224880ED000AB1EE040A2148FA
:1040200080ED000AB1EE040A1F4880ED000AB1EEEF
:10403000040A1E4880ED000AB1EE040A1C4880ED17
:10404000000AB2EE040A1B4880ED000AB6EE000A30
:10405000194880ED000AB7EE000A184880ED000A02
:104060007047000052B80E400C00002490A4243C7D
:1040700010000024F123233C14000024E931253CE6
:1040800018000024CDCC2C401C0000249A99993DA6
:1040900020000024240000246666663F28000024D7
:1040A0002C000024300000243400002438000024B8
:1040B0003C00002440000024440000244800002468
:1040C00070B505460C4690212846FCF74BF918219F
:1040D0002046FCF747F9034A03490448FDF77AF9FB
:1040E00070BD000060160024301600241C0200245D
:1040F0001FB5FDF7B1FF01208DF8000004208DF8F9
:1041000001000F4801900E208DF8080000208DF866
:104110000A008DF80E008DF80F0001208DF80D00BB
:1041200003208DF80B0001208DF80C0000208DF885
:1041300009006846FDF762FF0420FDF7A3FF1FBDDD
:1041400000000030F8B504460D4600BF99480068ED
:1041500040F00100974908600846006800F001003F
:10416000009000BF00BF00BF92481030006840F0D0
:1041700010009049103108600846006800F01000F7
:10418000009000BF00BF00BF8A480830006840F4BC
:1041900000308849083108600846006800F40030A3
:1041A000009000BF00BF00BF82480838006840F0A0
:1041B00001008049083908600846006800F00100E5
:1041C000009000BF00BF00BF0846006840F002003A
:1041D00008600846006800F00200009000BF00BFC1
:1041E00007234FF480625110734803F0A5FA22466A
:1041F0007249734803F0A4FF01220321084600F02E
:10420000F4F806463146252001F0F8FF252001F09C
:10421000E0FF01226B496A48FFF7AEFD67488068FE
:1042200020F001006549886065480068006820F05A
:1042300080006349096808606348644908602A206F
:1042400048604021614881600021C1604FF4806175
:104250000161002141618161C1610162FDF770FB73
:1042600000BF5A485649086708465849886300BF46
:1042700001220221032000F0B8F8064631463A2018
:1042800001F0BCFF3A2001F0A4FF4D48006800682F
:1042900020F080004A4909680860072308220421A9
:1042A000454803F049FA2A4649494A4803F048FF7D
:1042B00000220121032000F098F80646314626200E
:1042C00001F09CFF262001F084FF43484349086029
:1042D0002B204860002141488160C1604FF480611B
:1042E00001610021416181614FF48071C161490226
:1042F0000162FDF725FB00BF38483649486708468C
:104300003649886300BF00220321084600F06DF89B
:1043100006463146102001F071FF102001F059FFD0
:104320004FF480622E492B48FFF7D2FC2B480068DF
:104330002949783988420ED32848006822497831C3
:10434000884208D825480068006820F018002349F2
:104350000968086007E021480068006820F006004E
:104360001E49096808601B480068006840F010009A
:10437000184909680860194800681749783988425F
:104380000ED31648006810497831884208D813487F
:104390000068006840F0040010490968086007E000
:1043A0000E480068006840F008000C490968086081
:1043B000F8BD0000E044025800000258001001401F
:1043C00058020024580000244004024058030024EE
:1043D00000440040D802002488000240D00300249A
:1043E0000000003000BFFEE77047F0B503460C4602
:1043F00003F00701C1F10700042801D9042001E0FE
:10440000C1F107000646081D072801D2002000E080
:10441000C81E05460120B040401E2040A84001278C
:10442000AF407F1E17403843F0BD000010B5444830
:10443000444908604449434800F0DCFE00224249F8
:104440004048FFF75BF804223F493E48FFF756F823
:1044500008223D493B48FFF751F80C223A493948B8
:10446000FFF74CF800213748FFF70EFA04213548D2
:10447000FFF70AFA08213348FFF706FA0C21314802
:10448000FFF702FA3148324908603249304800F0FB
:10449000B1FE04222F492E48FFF730F808222D499B
:1044A0002B48FFF72BF80C222A492948FFF726F85A
:1044B00004212748FFF7E8F908212548FFF7E4F928
:1044C0000C212348FFF7E0F92348244908602449D8
:1044D000224800F08FFE002221492048FFF70EF805
:1044E00004221F491D48FFF709F800211B48FFF768
:1044F000CBF904211948FFF7C7F91A481A4908608F
:104500001A49194800F076FE002218491648FEF7AD
:10451000F5FF042215491448FEF7F0FF082213495D
:104520001148FEF7EBFF00210F48FFF7ADF904211A
:104530000D48FFF7A9F908210B48FFF7A5F910BDB1
:10454000000400408814002488150024000800405E
:10455000C8140024A4150024000C004008150024F1
:10456000C01500240004014048150024DC15002477
:104570007047000030B52DED108B93B004460D460A
:1045800094ED000AB0EE40BA94ED030AF0EE40BAA2
:1045900094ED060AB0EE40CA94ED010AF0EE40CA6E
:1045A00094ED040AB0EE40DA94ED070AF0EE40DA3A
:1045B00094ED020AB0EE40EA94ED050AF0EE40EA0E
:1045C00094ED080AB0EE40FA94ED120A8DED120A4D
:1045D00094ED150A8DED110A94ED130A8DED100A74
:1045E00094ED160A8DED0F0A94ED140A8DED0E0A66
:1045F00094ED170A8DED0D0A94ED1B0A8DED0C0A52
:1046000094ED1C0A8DED0B0A94ED1D0A8DED0A0A3E
:104610009DED120A3BEE400A8DED090A9DED110A4F
:104620003BEEC00AF0EE409A9DED100A3CEEC00A47
:104630008DED080A9DED0F0A3DEE400AB0EE40AA4E
:104640009DED0E0A3EEE400A8DED070A9DED0D0A26
:104650003EEEC00AF0EE40AA854890ED001A9DEDAE
:10466000090AF0EE690A41EE000ACDED060A90ED66
:10467000001A9DED080AF0EE4A0A41EE000ACDED5F
:10468000050A90ED001A9DED070AF0EE6A0A41EE68
:10469000000ACDED040A9DED0A1ADDED0B0A9DED31
:1046A0000C0A03F09BFD7348D0ED000A9DED060A4D
:1046B00003F054FCF0EE400AB0EE4C0A6C4890ED6A
:1046C000001A01EE290A6C4890ED001A01EE200A4A
:1046D000B0EE408A6748D0ED000A9DED050A03F070
:1046E0003DFCF0EE400AB0EE6D0A614890ED001A14
:1046F00001EE0A0A614890ED001A01EE200AF0EE80
:10470000408A5C48D0ED000A9DED040A03F026FCC7
:10471000F0EE400AB0EE4F0A554890ED001A01EE57
:104720002A0A574890ED001A01EE200AB0EE409A8E
:10473000544890ED000A20EE080AD0ED030A00EE7E
:10474000A80AD0ED060A00EE890A4F48D0ED000A0B
:1047500020EE200A8DED010A4A4890ED010A20EE74
:10476000080AD0ED040A00EEA80AD0ED070A00EE10
:10477000890A4548D0ED000A20EE200A8DED020A94
:10478000404890ED020A20EE080AD0ED050A00EE3E
:10479000A80AD0ED080A00EE890A3B48D0ED000ACD
:1047A00020EE200A8DED030A384890ED001AF8EE4D
:1047B000001A21EE211AF0EE410A9DED011AB0EE29
:1047C000410A02F0B6FEF0EE40FA304890ED000AE1
:1047D000B0EE001A20EE010AF0EE400AB0EE6F0AC9
:1047E00002F0ADFE85ED000A284890ED001AF8EEC3
:1047F000001A21EE211AF0EE410A9DED021AB0EEE8
:10480000410A02F096FEF0EE40FA204890ED000AD0
:10481000B0EE001A20EE010AF0EE400AB0EE6F0A88
:1048200002F08DFE85ED010A184890ED001AF8EEB1
:10483000001A21EE211AF0EE410A9DED031AB0EEA6
:10484000410A02F076FEF0EE40FA104890ED000AC0
:10485000B0EE001A20EE010AF0EE400AB0EE6F0A48
:1048600002F06DFE85ED020A13B0BDEC108B30BD79
:104870003C000024440000242400002428000024DC
:104880002C000024340200240C0000241C0000240E
:1048900010B50023234C236000BF00BF00BFBFF34F
:1048A0004F8F00BF00BF00BF231F1868C0F34E31F9
:1048B00000BFC0F3C90200BF43F6E07303EA41132F
:1048C0004FF0404404EA82742343174C236000BF36
:1048D00000BF131EA2F10102EED10B1EA1F10101D6
:1048E000E7D100BF00BF00BFBFF34F8F00BF00BFC5
:1048F00000BF0C4B703B1B6843F48033094C703C89
:10490000236000BF00BF00BFBFF34F8F00BF00BFD9
:1049100000BF00BF00BF00BFBFF36F8F00BF00BF6D
:1049200000BF10BD84ED00E060EF00E000BF00BFFD
:1049300000BFBFF34F8F00BF00BF00BF00BF00BF6D
:1049400000BFBFF36F8F00BF00BF00BF002014493E
:10495000086000BF00BF00BFBFF34F8F00BF00BFA4
:1049600000BF00BF00BF00BFBFF36F8F00BF00BF1D
:1049700000BF0C48006840F400300A49086000BFDE
:1049800000BF00BFBFF34F8F00BF00BF00BF00BF1D
:1049900000BF00BFBFF36F8F00BF00BF00BF7047F5
:1049A00050EF00E014ED00E07047000010B5044641
:1049B000D4ED000AB0EE600A00212E4800F0DEFBC4
:1049C000D4ED040AB0EE600A04212A4800F0D6FBB8
:1049D000D4ED080AB0EE600A0821264800F0CEFBAC
:1049E000D4ED030AB0EE600A0421234800F0C6FBB0
:1049F000D4ED070AB0EE600A08211F4800F0BEFBA4
:104A0000D4ED0A0AB0EE600A0C211B4800F0B6FB98
:104A1000D4ED010AB0EE600A0421184800F0AEFBA4
:104A2000D4ED060AB0EE600A0821144800F0A6FB97
:104A3000D4ED090AB0EE600A0C21104800F09EFB8C
:104A4000D4ED020AB0EE600A00210B4800F096FB9C
:104A5000D4ED050AB0EE600A0021094800F08EFB93
:104A6000D4ED0B0AB0EE600A0421054800F086FB85
:104A700010BD00004815002488140024C814002428
:104A80000815002408B500BF1548006840F0200054
:104A9000134908600846006800F02000009000BF3D
:104AA00000BF10481049086040F65F10486040F6AB
:104AB000B7310D48C160002181600161FEF7E6FB5E
:104AC0000948FEF71FFC00200749096848620022D8
:104AD00011463720FDF707FB3720FDF7F4FA08BD34
:104AE000E844025800140040A018002400200249A5
:104AF0000968486270470000A01800242DE9F041C1
:104B00009CB080460C4615461E4600273748006874
:104B100020F004003549086000BF002000903348B1
:104B20000C30006840F4404030490C3108600846C1
:104B3000006800F44040009000BF00BF00BF2B4859
:104B40000C30006800F40050B0F5005FF7D1012090
:104B500001900004029000200490089002200A9026
:104B600002210B91CDF834800C940E950F96002104
:104B700012910821119101A8FDF7F6FF07460FB128
:104B800000BFFEE73F2014900320159000201690F0
:104B9000082017904020199000011A90402018908A
:104BA00050201B90022114A8FDF74CFD07460FB1C1
:104BB00000BFFEE70E48006840F080000C49086026
:104BC00000BF0B48F430006840F002000849F4319F
:104BD00008600846006800F00200009000BF00BFB7
:104BE000FDF75EF81CB0BDE8F08100000C480258EB
:104BF0000044025810B5FDF7C1F910BD2048006807
:104C000040F470001E4908601E48006840F0010032
:104C10001C49086000201B491031086019480068D1
:104C200019490840174908600020164918310860E2
:104C3000091D0860091D0860124928310860091D16
:104C40000860091D0860091D0860091D0860091D2C
:104C50000860091D0860091D08600A48006820F402
:104C60008020084908600020064960310860012062
:104C700006490860C0060249803908607047000094
:104C800088ED00E0004402587FEDF6EA088100510B
:104C900010B50248FEF755FB10BD00004814002473
:104CA00010B50A480A4908600A480088486000218F
:104CB00007488160084801880548C16000210161FA
:104CC000FEF7E4FA0248FEF72CFB10BD001000408E
:104CD00048140024CE000024CC0000240A480068B8
:104CE000006900F0010070B16FF001000649096829
:104CF000086106480068401C044908600120044916
:104D00000870044908707047A0180024F4000024BB
:104D1000F0000024F100002410B500220288294B85
:104D200098420ED0B0F1804F0BD0274B984208D05C
:104D3000264B984205D0264B984202D0254B9842EC
:104D400003D122F070024B681A431E4B984217D0D1
:104D5000B0F1804F14D01C4B984211D01B4B98429D
:104D60000ED01B4B98420BD01A4B984208D01A4BCE
:104D7000984205D0194B984202D0194B984203D162
:104D800022F44072CB681A4322F080034C6943EA54
:104D9000040202808B68C3620B880385094B98422A
:104DA0000BD00C4B984208D00B4B984205D00B4BC4
:104DB000984202D00A4B984201D10B8A0386012304
:104DC000436110BD000001400004004000080040A5
:104DD000000C00400004014000400140004401403C
:104DE0000048014030B50023012404FA01F3046AAD
:104DF0009C430462046A02FA01F52C43046230BD4C
:104E000030B5002400220023056A25F00105056263
:104E1000026A43688469204D2C4024F003040D6825
:104E20002C4322F002028D682A431C4DA84200D177
:104E30000FE01B4DA84200D10BE01A4DA84200D153
:104E400007E0194DA84200D103E0184DA84206D151
:104E500000BF22F00802CD682A4322F004020F4D61
:104E6000A8420BD00E4DA84208D00E4DA84205D046
:104E70000D4DA84202D00D4DA84207D123F48073F6
:104E800023F400734D692B438D692B434360846188
:104E90004D684563026230BD8FFFFEFF0000014098
:104EA000000401400040014000440140004801402E
:104EB00030B5002400220023056A25F010050562A4
:104EC000026A43688469234D2C4024F440740D68C1
:104ED00044EA052422F020028D6842EA05121E4DA4
:104EE000A84200D10FE01D4DA84200D10BE01C4D9F
:104EF000A84200D100BF1B4DA84200D100BF1A4DEF
:104F0000A84207D106E022F08002CD6842EA0512ED
:104F100022F04002104DA8420BD0104DA84208D0FC
:104F20000F4DA84205D00F4DA84202D00E4DA84209
:104F300009D123F4806323F400634D6943EA8503B8
:104F40008D6943EA8503436084614D68856302622D
:104F500030BD0000FF8FFFFE000001400004014053
:104F600000400140004401400048014030B50024A9
:104F700000220023056A25F480750562026A4368F1
:104F8000C46924F0700424F003040D682C4322F457
:104F900000728D6842EA05221C4DA84200D10FE044
:104FA0001B4DA84200D10BE01A4DA84200D100BF12
:104FB000194DA84200D100BF184DA84207D106E004
:104FC00022F40062CD6842EA052222F480620F4D8D
:104FD000A8420BD00E4DA84208D00E4DA84205D0D5
:104FE0000D4DA84202D00D4DA84209D123F48053A3
:104FF00023F400534D6943EA05138D6943EA051311
:105000004360C4614D68C563026230BD0000014069
:1050100000040140004001400044014000480140BC
:1050200030B5002200230024056A25F4805505626E
:10503000036A4468C26922F4E04222F440720D68B7
:1050400042EA052223F400538D6843EA05330D4DEF
:10505000A8420BD00C4DA84208D00C4DA84205D058
:105060000B4DA84202D00B4DA84204D124F4804439
:105070004D6944EA85144460C2614D680564036269
:1050800030BD00000000014000040140004001402C
:10509000004401400048014030B5002300220024B4
:1050A000056A25F480350562026A4468436D23F081
:1050B00070030D682B4322F400320D8942EA054249
:1050C0000C4DA8420BD00C4DA84208D00B4DA84265
:1050D00005D00B4DA84202D00A4DA84204D124F4B9
:1050E00080344D6944EA0524446043654D68856514
:1050F000026230BD00000140000401400040014058
:10510000004401400048014030B500220023002443
:10511000056A25F480150562036A4468426D22F42D
:10512000E0420D6842EA052223F400130D8943EAA8
:1051300005530D4DA8420BD00C4DA84208D00C4D84
:10514000A84205D00B4DA84202D00B4DA84204D175
:1051500024F400344D6944EA8524446042654D6876
:10516000C565036230BD000000000140000401403D
:1051700000400140004401400048014070B52DED61
:10518000048B04460D46B0EE408A9FED190AC8EE26
:10519000000AE068401C00EE100AB8EE400A20EE5B
:1051A000800AB7EEC00AB0EE409B01F0F9F8BCEE01
:1051B000C00B10EE106A15B92068466315E0042D87
:1051C00002D12068866310E0082D02D12068C663F2
:1051D0000BE00C2D02D12068066406E0102D02D1F0
:1051E0002068866501E02068C665BDEC048B70BD53
:1051F0000000C84270B504460D4612480088606041
:105200000021A16010480188E16000212161204651
:10521000FEF72EFA602028600B48008801EE100A85
:10522000B8EE411B9FED092B21EE021BB0EE410BA6
:1052300001F0B6F8BCEEC00B85ED010A0020A860B5
:1052400070BD0000D2000024D00000249A999999E2
:105250009999B93F90F8341001F0010139B1016812
:10526000496821F40031826B11430268516090F863
:10527000341001F0020139B10168496821F480312C
:10528000C26B11430268516090F8341001F00401C0
:1052900039B10168496821F48021026C1143026828
:1052A000516090F8341001F0080139B10168496883
:1052B00021F40041426C11430268516090F83410AF
:1052C00001F0100139B10168896821F48051826CC4
:1052D00011430268916090F8341001F0200139B157
:1052E0000168896821F40051C26C11430268916021
:1052F00090F8341001F0400199B10168496821F437
:105300008011026D114302685160016DB1F5801F7B
:1053100007D10168496821F4C001426D1143026858
:10532000516090F8341001F0800139B1016849688A
:1053300021F40021826D114302685160704738B535
:10534000044600250020E067FCF7DAFD05462068EA
:10535000006800F0080008280CD16FF07E402B4652
:1053600000224FF400110090204600F02AFE08B100
:10537000032038BD2068006800F0040004280CD128
:105380006FF07E402B4600224FF4800100902046B3
:1053900000F017FE08B10320EBE7202084F8790025
:1053A00084F87A0000BF002084F8780000BF00BFB6
:1053B000DFE770B50546AC6B0020A4F86A00A4F8DE
:1053C00062002046FEF7FAFA70BD70B50546AC6B78
:1053D0002846FCF78BF8022824D094F8790021287D
:1053E0000AD12068806800F0800028B10020A4F86D
:1053F0006200204600F083F894F87A0022280AD14F
:105400002068806800F0400028B10020A4F86A00FD
:10541000204600F054F8E06F40F01000E0672046AE
:10542000FEF7CCFA70BD70B50546AC6BE869B0F517
:10543000807F17D00020A4F86A002068006820F45C
:105440008070216808602068806820F00100216871
:1054500088602068806820F04000216888602020F3
:1054600084F87A002046FEF7F7FC70BD70B504465C
:10547000A56B2846FEF716FD70BD70B50546AC6BF2
:10548000E869B0F5807F0FD00020A4F862002068A2
:10549000806820F08000216888602068006840F003
:1054A00040002168086002E02046FEF74BFD70BD19
:1054B00070B50446A56B2846FEF762FD70BD016815
:1054C000096821F49071026811600168896821F00F
:1054D000010102689160202180F87A10704710B5B0
:1054E00004462068006820F0400021680860202001
:1054F00084F879002046FEF725FD002010BD0168E4
:10550000096821F0C00102681160202180F879103B
:1055100070472DE9F0410446B4F86C7094F87A00B5
:10552000222833D12068858CA068B0F5805F09D12E
:10553000206938B9666E05EA07003080606E801C0D
:10554000606605E0F8B22840626E511C616610701A
:10555000B4F86A00401E80B2A4F86A00A0B92068BE
:10556000006820F49070216808602068806820F04E
:10557000010021688860202084F87A002046FEF728
:105580006BFC0020BDE8F0810020FBE72068008B69
:1055900040F00800216808830220F3E72DE9F04F6E
:1055A00089B0044600254FF08008A946AA4600208D
:1055B0000890FA492068884201D1012000E00020CB
:1055C00000B100E000BFA06AB0F1005F00D100BFF1
:1055D0002169A068084361690843E16940EA01055F
:1055E000A06A054320680068ED4908402843216807
:1055F00008602068406820F44050E1680843216852
:105600004860A569E5492068884201D1012000E091
:10561000002008B9206A0543A06AB0F1005F03D1F9
:10562000D4E90B010843054320688068DD49084040
:105630002843216888602068C06A20F00F00616AF2
:1056400008432168C86200BFD7492068884224D136
:10565000D648006800F03800182814D005DC48B19E
:1056600008280AD0102817D10AE020280ED02828B0
:1056700012D10EE04FF001080EE04FF004080BE0ED
:105680004FF0400808E04FF0080805E04FF0100820
:1056900002E04FF0200800BF17E1C54920688842AA
:1056A0001DD1C248006800F00700062816D2DFE8C6
:1056B00000F00306090C0F124FF000080EE04FF047
:1056C00004080BE04FF0400808E04FF0080805E040
:1056D0004FF0100802E04FF0200800BFF5E0B54998
:1056E000206888421DD1B148006800F007000628F4
:1056F00016D2DFE800F00306090C0F124FF0000885
:105700000EE04FF004080BE04FF0400808E04FF0C7
:10571000080805E04FF0100802E04FF0200800BF35
:10572000D3E0A549206888421DD1A048006800F058
:105730000700062816D2DFE800F00306090C0F1256
:105740004FF000080EE04FF004080BE04FF0400867
:1057500008E04FF0080805E04FF0100802E04FF0B5
:10576000200800BFB1E09549206888421DD18F48CC
:10577000006800F00700062816D2DFE800F00306F4
:10578000090C0F124FF000080EE04FF004080BE078
:105790004FF0400808E04FF0080805E04FF010080F
:1057A00002E04FF0200800BF8FE085492068884262
:1057B00024D17E48006800F03800182814D005DC99
:1057C00048B108280AD0102817D10AE020280ED0A6
:1057D000282812D10EE04FF001080EE04FF0040827
:1057E0000BE04FF0400808E04FF0080805E04FF0EC
:1057F000100802E04FF0200800BF66E07149206801
:1058000088421DD16948006800F00700062816D2BA
:10581000DFE800F00306090C0F124FF000080EE05D
:105820004FF004080BE04FF0400808E04FF0080884
:1058300005E04FF0100802E04FF0200800BF44E000
:105840006149206888421DD15848006800F007006F
:10585000062816D2DFE800F00306090C0F124FF0FD
:1058600000080EE04FF004080BE04FF0400808E09D
:105870004FF0080805E04FF0100802E04FF0200854
:1058800000BF22E04549206888421ED14748001DDC
:10589000006800F00700062816D2DFE800F00306D3
:1058A000090C0F124FF002080EE04FF004080BE055
:1058B0004FF0400808E04FF0080805E04FF01008EE
:1058C00002E04FF0200800BF00BF00BF334920684E
:1058D000884201D1012000E0002000285DD0002591
:1058E000B8F1100F33D009DCB8F1020F10D0B8F1C5
:1058F000040F11D0B8F1080F2ED117E0B8F1200F26
:1059000027D0B8F1400F0CD0B8F1800F24D124E09B
:10591000FCF756FC054623E005A8FCF767FC069D4E
:105920001EE002A8FCF778FD039D19E01F485438DB
:105930000068C0F3401040B11C4854380068C0F300
:10594000C101224820FA01F500E0204D08E0204D79
:1059500006E04FF4004503E000BF0120089000BFBF
:1059600000BF002D0AD0606800EB4000A84203D8B9
:1059700060680003A84202D201200890D4E2B8F186
:10598000100F7CD026DCB8F1020F2DD0B8F1040F37
:1059900052D0B8F1080F73D19EE03FE1000C0058DF
:1059A000F369FFCFFFF4FF11001001405444025887
:1059B0000044004000480040004C004000500040BF
:1059C0000014014000780040007C00400090D003AB
:1059D00000093D00B8F1200F7DD0B8F1400F54D040
:1059E000B8F1800FD7D109E1FCF7EAFB00270646A2
:1059F000FB49606A31F810C062463B463046394682
:105A0000FAF766FC4FF4807600220346A3FB0607F4
:105A100001FB067103FB0213616849080646711811
:105A20005A41CDE9001266683246002308460199C2
:105A3000FAF74EFC0546E4E005A8FCF7D7FBDDF8D5
:105A400018C0E749606A31F810B05A460023604632
:105A50001946FAF73DFC4FF4807C0022A0FB0C3B7A
:105A600001FB0CB100FB0210616849085E1840EBB5
:105A70000201D4F804C062460023304601E079E018
:105A8000BBE0FAF725FC0546BBE002A8FCF7C4FC26
:105A9000DDF80CC0D249606A31F810B05A460023D4
:105AA00060461946FAF714FC4FF4807C0022A0FBF4
:105AB0000C3B01FB0CB100FB0210616849085E1849
:105AC00040EB0201D4F804C0624600233046FAF7E6
:105AD000FFFB054695E06EE0C2480068C0F3401049
