:020000040800F2
:10000000200C0024B10200088134000849330008A4
:100010007D340008910C00080B4F00080000000020
:10002000000000000000000000000000013A00088D
:100030005110000800000000C9350008D53B000839
:10004000CB020008CB020008CB020008CB0200085C
:10005000CB020008CB020008CB020008CB0200084C
:10006000CB020008CB020008CB020008CB0200083C
:10007000CB020008CB020008CB020008CB0200082C
:10008000CB020008CB020008CB020008CB0200081C
:10009000CB020008CB020008CB020008CB0200080C
:1000A000CB020008CB020008CB020008CB020008FC
:1000B000CB020008CB020008CB020008CB020008EC
:1000C000CB020008CB020008CB020008CB020008DC
:1000D000CB020008914E0008A14E0008CB02000898
:1000E000CB020008CB02000800000000CB02000891
:1000F000CB020008CB020008CB020008CB020008AC
:10010000CB020008CB020008CB020008CB0200089B
:10011000CB020008CB020008713C0008CB020008AB
:10012000CB020008CB020008CB020008CB0200087B
:10013000CB020008CB020008CB020008CB0200086B
:1001400000000000000000000000000000000000AF
:10015000CB020008CB020008CB020008CB0200084B
:10016000CB020008CB020008CB020008CB0200083B
:10017000CB020008CB020008CB0200080000000000
:10018000CB020008CB020008CB020008CB0200081B
:10019000CB020008CB020008CB020008CB0200080B
:1001A000CB020008CB020008CB020008CB020008FB
:1001B000CB020008CB020008CB020008CB020008EB
:1001C000CB020008CB020008CB020008CB020008DB
:1001D000CB020008CB020008CB020008CB020008CB
:1001E000CB020008CB020008CB020008CB020008BB
:1001F000CB020008CB020008CB020008CB020008AB
:10020000CB020008CB020008CB020008CB0200089A
:10021000CB020008CB020008CB020008CB0200088A
:10022000CB020008CB020008CB020008000000004F
:10023000CB020008CB02000800000000CB0200083F
:10024000CB020008CB020008CB020008CB0200085A
:10025000CB020008CB020008CB020008CB0200084A
:10026000CB020008CB020008CB020008CB0200083A
:10027000CB020008CB020008CB02000800000000FF
:10028000CB02000800000000CB02000800000000C4
:1002900000000000CB020008DFF80CD000F0F4FAF8
:1002A0000048004775660008200C002440BA7047DB
:1002B0000648804706480047FEE7FEE7FEE7FEE700
:1002C000FEE7FEE7FEE7FEE7FEE7FEE7DD3B0008B0
:1002D000990200082DE9F05F0546002092469B46F2
:1002E00088460646814640241BE02846414647464C
:1002F000224600F085F853465A46C01A914110D361
:1003000011461846224600F06CF82D1A67EB0108DA
:100310004F4622460120002100F063F817EB000948
:100320004E41201EA4F10104DFDC484631462A4636
:100330004346BDE8F09F40EA01039B0703D009E074
:1003400008C9121F08C0042AFAD203E011F8013BC1
:1003500000F8013B521EF9D27047D2B201E000F81A
:10036000012B491EFBD270470022F6E710B5134659
:100370000A4604461946FFF7F0FF204610BD10B5A7
:100380004843044606F0CEF9002805D00021002C91
:1003900002D0641E0155FAE710BD30B4044696231E
:1003A0000800214604D0B62330BC002200F041B83A
:1003B00020460021F8E730B50B46014600202022F8
:1003C000012409E021FA02F59D4205D303FA02F562
:1003D000491B04FA02F52844151EA2F10102F1DCC2
:1003E00030BD202A04DB203A00FA02F100207047D9
:1003F0009140C2F1200320FA03F319439040704763
:10040000202A04DB203A21FA02F00021704721FA69
:1004100002F3D040C2F120029140084319467047D0
:100420000029A8BF7047401C490008BF20F0010008
:10043000704710B4B0FA80FC00FA0CF050EA0104E6
:1004400004BF10BC704749B1CCF1200421FA04F478
:1004500011FA0CF118BF012121430843A3EB0C0151
:10046000CB1D4FEA00614FEA102042BF002010BCB4
:10047000704700EBC35010440029A4BF10BC704764
:10048000401C490008BF20F0010010BC70472DE956
:10049000FE4F804681EA0300C00F0C46009021F019
:1004A000004123F00045B8EB0200A94105D24046C7
:1004B000214690461C460B46024623F0004010435E
:1004C00047D0270DC7F30A00C3F30A510290401A20
:1004D000019040286BDAC3F3130040F4801B0098AE
:1004E000924620B10023D2EB030A63EB0B0B019879
:1004F0005946C0F140025046FFF773FF06460D46CD
:1005000050465946019A00F0D1F910EB08006141BC
:10051000002487EA115284EAE7731A4340D0009A14
:1005200062B3019A012A4FEA075215DC001B61EB06
:1005300002014FF0004202EA0752CDE90042001CDE
:1005400041F5801132462B4600F0D1F903B0BDE8E9
:10055000F08F40462146F9E7001B61EB0201001CC9
:1005600041F5801300185B412018A2F5001747EBF6
:10057000030140EAD570B6196D4111E06D084FEAEC
:10058000360645EAC0754FEA0752001B61EB0201CF
:10059000001C41F5801149084FEA30000019514113
:1005A00032462B4603B0BDE8F04F00F091B90098F9
:1005B000012240000023D0EB020263EBE0730098BD
:1005C00021464FEAE074B8EB000061EB0401E9E773
:1005D00083F000435BE781F0004158E72DE9FE4FCF
:1005E00081EA030404F0004421F0004100944FF03C
:1005F000000B23F0004350EA01045ED052EA0304EA
:100600005BD0C3F30A54C1F30A552C44A4F2F3346B
:100610000194A0FB0254C1F3130141F48011C3F310
:10062000130343F4801301FB024400FB034E840ACE
:10063000970A44EA815447EA8357A4FB0768029566
:100640008D0A05FB07854FEA932C04FB0C54270504
:10065000029D4FEA065847EA1637B5EB08056EEBE0
:10066000070C870E920E47EA811742EA8312A7FB16
:100670000201B6EB0B0164EB00042B0D43EA0C33D3
:100680005E1844EB1C50DA465146E7FB0201C5F305
:1006900013044FEA0B3343EA14534FEA0432019C2C
:1006A00043EA0603A4F10C040294009CCDE900B4D3
:1006B00000F01DF903B0BDE8F08F00200146F9E716
:1006C0002DE9F04D81EA030404F0004B21F00045D0
:1006D00014464FF0000A23F0004150EA050220D0F2
:1006E00054EA01021DD0C5F30A570246C5F31303AD
:1006F000C1F31300C1F30A5640F4801543F480138C
:10070000A7EB0608101BD64608F2FD3873EB050070
:1007100002D308F1010801E092185B41B8F1000F23
:1007200003DA00200146BDE8F08D00204FF480116F
:10073000064684460EE0171B73EB050705D3121B14
:1007400063EB050306434CEA010C49084FEA30000D
:1007500092185B4150EA0107EDD152EA030012D032
:1007600082EA040083EA0501084305D0101BAB416F
:1007700006D20122002306E000224FF0004302E0EF
:100780006FF0010253101AEB06004CEB085110EB0E
:100790000A0041EB0B01BDE8F04D00F099B80000F4
:1007A0002DE9F041054621F000400C46284309D0D0
:1007B000C4F30A5040F23341884205DD2846214601
:1007C000BDE8F0812846FBE740F2FE31884210DCAC
:1007D0000CDB4FEA043040EA155050EA053105D0F1
:1007E000104804F0004101430020E9E700200146E1
:1007F000E6E7A0F233404642C6F1400228462146D1
:10080000FFF7EFFD07468846284621463246FFF7A8
:10081000F7FD43463A4600F05BF83246BDE8F0414A
:10082000FFF7DFBD0000F03FC1F30A52C1F313012F
:1008300040F2FF3341F480119A4202DA002001466F
:10084000704740F233439A42A2F2334202DC5242F2
:10085000FFF7D6BDFFF7C5BD30B5041E71F100042A
:1008600004DB4FF00044404264EB0101141E73F1BD
:10087000000405DB1C464FF00043524263EB0403C7
:10088000994208BF904230BD064C074D06E0E06833
:1008900040F0010394E8070098471034AC42F6D3C7
:1008A000FFF7FEFCB8830008D8830008202A06DB87
:1008B000CB17203A41FA02F043EAE07306E041FA2E
:1008C00002F3D040C2F1200291400843194670471C
:1008D00010B5141E73F1000408DA401C41F1000148
:1008E00092185B411A4301D120F0010010BD2DE99F
:1008F000F04D92469B4611B1B1FA81F202E0B0FA96
:1009000080F220329046FFF76CFD04460F4640EA25
:100910000A0041EA0B0153465A46084313D01146D8
:1009200053EA010019D0C8F140025046FFF768FDB4
:1009300005460E46504659464246FFF752FD0843CB
:1009400005D0012004E020463946BDE8F08D0020A6
:10095000054346EAE0762C4337430A986305E40AE8
:10096000A0EB08000022FD0A44EA47540A3002D5F1
:1009700000200146E9E7010510196941DDE9084554
:1009800000196941BDE8F04DA2E7000030B52DED3A
:10099000108B8DB004460D4694ED090AB0EE40BAB6
:1009A00094ED0C0AF0EE40BA94ED0F0AB0EE40CA96
:1009B00094ED0A0AF0EE40CA94ED0D0AB0EE40DA6A
:1009C00094ED100AF0EE40DA94ED0B0AB0EE40EA36
:1009D00094ED0E0AF0EE40EA94ED110AB0EE40FA02
:1009E00094ED1B0A8DED0C0A94ED1E0AB0EE408AC0
:1009F00094ED1C0A8DED0B0A94ED1F0AF0EE408A6F
:100A000094ED1D0A8DED0A0A94ED200AB0EE409A8D
:100A10009DED0C0A3BEE400A8DED090A3BEEC80A3B
:100A2000F0EE409A9DED0B0A3CEEC00A8DED080AEF
:100A30003DEE680AB0EE40AA9DED0A0A3EEE400A7D
:100A40008DED070A3EEEC90AF0EE40AA864890ED09
:100A5000001A9DED090AF0EE690A41EE000ACDED9B
:100A6000060A90ED001A9DED080AF0EE4A0A41EEE2
:100A7000000ACDED050A90ED001A9DED070AF0EE93
:100A80006A0A41EE000ACDED040A7848D0ED000A6A
:100A90009DED060A06F016FB7548D0ED000A20EE23
:100AA000200A7148D0ED000A00EEA90A30EE0C0AC7
:100AB0007048D0ED000A20EE200A68EE890A6E48E0
:100AC00090ED001A6D48D0ED001A31EE611A00EE7B
:100AD000C10A8DED030A6548D0ED000A9DED050AB7
:100AE00006F0F0FA6648D0ED000A20EE200A5E48D3
:100AF000D0ED000A00EE8A0A30EE2D0A5E48D0EDF5
:100B0000000A20EE200A69EE080A5C4890ED001AFF
:100B10005848D0ED001A31EE611A00EEC10A8DED91
:100B2000020A5248D0ED000A9DED040A06F0CAFA06
:100B30005448D0ED000A20EE200A4B48D0ED000AC0
:100B400000EEAA0A30EE0F0A4C48D0ED000A20EE63
:100B5000200A68EE280A474890ED001A4648D0ED72
:100B6000001A31EE611A00EEC10A8DED010A464805
:100B700090ED000AB9EE001A20EE010A434890ED0C
:100B8000001A20EE010AF0EE400A9DED030A05F07E
:100B9000ABFCF0EE40FA3C4890ED000AB1EE001AD2
:100BA00020EE010A394890ED001A20EE010AF0EE1D
:100BB000400AB0EE6F0A05F09DFC85ED030A32484D
:100BC00090ED000AB9EE001A20EE010A2F4890EDD0
:100BD000001A20EE010AF0EE400A9DED020A05F02F
:100BE00083FCF0EE40FA284890ED000AB1EE001ABE
:100BF00020EE010A254890ED001A20EE010AF0EEE1
:100C0000400AB0EE6F0A05F075FC85ED040A1E4837
:100C100090ED000AB9EE001A20EE010A1B4890ED93
:100C2000001A20EE010AF0EE400A9DED010A05F0DF
:100C30005BFCF0EE40FA144890ED000AB1EE001AA9
:100C400020EE010A114890ED001A20EE010AF0EEA4
:100C5000400AB0EE6F0A05F04DFC85ED050A0DB0B7
:100C6000BDEC108B30BD00003C000024440000248B
:100C70002C0000240C000024100000241400002488
:100C80003000002434000024180000241C0000243C
:100C900000BFFEE710B502F075FE02F025FE034826
:100CA000006840F004000149086010BD9CEF00E0BE
:100CB00000B5D0ED000AB0EE600A00F07FF981EDDA
:100CC000000AD0ED010AB0EE600A00F077F981ED7C
:100CD000010AD0ED020AB0EE600A00F06FF981ED72
:100CE000020AD0ED030AB0EE600A00F067F981ED68
:100CF000030AD0ED040AB0EE600A00F05FF981ED5E
:100D0000040AD0ED050AB0EE600A00F057F981ED53
:100D1000050AD0ED060AB0EE600A00F04FF981ED49
:100D2000060AD0ED070AB0EE600A00F047F981ED3F
:100D3000070AD0ED080AB0EE600A00F03FF981ED35
:100D4000080AD0ED090AB0EE600A00F037F981ED2B
:100D5000090AD0ED0A0AB0EE600A00F02FF981ED21
:100D60000A0AD0ED0B0AB0EE600A00F027F981ED17
:100D70000B0A00BDF0B5CFB004460E46602112A8A4
:100D8000FFF7F2FA302106A8FFF7EEFA002700205D
:100D9000059094ED020AB7EEC00A8DED020B94EDBA
:100DA000010AB7EEC00A8DED000B94ED001AB7EE04
:100DB000C11AB0EE410B53EC102B47A1504804F080
:100DC00077F894ED050AB7EEC00A8DED020B94EDAD
:100DD000040AB7EEC00A8DED000B94ED031AB7EECE
:100DE000C11AB0EE410B53EC102B46A1444804F05D
:100DF0005FF8002019E004EB800191ED000AB7EEE6
:100E0000C00A42A901EBC00181ED000B04F10C0105
:100E100001EB800191ED000AB7EEC00A42AAC11CA5
:100E200002EBC10181ED000B401C0328E3DB3FA175
:100E3000334804F03DF800251BE042A800EBC50054
:100E400090ED000B9FED3F1B80EE012B36A800EBD1
:100E5000C50080ED002B36A800EBC50090ED001B0F
:100E6000B0EE410B53EC102B38A1254804F020F8CC
:100E70006D1C062DE1DB37A1214804F019F82AA9E1
:100E800036A805F09DFF06222AA933A005F06AFFC7
:100E90002AA936A805F066FB074635A1184804F0D4
:100EA00007F812A92AA805F0CDFF3CA1144803F0C9
:100EB000FFFF05AB3A4612A936A805F095F905984B
:100EC00038B106A912A800F0C5F806A9304604F00A
:100ED00093FF4FB0F0BD000050474420696E70751D
:100EE00074205468727573743A205B252E35662C15
:100EF00020252E35662C20252E35665D0D0A000036
:100F00001002002450474420696E70757420546F9D
:100F1000727175653A205B252E35662C20252E359D
:100F2000662C20252E35665D0D0A000050474420B2
:100F3000696E70757420465F6E6F726D3A0D0A5B54
:100F4000000000009A9999999999154020252E330F
:100F5000662000005D0D0A0050726F6A656374655B
:100F6000642054617267657420465F70726F6A0016
:100F70000D0A52756E6E696E672050726F6A6563F6
:100F8000746564204772616469656E74204465739A
:100F900063656E742E2E2E0D0A0000000D0A566534
:100FA00072696679696E672050474420536F6C758B
:100FB00074696F6E2E2E2E0D0A000000F0EE400AAE
:100FC0009FED1A0AF4EEC00AF1EE10FA08D89FED70
:100FD000180A30EEC00ADFED171A80EE211A17E06A
:100FE0009FED150AF4EEC00AF1EE10FA08D89FED55
:100FF000130A30EEC00ADFED121A80EE211A07E064
:101000009FED100A30EEC00ADFED0F1A80EE211AB4
:10101000DFED0E1AB2EE042A00BF82FE010A00BF05
:1010200000BF81FEC02AB0EE420A7047009098458A
:1010300066AE52C5B597CD4300142A4666B689C43C
:10104000CE98954366AE074598DE59430000B442FA
:101050007047000070B52DED028B06460D4600244A
:1010600014E006EBC40090ED000B9FED1E1B80EE1C
:10107000012BB0EE428BB0EE480B04F053F9B7EE03
:10108000C00B05EB840080ED000A641C0C2CE8DB2F
:1010900016A11A4803F00CFF002419E005EB8400A8
:1010A00090ED001AB7EEC11AB0EE410B53EC102BC5
:1010B00013A1124803F0FCFE601C062190FBF1F224
:1010C00001FB120018B910A10C4803F0F1FE641CDA
:1010D0000C2CE3DB0CA1094803F0EAFEBDEC028B0B
:1010E00070BD0000B9CDA696CD27FE3D50474420E7
:1010F000536F6C7574696F6E3A0D0A00100200240C
:101100002531302E346620000D0A000070B50646E9
:101110000D46144629463046FFF72CFE09A10F481C
:1011200003F0C6FE21462846FFF7C2FD0CA10B487E
:1011300003F0BEFE204602F065FC0FA1074803F055
:10114000B7FE70BD43616C63756C61746564204665
:10115000616E2053706565642E0D0A001002002434
:1011600043616C63756C61746564204475747920A7
:10117000526174652E0D0A005365742046616E201D
:1011800050574D2E0D0A000010B504460CB9012031
:1011900010BD94F83500022803D08020606501203E
:1011A000F6E734492068884205D3334920688842ED
:1011B00001D8012000E00020C0B1042084F83500EF
:1011C0002C49206888420AD32B492068884206D8D7
:1011D0002068006820F001002168086048E020686D
:1011E000006820F001002168086041E02068006884
:1011F00020F00E00216808601E49206888420AD34A
:101200001D492068884206D82068006820F0010047
:101210002168086005E02068006820F0010021686E
:101220000860206E006820F48070216E086094F8D9
:101230005C100120884011490860D4E91910486009
:10124000E06E40B1E06E006820F48070E16E0860EE
:10125000D4E91C10486000BF002084F8340000BFAF
:10126000012084F83500206D10B12046216D88479B
:1012700000208DE710000240B804024004540258D8
:101280000348006840F00100014908607047000011
:1012900020040058F8B502460B4600210026002421
:1012A0000020824D00BFFCE0012707FA01F61F680D
:1012B00007EA0604B4427CD15F68022F02D05F685F
:1012C000122F1AD14FEAD10C02F1200757F82C0047
:1012D0004F074FEAD76C0F2707FA0CF7B8434FEACE
:1012E000417C4FEADC6C1F6907FA0CF738434FEA80
:1012F000D10C02F1200747F82C0010684FEA410C8E
:10130000032707FA0CF7B8431F7907F003074FEAE2
:10131000410C07FA0CF7384310605F68012F08D0C2
:101320005F68022F05D05F68112F02D05F68122F0F
:1013300017D190684FEA410C032707FA0CF7B8431E
:101340004FEA410CDF6807FA0CF7384390605068A9
:1013500001278F40B8431F79C7F300178F403843E8
:101360005060D0684FEA410C032707FA0CF7B843E6
:101370004FEA410C9F6807FA0CF73843D0605F686A
:1013800007F08057B7F1805F95D100BF484F3F68A5
:1013900047F00207DFF818C1CCF8007067463F68D5
:1013A00007F00207009700BF00BF424F4FEA910CC1
:1013B00000E075E057F82C008F074FEA177C0F27E5
:1013C00007FA0CF7B8433C4FBA4201D100272DE091
:1013D0003A4FBA4201D1012728E0394FBA4201D130
:1013E000022723E0374FBA4201D103271EE0364FD0
:1013F000BA4201D1042719E0344FBA4201D105277E
:1014000014E0334FBA4201D106270FE0314FBA4200
:1014100001D107270AE0304FBA4201D1082705E081
:101420002E4FBA4201D1092700E00A274FEA817CFA
:101430004FEA1C7C07FA0CF738431E4F4FEA910C19
:1014400047F82C002868A0435F6807F48037B7F599
:10145000803F00D1204328606868A0435F6807F49C
:101460000037B7F5003F00D1204368604FF0B04728
:101470003868A0435F6807F48017B7F5801F00D174
:1014800020434FF0B04738607868A0435F6807F4A6
:101490000017B7F5001F00D120434FF0B047786028
:1014A000491C1029FFF400AFF8BD0000800000586F
:1014B000F44402580804005800000258000402587E
:1014C00000080258000C025800100258001402587C
:1014D00000180258001C025800200258002402582C
:1014E0000148006870470000940000240348006829
:1014F00003490978084401490860704794000024B2
:101500009C00002410B5032000F07EF80F2000F0AE
:1015100007F808B1012010BD00F028F80020FAE714
:1015200070B504460E4800784FF47A71B1FBF0F0C4
:101530000C490968B1FBF0F5284601F0DFF808B165
:10154000012070BD102C07D200222146501E00F051
:101550001EF80548046001E00120F2E70020F0E7F2
:101560009C000024000000249800002470470146DD
:101570000846002809DB00F01F0301229A404309B6
:101580009B0003F1E023C3F8002100BF70472DE961
:10159000F05F80460D46164603F0E4FC07463946E8
:1015A0002A46334601F00700C0F1070ABAF1040FDA
:1015B00002D94FF0040A01E0C0F1070AD14600F158
:1015C000040ABAF1070F02D24FF0000A01E0A0F1BD
:1015D000030AD4464FF0010A0AFA09FAAAF1010AED
:1015E0000AEA020A0AFA0CFA4FF0010B0BFA0CFB9A
:1015F000ABF1010B0BEA030B4AEA0B042146404610
:1016000003F0B8FCBDE8F09F00BF00F00702064BF6
:1016100019684FF6FF031940044B0B4343EA0221BC
:10162000014B196000BF70470CED00E00000FA05A7
:1016300010B500F0CBFB0949096801F470614FF463
:10164000807292FAA2F2B2FA82F2D140044A515C5C
:10165000C840044908600846006810BD1844025894
:10166000F87900080000002410B500F067FB074976
:10167000096801F07001102292FAA2F2B2FA82F225
:10168000D140034A515CC84010BD000020440258BC
:10169000F879000870B501460022012000230024DB
:1016A0009FED811AB0EE410A9FED7F1AF0EE410ADC
:1016B0007E4D2D6805F003027C4D2D68C5F3053085
:1016C0007A4D2D1D2D6805F01003784D14352D68C9
:1016D000C5F3CC0515FB03F501EE105AB8EE411A1F
:1016E000B0EE410A22B1012A4DD0022A7DD169E033
:1016F0006E4D283D2D68C5F340152DB36B4D283D2B
:101700002D68C5F3C1066A4D25FA06F4B4FBF0F561
:1017100001EE105AF8EE411A9FED661A80EE012A8A
:10172000624D10352D68C5F3080501EE105AB8EE6C
:10173000411A32EE011AB7EE002A31EE021A21EEFA
:10174000811AF0EE410A1DE0594DB5FBF0F501EEAE
:10175000105AF8EE411A9FED571A80EE012A534DA8
:1017600010352D68C5F3080501EE105AB8EE411A80
:1017700032EE011AB7EE002A31EE021A21EE811A7A
:10178000F0EE410A5EE04C4DB5FBF0F501EE105A6B
:10179000B8EE412A9FED471AC0EE011A434D1035AD
:1017A0002D68C5F3080501EE105AB8EE411A31EE66
:1017B000811AF7EE001A31EE211A22EE011AF0EE2C
:1017C000410A3FE03D4DB5FBF0F501EE105AF8EE51
:1017D000411A9FED381A80EE012A344D10352D68DC
:1017E000C5F3080501EE105A00E00CE0B8EE411A0E
:1017F00032EE011AB7EE002A31EE021A21EE811AFA
:10180000F0EE410A1EE02C4DB5FBF0F501EE105A4A
:10181000B8EE412A9FED271AC0EE011A234D10356C
:101820002D68C5F3080501EE105AB8EE411A31EEE5
:10183000811AF7EE001A31EE211A22EE011AF0EEAB
:10184000410A00BF00BF194D10352D68C5F346256C
:101850006D1C01EE105AB8EE411AC0EE811ABCEEB2
:10186000E11A81ED001A114D10352D68C5F30645BA
:101870006D1C01EE105AB8EE411AC0EE811ABCEE92
:10188000E11A81ED011A094D10352D68C5F3066581
:101890006D1C01EE105AB8EE411AC0EE811ABCEE72
:1018A000E11A81ED021A70BD0000000028440258C0
:1018B0000090D0030000004600093D0040787D0103
:1018C00070B5014600220120002300249FED811AFB
:1018D000B0EE410A9FED7F1AF0EE410A7E4D2D6871
:1018E00005F003027C4D2D68C5F305507A4D2D1D82
:1018F0002D6805F48073784D1C352D68C5F3CC0533
:1019000015FB03F501EE105AB8EE411AB0EE410A8C
:1019100022B1012A4DD0022A7DD169E06E4D283DC9
:101920002D68C5F340152DB36B4D283D2D68C5F3CB
:10193000C1066A4D25FA06F4B4FBF0F501EE105A23
:10194000F8EE411A9FED661A80EE012A624D1835B5
:101950002D68C5F3080501EE105AB8EE411A32EEB3
:10196000011AB7EE002A31EE021A21EE811AF0EECA
:10197000410A1DE0594DB5FBF0F501EE105AF8EEA5
:10198000411A9FED571A80EE012A534D18352D68E4
:10199000C5F3080501EE105AB8EE411A32EE011AED
:1019A000B7EE002A31EE021A21EE811AF0EE410A5A
:1019B0005EE04C4DB5FBF0F501EE105AB8EE412A51
:1019C0009FED471AC0EE011A434D18352D68C5F337
:1019D000080501EE105AB8EE411A31EE811AF7EE01
:1019E000001A31EE211A22EE011AF0EE410A3FE010
:1019F0003D4DB5FBF0F501EE105AF8EE411A9FEDA2
:101A0000381A80EE012A344D18352D68C5F30805C3
:101A100001EE105A00E00CE0B8EE411A32EE011A65
:101A2000B7EE002A31EE021A21EE811AF0EE410AD9
:101A30001EE02C4DB5FBF0F501EE105AB8EE412A30
:101A40009FED271AC0EE011A234D18352D68C5F3F6
:101A5000080501EE105AB8EE411A31EE811AF7EE80
:101A6000001A31EE211A22EE011AF0EE410A00BFEF
:101A700000BF194D18352D68C5F346256D1C01EEC4
:101A8000105AB8EE411AC0EE811ABCEEE11A81ED8F
:101A9000001A114D18352D68C5F306456D1C01EE71
:101AA000105AB8EE411AC0EE811ABCEEE11A81ED6F
:101AB000011A094D18352D68C5F306656D1C01EE38
:101AC000105AB8EE411AC0EE811ABCEEE11A81ED4F
:101AD000021A70BD00000000284402580090D00394
:101AE0000000004600093D0040787D0170B50446C5
:101AF0000D4600268D48006800F00700A8420ED26F
:101B00008A48006820F00700284388490860084692
:101B1000006800F00700A84201D0012070BD2078C5
:101B200000F00200022807D18148006820F00F0071
:101B3000E16808437E490860207800F00100002831
:101B400051D07B48006820F47060A1680843784950
:101B500008606068022807D1754818380068C0F32B
:101B60004040F8B90120D9E76068032807D17048E0
:101B700018380068C0F34060A0B90120CEE7606863
:101B8000012807D16A4818380068C0F3002048B916
:101B90000120C3E7664818380068C0F3800008B920
:101BA0000120BBE762480838006820F00700616840
:101BB00008435F4908390860FFF792FC06466068F1
:101BC000022811D108E0FFF78BFC801B41F288311D
:101BD000884201D90320A1E755480838006800F081
:101BE00038001028EFD13AE06068032811D108E0EE
:101BF000FFF776FC801B41F28831884201D903202F
:101C00008CE74B480838006800F038001828EFD1FE
:101C100025E06068012811D108E0FFF761FC801B16
:101C200041F28831884201D9032077E740480838DB
:101C3000006800F038000828EFD110E008E0FFF756
:101C40004FFC801B41F28831884201D9032065E7AF
:101C500037480838006800F038000028EFD13348D2
:101C6000006800F00700A8420ED93048006820F054
:101C7000070028432D4908600846006800F0070067
:101C8000A84201D0012049E7207800F00400042890
:101C900007D12748006820F07000216908432449D3
:101CA0000860207800F00800082809D12048001DAD
:101CB000006820F07000616908431D49091D086033
:101CC000207800F01000102809D11948001D006884
:101CD00020F4E060A16908431549091D08602078D7
:101CE00000F02000202809D111480830006820F0B9
:101CF0007000E16908430E490831086000F066F899
:101D00000B49096801F470614FF4807292FAA2F2F3
:101D1000B2FA82F2D140074A515CC84006490860D5
:101D20000F20FFF7FDFB0020F8E600000020005226
:101D300018440258F87900080000002410B5FFF795
:101D400077FC0949096801F00F01012292FAA2F219
:101D5000B2FA82F2D140054A515CC8400449086099
:101D60000846006810BD000018440258F8790008C1
:101D70000400002410B5FFF7E1FF0749096801F0EE
:101D80007001102292FAA2F2B2FA82F2D140034A12
:101D9000515CC84010BD00001C440258F87900088E
:101DA00010B5FFF7CBFF0749096801F4E0614FF474
:101DB000807292FAA2F2B2FA82F2D140024A515CE7
:101DC000C84010BD1C440258F879000870B50125C0
:101DD00000EE905A0022012100230024DFED861A34
:101DE000B0EE610ADFED841AB0EE611A0020834D77
:101DF0002D6805F0380535B1082D15D0102D15D0FA
:101E0000182D7CD114E07D4D103D2D68C5F3401593
:101E100045B17A4D103D2D68C5F3C106784D25FAC0
:101E200006F000E07648E5E07648E3E07648E1E059
:101E3000724D18352D6805F00302704D18352D6868
:101E4000C5F305116D4D1C352D6805F001036B4D73
:101E500024352D68C5F3CC0515FB03F501EE905A2A
:101E6000F8EE611AB0EE610A22B1012A4FD0022ABF
:101E70007DD16BE0614D103D2D68C5F340152DB34C
:101E80005E4D103D2D68C5F3C1065D4D25FA06F483
:101E9000B4FBF1F501EE905AB8EE612ADFED5B1A62
:101EA000C0EE212A554D20352D68C5F3080501EEF9
:101EB000905AF8EE611A72EEA11AF7EE002A71EE4E
:101EC000A21A62EE211AB0EE611A1FE04C4DB5FB6A
:101ED000F1F501EE905AB8EE612ADFED4C1AC0EE32
:101EE000212A464D20352D68C5F3080501EE905A8C
:101EF000F8EE611A72EEA11AF7EE002A00E077E020
:101F000071EEA21A62EE211AB0EE611A5EE03D4D4A
:101F1000B5FBF1F501EE905AB8EE612ADFED3B1A00
:101F2000C0EE212A354D20352D68C5F3080501EE98
:101F3000905AF8EE611A72EEA11AF7EE002A71EECD
:101F4000A21A62EE211AB0EE611A3FE02E4DB5FBE7
:101F5000F1F501EE905AB8EE612ADFED2C1AC0EED1
:101F6000212A264D20352D68C5F3080500E00EE036
:101F700001EE905AF8EE611A72EEA11AF7EE002AFD
:101F800071EEA21A62EE211AB0EE611A1EE01D4D2A
:101F9000B5FBF1F501EE905AF8EE612ADFED1B1A60
:101FA00080EE212A154D20352D68C5F3080501EE78
:101FB000905AF8EE611A72EE211AB7EE002A71EE0D
:101FC000821A62EEA11AB0EE611A00BF00BF0B4D7B
:101FD00020352D68C5F346256D1C00EE905AF8EEAD
:101FE000601A81EE212AFCEEC21A11EE900A01E07D
:101FF000044800BF00BF70BD00000000104402583C
:102000000090D00300093D0040787D0100000046AB
:1020100070B504460025207800F00100002872D039
:10202000F948006800F0380010280CD0F648006825
:1020300000F03800182812D1F3481830006800F07A
:10204000030002280BD1F04810380068C0F340406C
:1020500000286DD0606800286AD1012070BD00BFE3
:102060006068B0F5803F08D1E7481038006840F458
:102070008030E549103908602EE0606868B9E248B0
:102080001038006820F48030DF49103908600846B5
:10209000006820F4802008601EE06068B0F5A02F82
:1020A0000DD1D9481038006840F48020D649103945
:1020B00008600846006840F4803008600CE0D248B0
:1020C0001038006820F48030CF4910390860084685
:1020D000006820F48020086000BF6068A0B1FFF7AE
:1020E000FFF9054608E0FFF7FBF9401B41F2883194
:1020F000884201D90320B1E7C34810380068C0F313
:1021000040400028EFD013E0FFF7EAF9054608E069
:10211000FFF7E6F9401B41F28831884201D90320DC
:102120009CE7B94810380068C0F340400028EFD160
:10213000207800F00200022847D1B348006800F080
:10214000380058B1B048006800F0380018283ED177
:10215000AD481830006800F00300B8BBAA4810383A
:102160000068C0F3800018B1E06808B9012075E785
:10217000A5481038006820F01900E1680843A2491A
:1021800010390860FFF7ACF9054606E0FFF7A8F93B
:10219000401B022801D9032060E79B4810380068E3
:1021A000C0F380000028F1D097480C38006820F474
:1021B0007C304FF47C3292FAA2F2B2FA82F22169B8
:1021C0009140084390490C3908604AE0FFE7E06815
:1021D00068B38D481038006820F01900E1680843A2
:1021E000894910390860FFF77BF9054606E0FFF7DB
:1021F00077F9401B022801D903202FE782481038C5
:102200000068C0F380000028F1D07F480C380068D7
:1022100020F47C304FF47C3292FAA2F2B2FA82F2CD
:1022200021699140084378490C39086019E07648E3
:102230001038006820F00100734910390860FFF77A
:102240004FF9054606E0FFF74BF9401B022801D97C
:10225000032003E76C4810380068C0F380000028B2
:10226000F1D1207800F01000102877D1664800687E
:1022700000F0380008280CD06348006800F03800EF
:10228000182823D160481830006800F003000128A6
:102290001CD15D4810380068C0F3002020B1E0690F
:1022A000802801D00120D9E657480C38006820F07A
:1022B000F8404FF0F84292FAA2F2B2FA82F2216AA2
:1022C0009140084350490C39086047E0E06958B331
:1022D0004D481038006840F080004B4910390860C4
:1022E000FFF7FEF8054606E0FFF7FAF8401B022864
:1022F00001D90320B2E6444810380068C0F300203A
:102300000028F1D040480C38006820F0F8404FF029
:10231000F84292FAA2F2B2FA82F2216A914008439C
:1023200039490C39086019E037481038006820F046
:102330008000354910390860FFF7D2F8054606E0FD
:10234000FFF7CEF8401B022801D9032086E62E486D
:1023500010380068C0F300200028F1D1207800F088
:102360000800082836D16069D0B127486430006879
:1023700040F00100244964310860FFF7B1F80546D8
:1023800006E0FFF7ADF8401B022801D9032065E6FF
:102390001D4864300068C0F340000028F1D019E007
:1023A00019486430006820F0010017496431086062
:1023B000FFF796F8054606E0FFF792F8401B022863
:1023C00001D903204AE6104864300068C0F3400099
:1023D0000028F1D1207800F02000202834D1A06915
:1023E000D8B109481038006840F4805006491039C7
:1023F0000860FFF775F8054608E0FFF771F8401B25
:10240000022803D9032029E610440258AF48006887
:10241000C0F340300028F0D016E0AC48006820F44B
:102420008050AA490860FFF75BF8054606E0FFF711
:1024300057F8401B022801D903200FE6A348006883
:10244000C0F340300028F2D1207800F004000428C6
:102450007DD19F48006840F480709D490860FFF777
:102460003FF8054606E0FFF73BF8401B642801D91A
:102470000320F3E59648006800F480700028F2D04D
:1024800000BFA068012808D190487030006840F073
:1024900001008E49703108602DE0A06868B98B4852
:1024A0007030006820F001008849703108600846EB
:1024B000006820F0040008601DE0A06805280DD128
:1024C00082487030006840F0040080497031086034
:1024D0000846006840F0010008600CE07B4870305E
:1024E000006820F0010079497031086008460068F2
:1024F00020F00400086000BFA068A0B1FEF7F0FF64
:10250000054608E0FEF7ECFF401B41F288318842A7
:1025100001D90320A2E56D4870300068C0F3400087
:102520000028EFD013E0FEF7DBFF054608E0FEF7DA
:10253000D7FF401B41F28831884201D903208DE545
:10254000624870300068C0F340000028EFD1606A34
:1025500000287CD05D481030006800F03800182852
:1025600076D0606A022874D15848006820F08070E4
:1025700056490860FEF7B4FF054606E0FEF7B0FFD7
:10258000401B022801D9032068E550480068C0F3C9
:1025900040600028F2D100BFD4E90A1041EA0010DF
:1025A0004A492831096840F2F332914308434749C8
:1025B00028310860208E401EC0F30800616B491E60
:1025C0004FF47E4202EA41210843218F491ED20185
:1025D00002EA014108433C21095D491E120202EA58
:1025E0000161084339493031086000BF081D0068A7
:1025F0004FF6F87188434FF6F87292FAA2F2B2FAE7
:1026000082F2A16C914008433049343108602F4870
:102610002C30006820F00C00216C08432B492C3131
:1026200008600846006820F00200616C08432749F2
:102630002C3108600846006840F480300860084685
:10264000006840F4003008600846006802E03BE0A3
:1026500038E01FE040F4802008600846006840F041
:10266000010008601948006840F080701749086050
:10267000FEF736FF054606E0FEF732FF401B022854
:1026800001D90320EAE411480068C0F34060002843
:10269000F2D019E00D48006820F080700B49086006
:1026A000FEF71EFF054606E0FEF71AFF401B022854
:1026B00001D90320D2E405480068C0F34060002837
:1026C000F2D101E00120C9E40020C7E4004402582F
:1026D00000480258042808D14FF0E021096941F070
:1026E00004014FF0E022116107E04FF0E021096999
:1026F00021F004014FF0E0221161704770B50446EB
:102700002546681EB0F1807F01D301200FE0681ECE
:102710004FF0E02148610F214FF0FF3002F02AFC1A
:1027200000204FF0E021886107200861002070BD83
:1027300070477047704710B5044620680069C0F3C1
:102740004000D8B12068C068C0F34000B0B16FF05D
:10275000020021680861012020772068806900F06C
:10276000030018B12046FFF7E5FF05E0204600F022
:10277000BEF8204600F080FA00202077206800692B
:10278000C0F38000D8B12068C068C0F38000B0B149
:102790006FF00400216808610220207720688069BA
:1027A00000F4407018B12046FFF7C4FF05E0204652
:1027B00000F09DF8204600F05FFA002020772068A6
:1027C0000069C0F3C000D8B12068C068C0F3C00081
:1027D000B0B16FF0080021680861042020772068FC
:1027E000C06900F0030018B12046FFF7A3FF05E021
:1027F000204600F07CF8204600F03EFA00202077CA
:1028000020680069C0F30010D8B12068C068C0F328
:102810000010B0B16FF01000216808610820207727
:102820002068C06900F4407018B12046FFF782FFAD
:1028300005E0204600F05BF8204600F01DFA00207D
:1028400020772068006900F0010058B12068C06856
:1028500000F0010030B16FF00100216808612046EE
:1028600000F044FA20680069C0F3C01058B1206835
:10287000C068C0F3C01030B16FF0800021680861FB
:102880002046FFF755FF20680069C0F3002058B1CB
:102890002068C068C0F3C01030B16FF080002168BC
:1028A00008612046FFF744FF20680069C0F38010EC
:1028B00058B12068C068C0F3801030B16FF040009C
:1028C00021680861204600F033FA20680069C0F3EF
:1028D000401058B12068C068C0F3401030B16FF0AC
:1028E0002000216808612046FFF723FF10BD7047D4
:1028F00070B504460D46164600BF94F83C0001280A
:1029000001D1022070BD012084F83C0000BF0220EC
:1029100084F83D000C2E51D005DC4EB1042E1ED0A3
:10292000082E7AD133E0102E60D0142EF9D175E044
:102930002946206801F018FA2068806940F00800F4
:10294000216888612068806920F00400216888611E
:1029500020688069296908432168886177E02946F1
:10296000206801F059FA2068806940F4006021680D
:1029700088612068806920F480602168886120680F
:102980008069296940EA0120216888615FE0294661
:10299000206801F09FFA2068C06940F008002168B3
:1029A000C8612068C06920F004002168C8612068FF
:1029B000C069296908432168C86148E02946206840
:1029C00001F0E2FA2068C06940F400602168C86143
:1029D0002068C06920F480602168C8612068C069EF
:1029E000296940EA01202168C86130E02946206851
:1029F00001F006FB2068406D40F008002168486542
:102A00002068406D20F00400216848652068406D12
:102A1000296908432168486519E017E029462068BC
:102A200001F026FB2068406D40F400602168486595
:102A30002068406D20F48060216848652068406D02
:102A4000296940EA01202168486500E000BF00BF15
:102A5000012084F83D0000BF002084F83C0000BF46
:102A600000BF4FE710B504460CB9012010BD94F823
:102A70003D0028B9002084F83C00204600F00CF806
:102A8000022084F83D00211D206801F0F9F80120A2
:102A900084F83D000020E9E710B586B004466D4992
:102AA000206888423FD100BF6B48006840F00200B8
:102AB000694908600846006800F00200009000BF05
:102AC00000BF00BF64480838006840F00100624958
:102AD000083908600846006800F00100009000BF57
:102AE00000BF00BF0846006840F0020008600846CA
:102AF000006800F00200009000BF00BFC0200190FD
:102B000002200290012003900320049002200590EF
:102B100001A95248FEF7BEFB0320019001A95048CD
:102B2000FEF7B8FB94E04F49206888422DD100BFE2
:102B30004948006840F004004749086008460068BA
:102B400000F00400009000BF00BF00BF42480838FA
:102B5000006840F0020040490839086008460068F3
:102B600000F00200009000BF00BF4FF460700190C1
:102B7000022002900120039003200490022005907F
:102B800001A93748FEF786FB62E037492068884292
:102B90002DD100BF3048006840F008002E49086081
:102BA0000846006800F00800009000BF00BF00BFAA
:102BB00029480838006840F0800027490839086033
:102BC0000846006800F08000009000BF00BF4FF48E
:102BD00040600190022002900120039003200490A5
:102BE0000220059001A92148FEF754FB30E020495E
:102BF000206888422CD100BF17480830006840F098
:102C000002001549083108600846006800F002001B
:102C1000009000BF00BF00BF0F480838006840F4B4
:102C200080700D49083908600846006800F480701B
:102C3000009000BF00BFE020019002200290012020
:102C4000039003200490059001A90A48FEF722FB97
:102C500006B010BD00040040E844025800000258CD
:102C60000004025800080040000C0040001C0258FC
:102C700000040140002002587047000030B50446AF
:102C80000D4601222946206801F060F812492068AB
:102C900088420FD01149206888420BD01049206823
:102CA000884207D00F492068884203D00E49206827
:102CB000884201D1012000E0002028B12068406C4A
:102CC00040F40040216848642068008840F001001A
:102CD00021680880002030BD000001400004014050
:102CE00000400140004401400048014010B5044646
:102CF000094884420FD10120084908700849094851
:102D000000F064FC06490748FDF740FE064A074903
:102D10000348FEF7FBF910BD100400249E000024B8
:102D2000D4010024B4000024F0050024C0050024D0
:102D300070477047704700002DE9F0410446206855
:102D4000C569206807682068866805F00F08B8F133
:102D5000000F0DD105F0200050B107F0200010B990
:102D600006F0805020B1204601F003FBBDE8F08161
:102D7000B8F1000F72D05D48304018B907F4907078
:102D800000287AD005F0010048B107F4807030B116
:102D9000012021680862E06F40F00100E06705F063
:102DA000020048B106F0010030B10220216808623B
:102DB000E06F40F00400E06705F0040048B106F061
:102DC000010030B1042021680862E06F40F0020089
:102DD000E06705F0080078B107F0200028B906F098
:102DE000805010B906F0010030B108202168086257
:102DF000E06F40F00800E067E06F70B305F020007E
:102E000040B107F0200010B906F0805010B1204604
:102E100001F0AFFAE06F00F0080020B92068806888
:102E200000F0400018B3204601F083FA2068806863
:102E300000F04000B8B12068806820F040002168B0
:102E40008860606F58B12A48616F0865606FFEF74F
:102E50009BF910B1606F016D88470DE00DE02046D1
:102E6000FFF768FF08E02046FFF764FF04E0204614
:102E7000FFF760FF0020E06778E705F4801078B185
:102E800006F4800060B14FF48010216808622020B1
:102E900084F8790084F87A002046FFF74AFF65E756
:102EA00005F0800048B107F0800010B906F400007A
:102EB00018B1204601F074FF58E705F0400030B12A
:102EC00007F0400018B1204601F043FA4EE705F440
:102ED000000040B107F0804028B12068006820F071
:102EE00080402168086000BF40E70000010000103A
:102EF0001B43000810B504460CB9012010BDA069A1
:102F000000B100E000BF94F8790028B9002084F8EF
:102F10007800204600F02AF8242084F87900206800
:102F2000006820F0010021680860204601F066FA80
:102F3000012800D1E2E7606B10B1204601F03EF9B4
:102F40002068406820F490402168486020688068CC
:102F500020F02A00216888602068006840F00100A5
:102F600021680860204601F09EF9C7E710B586B0D9
:102F700004464049206888423CD100BF3E48006872
:102F800040F001003C4908600846006800F001007C
:102F9000009000BF00BF00BF37481030006840F00D
:102FA00010003549103108600846006800F0100034
:102FB000009000BF00BF4FF400700190022002900B
:102FC00001200390022004900720059001A92B48BE
:102FD000FEF760F94FF48060019001A92748FEF7E1
:102FE00059F92520FEF7C3FA012200212520FEF71A
:102FF000CEFA3DE022492068884239D100BF1E4800
:10300000006840F001001C4908600846006800F0B4
:103010000100009000BF00BF00BF174808300068E3
:1030200040F400301449083108600846006800F494
:103030000030009000BF00BF0420019002200290E9
:1030400001200390022004900720059001A90B485D
:10305000FEF720F90820019001A90848FEF71AF9A7
:103060002620FEF784FA012200212620FEF78FFA9F
:1030700006B010BD00100140E044025800000258A4
:103080000044004010B5034693F87A00202867D129
:1030900001B10AB9012010BD00BF93F878000128E2
:1030A00001D10220F7E7012083F8780000BF5966BC
:1030B000A3F86820A3F86A2000BF9868B0F5805F85
:1030C0000AD1186920B940F2FF10A3F86C001CE087
:1030D000FF20A3F86C0018E0986848B9186918B97F
:1030E000FF20A3F86C0010E07F20A3F86C000CE038
:1030F0009868B0F1805F08D1186918B97F20A3F8EB
:103100006C0002E03F20A3F86C0000BF0020D867ED
:10311000222083F87A0000BF002083F8780000BFE7
:103120001868806840F001001C68A060186800689A
:1031300000F0005060B11868006840F480701C68AE
:1031400020601868806840F080501C68A06005E02E
:103150001868006840F490701C68206000209AE7AE
:10316000022098E710B50446334920680968884270
:1031700060D13248008800F40040002855D12F4823
:10318000008800F4804050B32D480078DD2808D036
:103190002C480068401C2B49086000202749088003
:1031A00043E02648008840F400402449088026492E
:1031B000264803F0EDFA2649244800F007FA24498E
:1031C0002248FDF7E3FB234A23492148FDF79EFFF0
:1031D000194803F08FFF00201849088025E018489F
:1031E0000078CC2806D11548008840F48040134967
:1031F00008801AE01148008880280ADA104801780F
:103200000E4802880088401C0C4B188013488154DB
:103210000BE013A1084801F04BFE0A480068401C6F
:103220000849086000200549088001220449024835
:10323000FFF728FF10BD00001002002452000024F8
:10324000550000245800002444010024B400002448
:10325000D4010024F0050024C005002490030024BC
:10326000427566666572206F766572666C6F772C44
:1032700020726573657474696E672E0D0A00000014
:103280002DE9F84304460D4616461F464FF0000947
:1032900094F87900202854D105B116B90120BDE871
:1032A000F88300BF94F87800012801D10220F6E7E6
:1032B000012084F8780000BF00206034E061212004
:1032C0006076FEF70DF9814626806680603C21E03D
:1032D000B4F86200401EA4F862004B460022802130
:1032E0002046009701F09DFD08B10320D7E7A068B4
:1032F000B0F5805F0AD1206940B9A846B8F800004F
:10330000C0F3080021680885AD1C03E015F8010B27
:1033100021680885B4F862000028D9D14B46002204
:1033200040212046009701F07CFD08B10320B6E75C
:10333000202084F8790000BF002084F8780000BFC6
:10334000ADE70220ABE7704700BFFEE79FED280A1C
:10335000284880ED000A9FED280A284880ED000AE1
:103360009FED270A274880ED000A9FED270A27488E
:1033700080ED000A9FED260A264880ED000A9FEDA9
:10338000260A264880ED000AB7EE080A244880ED98
:10339000000A9FED240A244880ED000AB7EE000AD7
:1033A000224880ED000AB1EE040A214880ED000AAF
:1033B000B1EE040A1F4880ED000AB1EE040A1E486F
:1033C00080ED000AB1EE040A1C4880ED000AB2EE5E
:1033D000040A1B4880ED000AB6EE000A194880ED89
:1033E000000AB7EE000A184880ED000A7047000096
:1033F00052B80E400800002490A4243C0C00002485
:10340000F123233C10000024E931253C1400002462
:10341000CDCC2C40180000249A99993D1C00002422
:10342000200000246666663F240000242800002453
:103430002C00002430000024340000243800002434
:103440003C000024400000244400002470B50546E0
:103450000C4690212846FCF787FF18212046FCF7F0
:1034600083FF034A03490448FDF750FE70BD000086
:10347000F0050024C0050024D401002400BFFEE7AD
:103480007047000010B54448444908604449434827
:1034900000F064FE002242494048FFF729FA042266
:1034A0003F493E48FFF724FA08223D493B48FFF7D1
:1034B0001FFA0C223A493948FFF71AFA0021374817
:1034C000FFF7DCFB04213548FFF7D8FB0821334820
:1034D000FFF7D4FB0C213148FFF7D0FB31483249CC
:1034E00008603249304800F039FE04222F492E4846
:1034F000FFF7FEF908222D492B48FFF7F9F90C22B6
:103500002A492948FFF7F4F904212748FFF7B6FBB9
:1035100008212548FFF7B2FB0C212348FFF7AEFB3B
:103520002348244908602449224800F017FE00225D
:1035300021492048FFF7DCF904221F491D48FFF705
:10354000D7F900211B48FFF799FB04211948FFF721
:1035500095FB1A481A4908601A49194800F0FEFDFF
:10356000002218491648FFF7C3F9042215491448E8
:10357000FFF7BEF9082213491148FFF7B9F90021F6
:103580000F48FFF77BFB04210D48FFF777FB08216D
:103590000B48FFF773FB10BD0004004050040024EB
:1035A0005005002400080040900400246C0500240D
:1035B000000C0040D00400248805002400040140D1
:1035C00010050024A40500247047000030B52DED3F
:1035D000108B93B004460D4694ED000AB0EE40BA4D
:1035E00094ED030AF0EE40BA94ED060AB0EE40CA3C
:1035F00094ED010AF0EE40CA94ED040AB0EE40DA10
:1036000094ED070AF0EE40DA94ED020AB0EE40EADB
:1036100094ED050AF0EE40EA94ED080AB0EE40FAA7
:1036200094ED120A8DED120A94ED150A8DED110A32
:1036300094ED130A8DED100A94ED160A8DED0F0A24
:1036400094ED140A8DED0E0A94ED170A8DED0D0A16
:1036500094ED1B0A8DED0C0A94ED1C0A8DED0B0AFE
:1036600094ED1D0A8DED0A0A9DED120A3BEE400A0B
:103670008DED090A9DED110A3BEEC00AF0EE409A6D
:103680009DED100A3CEEC00A8DED080A9DED0F0A73
:103690003DEE400AB0EE40AA9DED0E0A3EEE400A15
:1036A0008DED070A9DED0D0A3EEEC00AF0EE40AA30
:1036B000854890ED001A9DED090AF0EE690A41EE89
:1036C000000ACDED060A90ED001A9DED080AF0EE15
:1036D0004A0A41EE000ACDED050A90ED001A9DED73
:1036E000070AF0EE6A0A41EE000ACDED040A9DEDEC
:1036F0000A1ADDED0B0A9DED0C0A04F0F9F8734887
:10370000D0ED000A9DED060A03F0DCFCF0EE400A65
:10371000B0EE4C0A6C4890ED001A01EE290A6C4894
:1037200090ED001A01EE200AB0EE408A6748D0ED15
:10373000000A9DED050A03F0C5FCF0EE400AB0EE6C
:103740006D0A614890ED001A01EE0A0A614890ED99
:10375000001A01EE200AF0EE408A5C48D0ED000A23
:103760009DED040A03F0AEFCF0EE400AB0EE4F0A05
:10377000554890ED001A01EE2A0A574890ED001ABC
:1037800001EE200AB0EE409A544890ED000A20EE77
:10379000080AD0ED030A00EEA80AD0ED060A00EEF2
:1037A000890A4F48D0ED000A20EE200A8DED010A6B
:1037B0004A4890ED010A20EE080AD0ED040A00EE16
:1037C000A80AD0ED070A00EE890A4548D0ED000AA4
:1037D00020EE200A8DED020A404890ED020A20EE0C
:1037E000080AD0ED050A00EEA80AD0ED080A00EE9E
:1037F000890A3B48D0ED000A20EE200A8DED030A2D
:10380000384890ED001AF8EE001A21EE211AF0EE79
:10381000410A9DED011AB0EE410A02F065FEF0EE9C
:1038200040FA304890ED000AB0EE001A20EE010A8E
:10383000F0EE400AB0EE6F0A02F05CFE85ED000A81
:10384000284890ED001AF8EE001A21EE211AF0EE49
:10385000410A9DED021AB0EE410A02F045FEF0EE7B
:1038600040FA204890ED000AB0EE001A20EE010A5E
:10387000F0EE400AB0EE6F0A02F03CFE85ED010A60
:10388000184890ED001AF8EE001A21EE211AF0EE19
:10389000410A9DED031AB0EE410A02F025FEF0EE5A
:1038A00040FA104890ED000AB0EE001A20EE010A2E
:1038B000F0EE400AB0EE6F0A02F01CFE85ED020A3F
:1038C00013B0BDEC108B30BD380000244000002444
:1038D000200000242400002428000024EC010024FF
:1038E000080000241800002410B50023234C236096
:1038F00000BF00BF00BFBFF34F8F00BF00BF00BFBE
:10390000231F1868C0F34E3100BFC0F3C90200BFC7
:1039100043F6E07303EA41134FF0404404EA827433
:103920002343174C236000BF00BF131EA2F1010206
:10393000EED10B1EA1F10101E7D100BF00BF00BF16
:10394000BFF34F8F00BF00BF00BF0C4B703B1B6825
:1039500043F48033094C703C236000BF00BF00BFBC
:10396000BFF34F8F00BF00BF00BF00BF00BF00BF4D
:10397000BFF36F8F00BF00BF00BF10BD84ED00E03C
:1039800060EF00E000BF00BF00BFBFF34F8F00BF7C
:1039900000BF00BF00BF00BF00BFBFF36F8F00BFFD
:1039A00000BF00BF00201449086000BF00BF00BF77
:1039B000BFF34F8F00BF00BF00BF00BF00BF00BFFD
:1039C000BFF36F8F00BF00BF00BF0C48006840F41A
:1039D00000300A49086000BF00BF00BFBFF34F8F2F
:1039E00000BF00BF00BF00BF00BF00BFBFF36F8FAD
:1039F00000BF00BF00BF704750EF00E014ED00E0D3
:103A00007047000010B50446D4ED000AB0EE600A1D
:103A100000212E4800F066FBD4ED040AB0EE600AE7
:103A200004212A4800F05EFBD4ED080AB0EE600ADB
:103A30000821264800F056FBD4ED030AB0EE600AD8
:103A40000421234800F04EFBD4ED070AB0EE600AD3
:103A500008211F4800F046FBD4ED0A0AB0EE600AC8
:103A60000C211B4800F03EFBD4ED010AB0EE600AC9
:103A70000421184800F036FBD4ED060AB0EE600AC7
:103A80000821144800F02EFBD4ED090AB0EE600ABC
:103A90000C21104800F026FBD4ED020AB0EE600ABB
:103AA00000210B4800F01EFBD4ED050AB0EE600AC1
:103AB0000021094800F016FBD4ED0B0AB0EE600AB5
:103AC0000421054800F00EFB10BD00001005002485
:103AD0005004002490040024D00400242DE9F04177
:103AE0009CB080460C4615461E46002737480068A5
:103AF00020F004003549086000BF002000903348E2
:103B00000C30006840F4404030490C3108600846F1
:103B1000006800F44040009000BF00BF00BF2B4889
:103B20000C30006800F40050B0F5005FF7D10120C0
:103B300001900004029000200490089002200A9056
:103B400002210B91CDF834800C940E950F96002134
:103B500012910821119101A8FEF75AFA07460FB1F8
:103B600000BFFEE73F201490032015900020169020
:103B7000082017904020199000011A9040201890BA
:103B800050201B90022114A8FDF7B0FF07460FB18B
:103B900000BFFEE70E48006840F080000C49086056
:103BA00000BF0B48F430006840F002000849F431CF
:103BB00008600846006800F00200009000BF00BFE7
:103BC000FDF75EFB1CB0BDE8F08100000C48025818
:103BD0000044025810B5FDF789FC10BD204800686C
:103BE00040F470001E4908601E48006840F0010063
:103BF0001C49086000201B49103108601948006802
:103C00001949084017490860002016491831086012
:103C1000091D0860091D0860124928310860091D46
:103C20000860091D0860091D0860091D0860091D5C
:103C30000860091D0860091D08600A48006820F432
:103C40008020084908600020064960310860012092
:103C500006490860C00602498039086070470000C4
:103C600088ED00E0004402587FEDF6EA088100513B
:103C700010B50248FEF75FFD10BD000010040024DF
:103C800010B500220288294B98420ED0B0F1804F27
:103C90000BD0274B984208D0264B984205D0264B94
:103CA000984202D0254B984203D122F070024B6813
:103CB0001A431E4B984217D0B0F1804F14D01C4BC2
:103CC000984211D01B4B98420ED01B4B98420BD000
:103CD0001A4B984208D01A4B984205D0194B98427B
:103CE00002D0194B984203D122F44072CB681A4398
:103CF00022F080034C6943EA040202808B68C362AD
:103D00000B880385094B98420BD00C4B984208D086
:103D10000B4B984205D00B4B984202D00A4B98426D
:103D200001D10B8A03860123436110BD00000140CD
:103D30000004004000080040000C00400004014066
:103D400000400140004401400048014030B50023DC
:103D5000012404FA01F3046A9C430462046A02FA2F
:103D600001F52C43046230BD30B50024002200234D
:103D7000056A25F001050562026A43688469204DE1
:103D80002C4024F003040D682C4322F002028D68BD
:103D90002A431C4DA84200D10FE01B4DA84200D180
:103DA0000BE01A4DA84200D107E0194DA84200D1FE
:103DB00003E0184DA84206D100BF22F00802CD68EA
:103DC0002A4322F004020F4DA8420BD00E4DA84208
:103DD00008D00E4DA84205D00D4DA84202D00D4D81
:103DE000A84207D123F4807323F400734D692B4359
:103DF0008D692B43436084614D684563026230BD29
:103E00008FFFFEFF00000140000401400040014020
:103E1000004401400048014030B500240022002346
:103E2000056A25F010050562026A43688469234D1E
:103E30002C4024F440740D6844EA052422F020024A
:103E40008D6842EA05121E4DA84200D10FE01D4DBB
:103E5000A84200D10BE01C4DA84200D100BF1B4D71
:103E6000A84200D100BF1A4DA84207D106E022F0B7
:103E70008002CD6842EA051222F04002104DA842AD
:103E80000BD0104DA84208D00F4DA84205D00F4DC1
:103E9000A84202D00E4DA84209D123F4806323F436
:103EA00000634D6943EA85038D6943EA85034360F6
:103EB00084614D688563026230BD0000FF8FFFFEA4
:103EC0000000014000040140004001400044014066
:103ED0000048014030B5002400220023056A25F483
:103EE00080750562026A4368C46924F0700424F096
:103EF00003040D682C4322F400728D6842EA052207
:103F00001C4DA84200D10FE01B4DA84200D10BE090
:103F10001A4DA84200D100BF194DA84200D100BFE0
:103F2000184DA84207D106E022F40062CD6842EAAB
:103F3000052222F480620F4DA8420BD00E4DA842FC
:103F400008D00E4DA84205D00D4DA84202D00D4D0F
:103F5000A84209D123F4805323F400534D6943EA66
:103F600005138D6943EA05134360C4614D68C56359
:103F7000026230BD000001400004014000400140E9
:103F8000004401400048014030B5002200230024D5
:103F9000056A25F480550562036A4468C26922F403
:103FA000E04222F440720D6842EA052223F40053F5
:103FB0008D6843EA05330D4DA8420BD00C4DA84245
:103FC00008D00C4DA84205D00B4DA84202D00B4D95
:103FD000A84204D124F480444D6944EA8514446025
:103FE000C2614D680564036230BD000000000140FD
:103FF00000040140004001400044014000480140ED
:1040000030B5002300220024056A25F480350562BE
:10401000026A4468436D23F070030D682B4322F459
:1040200000320D8942EA05420C4DA8420BD00C4DDE
:10403000A84208D00B4DA84205D00B4DA84202D093
:104040000A4DA84204D124F480344D6944EA052481
:10405000446043654D688565026230BD00000140E3
:10406000000401400040014000440140004801407C
:1040700030B5002200230024056A25F4801505626E
:10408000036A4468426D22F4E0420D6842EA052268
:1040900023F400130D8943EA05530D4DA8420BD0BC
:1040A0000C4DA84208D00C4DA84205D00B4DA8429B
:1040B00002D00B4DA84204D124F400344D6944EAE7
:1040C0008524446042654D68C565036230BD0000CB
:1040D0000000014000040140004001400044014054
:1040E0000048014070B52DED048B04460D46B0EE3E
:1040F000408A9FED190AC8EE000AE068401C00EEF5
:10410000100AB8EE400A20EE800AB7EEC00AB0EE00
:10411000409B00F0EDFFBCEEC00B10EE106A15B92D
:104120002068466315E0042D02D12068866310E004
:10413000082D02D12068C6630BE00C2D02D1206847
:10414000066406E0102D02D12068866501E0206833
:10415000C665BDEC048B70BD0000C84270B5044656
:104160000D461248008860600021A1601048018857
:10417000E160002121612046FEF774FC6020286088
:104180000B48008801EE100AB8EE411B9FED092B89
:1041900021EE021BB0EE410B00F0AAFFBCEEC00BFB
:1041A00085ED010A0020A86070BD0000A600002473
:1041B000A40000249A9999999999B93F90F83410DC
:1041C00001F0010139B10168496821F40031826BC5
:1041D00011430268516090F8341001F0020139B1C6
:1041E0000168496821F48031C26B11430268516053
:1041F00090F8341001F0040139B10168496821F4E4
:104200008021026C11430268516090F8341001F073
:10421000080139B10168496821F40041426C114339
:104220000268516090F8341001F0100139B1016852
:10423000896821F48051826C11430268916090F882
:10424000341001F0200139B10168896821F400516E
:10425000C26C11430268916090F8341001F0400183
:1042600099B10168496821F48011026D1143026817
:104270005160016DB1F5801F07D10168496821F4D3
:10428000C001426D11430268516090F8341001F092
:10429000800139B10168496821F40021826D114320
:1042A00002685160704738B5044600250020E06779
:1042B000FDF716F905462068006800F00800082898
:1042C0000CD16FF07E402B4600224FF4001100907D
:1042D000204600F0A6FD08B1032038BD2068006824
:1042E00000F0040004280CD16FF07E402B46002221
:1042F0004FF480010090204600F093FD08B10320A8
:10430000EBE7202084F8790084F87A0000BF0020D1
:1043100084F8780000BF00BFDFE770B50546AC6BDE
:104320000020A4F86A00A4F862002046FEF702FD0F
:1043300070BD0168096821F490710268116001681C
:10434000896821F0010102689160202180F87A10CB
:10435000704710B504462068006820F040002168CE
:104360000860202084F879002046FEF7ECFF00204A
:1043700010BD2DE9F0410446B4F86C7094F87A0051
:10438000222833D12068858CA068B0F5805F09D1E0
:10439000206938B9666E05EA07003080606E801CBF
:1043A000606605E0F8B22840626E511C61661070CC
:1043B000B4F86A00401E80B2A4F86A00A0B9206870
:1043C000006820F49070216808602068806820F000
:1043D000010021688860202084F87A002046FEF7DA
:1043E000C1FE0020BDE8F0810020FBE72068008BC3
:1043F00040F00800216808830220F3E72DE9F04F20
:1044000089B0044600254FF08008A946AA4600203E
:104410000890FA492068884201D1012000E000207C
:1044200000B100E000BFA06AB0F1005F00D100BFA2
:104430002169A068084361690843E16940EA010510
:10444000A06A054320680068ED49084028432168B8
:1044500008602068406820F44050E1680843216803
:104460004860A569E5492068884201D1012000E043
:10447000002008B9206A0543A06AB0F1005F03D1AB
:10448000D4E90B010843054320688068DD490840F2
:104490002843216888602068C06A20F00F00616AA4
:1044A00008432168C86200BFD7492068884224D1E8
:1044B000D648006800F03800182814D005DC48B150
:1044C00008280AD0102817D10AE020280ED0282862
:1044D00012D10EE04FF001080EE04FF004080BE09F
:1044E0004FF0400808E04FF0080805E04FF01008D2
:1044F00002E04FF0200800BF17E1C549206888425C
:104500001DD1C248006800F00700062816D2DFE877
:1045100000F00306090C0F124FF000080EE04FF0F8
:1045200004080BE04FF0400808E04FF0080805E0F1
:104530004FF0100802E04FF0200800BFF5E0B54949
:10454000206888421DD1B148006800F007000628A5
:1045500016D2DFE800F00306090C0F124FF0000836
:104560000EE04FF004080BE04FF0400808E04FF079
:10457000080805E04FF0100802E04FF0200800BFE7
:10458000D3E0A549206888421DD1A048006800F00A
:104590000700062816D2DFE800F00306090C0F1208
:1045A0004FF000080EE04FF004080BE04FF0400819
:1045B00008E04FF0080805E04FF0100802E04FF067
:1045C000200800BFB1E09549206888421DD18F487E
:1045D000006800F00700062816D2DFE800F00306A6
:1045E000090C0F124FF000080EE04FF004080BE02A
:1045F0004FF0400808E04FF0080805E04FF01008C1
:1046000002E04FF0200800BF8FE085492068884213
:1046100024D17E48006800F03800182814D005DC4A
:1046200048B108280AD0102817D10AE020280ED057
:10463000282812D10EE04FF001080EE04FF00408D8
:104640000BE04FF0400808E04FF0080805E04FF09D
:10465000100802E04FF0200800BF66E071492068B2
:1046600088421DD16948006800F00700062816D26C
:10467000DFE800F00306090C0F124FF000080EE00F
:104680004FF004080BE04FF0400808E04FF0080836
:1046900005E04FF0100802E04FF0200800BF44E0B2
:1046A0006149206888421DD15848006800F0070021
:1046B000062816D2DFE800F00306090C0F124FF0AF
:1046C00000080EE04FF004080BE04FF0400808E04F
:1046D0004FF0080805E04FF0100802E04FF0200806
:1046E00000BF22E04549206888421ED14748001D8E
:1046F000006800F00700062816D2DFE800F0030685
:10470000090C0F124FF002080EE04FF004080BE006
:104710004FF0400808E04FF0080805E04FF010089F
:1047200002E04FF0200800BF00BF00BF33492068FF
:10473000884201D1012000E0002000285DD0002542
:10474000B8F1100F33D009DCB8F1020F10D0B8F176
:10475000040F11D0B8F1080F2ED117E0B8F1200FD7
:1047600027D0B8F1400F0CD0B8F1800F24D124E04D
:10477000FCF77AFF054623E005A8FCF78BFF069DB2
:104780001EE002A8FDF79CF8039D19E01F4854386D
:104790000068C0F3401040B11C4854380068C0F3B2
:1047A000C101224820FA01F500E0204D08E0204D2B
:1047B00006E04FF4004503E000BF0120089000BF71
:1047C00000BF002D0AD0606800EB4000A84203D86B
:1047D00060680003A84202D201200890D4E2B8F138
:1047E000100F7CD026DCB8F1020F2DD0B8F1040FE9
:1047F00052D0B8F1080F73D19EE03FE1000C005891
:10480000F369FFCFFFF4FF11001001405444025838
:104810000044004000480040004C00400050004070
:104820000014014000780040007C00400090D0035C
:1048300000093D00B8F1200F7DD0B8F1400F54D0F1
:10484000B8F1800FD7D109E1FCF70EFF002706462B
:10485000FB49606A31F810C062463B463046394633
:10486000FBF738FD4FF4807600220346A3FB0607D2
:1048700001FB067103FB02136168490806467118C3
:104880005A41CDE900126668324600230846019974
:10489000FBF720FD0546E4E005A8FCF7FBFEDDF88C
:1048A00018C0E749606A31F810B05A4600236046E4
:1048B0001946FBF70FFD4FF4807C0022A0FB0C3B58
:1048C00001FB0CB100FB0210616849085E1840EB67
:1048D0000201D4F804C062460023304601E079E0CA
:1048E000BBE0FBF7F7FC0546BBE002A8FCF7E8FFDE
:1048F000DDF80CC0D249606A31F810B05A46002386
:1049000060461946FBF7E6FC4FF4807C0022A0FBD2
:104910000C3B01FB0CB100FB0210616849085E18FA
:1049200040EB0201D4F804C0624600233046FBF796
:10493000D1FC054695E06EE0C2480068C0F3401027
:1049400038B3C0480068C0F3C101BF4820FA01FC79
:10495000BB49606A31F810B05A46002360461946D8
:10496000FBF7B8FC4FF4807C0022A0FB0C3B01FB62
:104970000CB100FB0210616849085E1840EB0201AF
:10498000D4F804C0624600233046FBF7A3FC05467A
:104990001FE0AB49606A31F810C062460023AA48A4
:1049A0001946FBF797FC4FF4807C0022A0FB0C3BE0
:1049B00001FB0CB100FB0210616849085E1840EB76
:1049C0000201D4F804C0624600233046FBF782FCA3
:1049D000054646E09A49606A31F810C062460023F5
:1049E0009A481946FBF776FC4FF4807C0022A0FB26
:1049F0000C3B01FB0CB100FB0210616849085E181A
:104A000040EB0201D4F804C0624600233046FBF7B5
:104A100061FC054625E08A49606A31F810C06246AB
:104A200000234FF400401946FBF754FC4FF4807C00
:104A30000022A0FB0C3B01FB0CB100FB02106168E3
:104A400049085E1840EB0201D4F804C06246002316
:104A50003046FBF73FFC054603E000BF012008900D
:104A600000BF00BFB5F5407F05D3B5F5801F02D26A
:104A70002068C56088E10120089085E1E069B0F513
:104A8000004F7CD1B8F1100F7AD00CDCB8F1000FD8
:104A900013D0B8F1010F21D0B8F1040F2FD0B8F125
:104AA000080F6ED151E0B8F1200F6BD0B8F1400F74
:104AB00038D0B8F1800F64D197E0FDF75BF9604A18
:104AC000616A32F81110B0FBF1F04000616800EB50
:104AD0005100B0FBF1F01FFA80FA89E0FDF760F9B0
:104AE000574A616A32F81110B0FBF1F0400061687A
:104AF00000EB5100B0FBF1F01FFA80FA78E005A856
:104B0000FCF7C8FD06994E4A606A32F81000B1FB06
:104B1000F0F04000616800EB5100B0FBF1F01FFACB
:104B200080FA65E002A8FCF7CBFE0399444A606A6C
:104B300032F81000B1FBF0F04000616800EB51006A
:104B4000B0FBF1F01FFA80FA52E03E480068C0F373
:104B50004010C0B13B480068C0F3C1013A48C840AA
:104B6000374A616A32F81110B0FBF1F04000616819
:104B700000EB5100B0FBF1F01FFA80FA12E044E0C4
:104B800011E031E01FE02E49606A31F810002E4933
:104B9000B1FBF0F04000616800EB5100B0FBF1F0B8
:104BA0001FFA80FA24E02649606A31F8100027498C
:104BB000B1FBF0F04000616800EB5100B0FBF1F098
:104BC0001FFA80FA14E01E49606A31F810004FF4B1
:104BD0000041B1FBF0F04000616800EB5100B0FB18
:104BE000F1F01FFA80FA03E000BF0120089000BF37
:104BF00000BF4FF6F0700AEA0009CAF3420049EA22
:104C000000092068C0F80C90BEE0B8F1100F7CD00D
:104C10000CDCB8F1000F1BD0B8F1010F29D0B8F1AE
:104C2000040F37D0B8F1080F70D159E0B8F1200F58
:104C30006DD0B8F1400F40D0B8F1800F66D19FE041
:104C40003C7A0008004402580090D00300093D005F
:104C5000FDF790F84E4A616A32F81110B0FBF1F09E
:104C6000616800EB5100B0FBF1F080B22168C860D0
:104C700089E0FDF795F8464A616A32F81110B0FBF9
:104C8000F1F0616800EB5100B0FBF1F080B22168F7
:104C9000C86078E005A8FCF7FDFC06993C4A606A0C
:104CA00032F81000B1FBF0F0616800EB5100B0FB8E
:104CB000F1F080B22168C86065E002A8FCF700FE50
:104CC0000399334A606A32F81000B1FBF0F0616872
:104CD00000EB5100B0FBF1F080B22168C86052E0F7
:104CE0002C480068C0F34010C0B12A480068C0F3E7
:104CF000C1012948C840264A616A32F81110B0FB48
:104D0000F1F0616800EB510002E017E037E025E0C8
:104D1000B0FBF1F080B22168C8600EE01C49606A07
:104D200031F810001C49B1FBF0F0616800EB510054
:104D3000B0FBF1F080B22168C86024E01449606AD9
:104D400031F810001549B1FBF0F0616800EB51003B
:104D5000B0FBF1F080B22168C86014E00C49606AD1
:104D600031F810004FF40041B1FBF0F0616800EB46
:104D70005100B0FBF1F080B22168C86003E000BFD1
:104D80000120089000BF00BF089809B0BDE8F08F6F
:104D90003C7A0008004402580090D00300093D000E
:104DA000014691F87900212839D1B1F86200C8B9DB
:104DB0000868006800F0005030B10868806820F48E
:104DC00000000B68986005E00868006820F080002B
:104DD0000B6818600868006840F040000B681860B5
:104DE000002070478868B0F5805F0BD1086948B92A
:104DF000CA6D1088C0F308000B681885C86D801C48
:104E0000C86505E0CB6D581CC86518780B68188517
:104E1000B1F86200401EA1F862000020E1E7022024
:104E2000DFE72DE9F04104460D4617469846069EF9
:104E300021E0701CF8B12EB1FCF752FBA0EB08008A
:104E4000B04218D92068006820F4D070216808604A
:104E50002068806820F0010021688860202084F8A4
:104E6000790084F87A0000BF002084F8780000BF41
:104E70000320BDE8F0812068C0692840A84201D124
:104E8000012000E00020B842D3D00020F1E700006C
:104E900010B50248FDF750FF10BD000010020024BD
:104EA00010B50248FDF748FF10BD00009002002435
:104EB0000FB4F0B5C1B0074648A800904FF4807118
:104EC00001A8009B479A00F023F8054600200090B7
:104ED000002D03DC41B0F0BC5DF814FB002410E0B1
:104EE000281BFF2801D9FF2000E0281B0646B2B28C
:104EF00001A801194FF0FF333846FEF7C1F93444D9
:104F000000BFAC42ECDB00BFE4E700BFFEE70000FF
:104F10007CB5044600201D46164600290BD0491ECC
:104F2000CDE90041044B6A462946304600F0C2FBF9
:104F3000009A002111707CBDE35D00084100080269
:104F400018BF04200A0E18BF40F001004FF07F4246
:104F500032EA010108BF40F00200012808BF052025
:104F60007047000002480068C0F30220704700004C
:104F70000CED00E010B5002804DB0A07130E054A0B
:104F8000135406E00A07140E034A00F00F031B1F18
:104F9000D45410BD00E400E018ED00E010EE101A4B
:104FA00008B5434A6846B2EB410F26D94FF0E640B8
:104FB000B0EB410F94BF00204FF0FF3000900098FD
:104FC000DFED3C0A002860DB10F0010F46D060EEF8
:104FD000000ADFED391A9FED391A10F0020F00EECA
:104FE000E11ADFED371A40EE811A21EEA01AF0EE39
:104FF000400A40EE010A2ED041E0324B21F000423F
:1050000093423FD911F0004FDFED2F0A20EE201A16
:10501000DFED2E0A19BF31EE601A71EE200A31EE73
:10502000201A71EE600ABDEEE01A11EE100A9FED33
:10503000281A00F0030000EEC10A9FED261A009026
:1050400000EEC10A9FED241A00EEC10A9FED231A5B
:1050500000EEC10AB3E7F1EE600A10E020EE000AAC
:105060009FED1F1ADFED1F1A10F0020F40EE011A1C
:105070009FED1D1A00EE211A40EE010AEBD1B0EEB1
:10508000600A08BD00F094F999E710EE100A40009C
:10509000B0F17F4FF3D307D14FF0010000F042FA97
:1050A000BDE8084000F074B9BDE8084000F06DB9F3
:1050B000B61F927E0000803F336D4C39DA82083C87
:1050C000A0AA2ABE490E494683F9223F0000004BA0
:1050D0000000C93F00A0FD390020A2331A61342C22
:1050E000B93AB2BACA9F2A3DDDFFFFBE00000000F8
:1050F00010B52DED020B84B09DED040B51EC100B9F
:10510000FBF74EFB41EC100B9DED041B05989FED4A
:105110001A2B31EE401B9FED1A3B9FED1B4B10F0FD
:10512000004F0AD0B4EEC41BF1EE10FA0AD9B4EE67
:10513000C31BF1EE10FA0FDD0CE0B4EEC41BF1EE70
:1051400010FA02D230EE420B06E0B4EEC31BF1EED1
:1051500010FA01DB30EE020B8DED020B9DED040B1E
:105160008DED000B10EE900A039961F31E00039081
:105170009DED020B06B010BD000000000000F03FE6
:10518000000000000000E03F000000000000E0BF61
:1051900000B510EE101A2DED028B81B0524A684610
:1051A000B2EB410F2ED94FF0E640B0EB410F94BF68
:1051B00000204FF0FF3000900098B0EE408A0028A9
:1051C0006ADB10F0010F4BD068EE080A9FED471A1A
:1051D0009FED470A00EE810A9FED461A00EE801A05
:1051E0009FED450A10F0020F00EE810A02BF01B0E8
:1051F000BDEC028B00BD00BF01B0B1EE400ABDECBA
:10520000028B00BD3D4B21F00042934241D911F089
:10521000004FDFED3B0A20EE201ADFED3A0A19BFFE
:1052200031EE601A71EE200A31EE201A71EE600A3A
:10523000BDEEE01A11EE100A9FED331A00F00300E4
:1052400000EEC10A9FED311A009000EEC10A9FEDF9
:10525000301A00EEC10A9FED2F1A00EEC10AABE72B
:1052600028EE080A9FED2C1ADFED2C0A10F0020F31
:1052700040EE410A9FED2A1A00EE201A61EE000A64
:10528000B0EE480A08EE200AB6D101B0BDEC028BA0
:1052900000BD00F08DF88FE718EE100A4000B0F165
:1052A0007F4F0DD218EE100AFFF748FE042808BF02
:1052B00000F076F8B0EE480A01B0BDEC028B00BDFC
:1052C00009D1012000F02EF901B0BDEC028B5DF890
:1052D00004EB00F05DB801B0B0EE480ABDEC028B03
:1052E0005DF804EB00F051B8B61F927EB93AB2BA3D
:1052F000CA9F2A3DDDFFFFBE0000803F490E4946A0
:1053000083F9223F0000004B0000C93F00A0FD3997
:105310000020A2331A61342C336D4C39DA82083CF8
:10532000A0AA2ABE00B52DED028BB1EEC08B83B0D2
:1053300018EE100A18EE901A8DED008B002818BF99
:105340000120084320F00040C0F17F6000F1E04000
:10535000C00F14D010EE101A10EE900A8DED000B55
:10536000002918BF0121084320F00040C0F17F60F0
:1053700000F1E040C00F04BF012000F0D3F8B0EE10
:10538000480B03B0BDEC028B00BD30EE000A704745
:10539000DFED020A80EEA00A704700000000000066
:1053A0009FED020A20EE000A704700000000001086
:1053B0002DE9F0014FF07F42B2EB410F9FBF4FF05C
:1053C000FF310160BDE8F00170474FF0004242EA52
:1053D0000123C1F3C752783A551112F01F0C434C08
:1053E000CCF120067C44C1F3C752A2F178024FEA07
:1053F000621204EB820254F8254008BFD2E901563C
:1054000012D0556804FA0CF425FA06F73C43976865
:1054100005FA0CF527FA06F8D26807FA0CFCF240F8
:1054200045EA08054CEA0206A4FB034CA5FB03521F
:10543000A6FB03631D449D4234BF012600261319B9
:10544000334416B1934202D903E0934201D20122C0
:1054500000E00022624402F1200C9206DC0C42EAD9
:10546000443200EE102A5B03DFED210AF8EEC01A89
:1054700000EE103A4FEA9C1C11F0004FB8EE400AC3
:10548000C0F800C020EE201A00EE105ADFED190A15
:10549000B8EE400A20EE200A71EE810A70EE800A12
:1054A00010EE902A02F500626FF30B0200EE902AD4
:1054B00070EEE11A31EEC11ADFED101A30EE411A2A
:1054C0009FED0D0A20EE800A01EE210A9FED0C1AD5
:1054D00000EE810A04BFBDE8F0017047CCF18051B5
:1054E0000160BDE8F001B1EE400A7047382B0000C2
:1054F000000000360000802C22AAFD29DB0FC92FF6
:105500000000C92F02E008C8121F08C1002AFAD102
:1055100070477047002001E001C1121F002AFBD133
:10552000704700000149086070470000B000002487
:105530002DE9FF5F82B00021DDE90430020DDDF8C6
:1055400040B0034318D044F61050A2F2FF32424359
:105550001514119801281FD0A5EB0B00401C5FEA21
:10556000000A4FF000064E4FDFF83891B046504623
:1055700015D5CAF1000413E0119801244AA30128AB
:1055800001D16FEA0B010298119AC0E90031C0E91C
:10559000024206B0BDE8F09FCBF10000DFE7044611
:1055A0000021404A491842EB0450CDE9001012E0B6
:1055B000E00707D032463B4640464946FBF70EF827
:1055C0008046894632463B4610461946FBF706F8A8
:1055D00006460F466410002CEAD1DDE90401DDE93E
:1055E0000023BAF1000F06DAFAF7F8FF42464B46FD
:1055F000FAF7F4FF05E0FBF763F842464B46FBF78A
:105600005FF804460E460022284BFBF725F903D825
:105610004FF0FF30014607E00022254B204631467F
:10562000FAF735FFFBF700F9102409E0002C0ADB3C
:105630000A220023FAF74EFE039B30321A55641EED
:1056400050EA0102F2D1641C039AC4F1110314441C
:10565000119A012A03D0012208430DD10AE0084320
:1056600004D000204FF0110B119072E7A3EB0B0553
:105670006D1E0DE05B4504DD4FF0000205F10105F4
:1056800004E003DA4FF00002A5F10105002AECD096
:1056900002981199C0E90231C0E9004579E700009C
:1056A000000014400000F03F300000000000F04314
:1056B0000000E03F2DE9FF4F95B09B468946064626
:1056C00000250FE2252877D100242746F84A01213A
:1056D000059400E0044316F8013F203B01FA03F073
:1056E0001042F7D130782A2811D06FF02F0330788C
:1056F000A0F13002092A16D8059A44F0020402EB00
:10570000820203EB42021044761C0590EFE759F841
:10571000042B0592002A03DA504244F40054059009
:1057200044F00204761C30782E2816D116F8010FAA
:1057300044F004042A280DD06FF02F023078A0F135
:105740003003092B09D807EB870302EB4303C71883
:10575000761CF3E759F8047B761C30786C280FD060
:1057600006DC4C2817D068280DD06A2814D104E034
:10577000742810D07A280FD10DE044F400140AE008
:1057800044F4801401E044F440147278824202D15F
:1057900004F58014761C761C307866280BD013DC58
:1057A000582877D009DC002875D04528F6D046283F
:1057B000F4D047281AD19DE118E0632835D0642839
:1057C00079D0652812D195E1702873D008DC67285C
:1057D000F1D069286FD06E280DD06F2806D1B5E0C2
:1057E00073282CD0752875D0782874D05A4617990C
:1057F00090476D1C75E1C4F30250022809D00328BC
:105800000DD0D9F8001004280DD00D6009F104095D
:1058100067E1D9F80010EA17C1E90052F6E7D9F8B4
:1058200000100D80F2E70D70F0E719F8041B8DF8F9
:10583000001000208DF80100EA46012003E059F82D
:1058400004AB4FF0FF3061074FF0000102D40DE0D0
:1058500008F101018846B9420FDA8045F8DB1AF8F1
:1058600008100029F4D108E008F1010188468142BE
:10587000FADB1AF808100029F6D105985B46A0EB70
:10588000080721463846179A00F094FA284400EB9E
:10589000080507E04DE029E10DE01AF8010B5A4632
:1058A00017999047B8F10108F7D25B462146384670
:1058B000179A13E142E00A220092C4F302524FF019
:1058C000000A022A08D059F804CB032A4FEAEC71E7
:1058D0000AD00DE029E02AE009F1070121F00702D2
:1058E000F2E802C1914609E00FFA8CFC4FEAEC7134
:1058F000042A03D14FFA8CFC4FEAEC71002907DA35
:105900000A460021DCF1000C61EB02012D2202E0CD
:10591000220504D52B228DF80420012203E0E207A2
:1059200001D02022F7E7904659E00A2102E0102238
:105930000DE010214FF0000A00910BE010224FF013
:10594000000A44F004040827009203E008224FF004
:10595000000A0092C4F30252022A05D059F804CB7F
:105960000021032A08D009E009F1070121F007020C
:10597000F2E802C1914605E01FFA8CFC042A01D12D
:105980000CF0FF0C4FF00008220728D5702806D035
:10599000009B83F0100353EA0A0305D00EE0402277
:1059A0008DF80420012208E05CEA010206D03022D2
:1059B0008DF804208DF8050002229046009B83F0AC
:1059C000080353EA0A030AD15CEA010201D1620723
:1059D00005D530228DF804204FF001087F1E58288D
:1059E00004D034A003900EA802900DE036A0F9E791
:1059F00053466046009AFAF76DFC84460398825C31
:105A00000298401E029002705CEA0100F0D10298F8
:105A100006A9081A00F1200A600702D524F4803490
:105A200000E00127574502DDA7EB0A0000E0002057
:105A300000EB0A01009005984144401A0590E003EC
:105A400006D45B462146179A059800F0B3F9054441
:105A5000002706E001A85A46C05D179990476D1CC3
:105A60007F1C4745F6DBE0030CD55B462146179AC1
:105A7000059800F09FF9054404E030205A46179934
:105A800090476D1C0099481E00900029F5DC08E045
:105A9000029802995A460078491C0291179990473A
:105AA0006D1CBAF10001AAF1010AF1DC65E1000008
:105AB00009280100303132333435363738396162E4
:105AC00063646566000000003031323334353637A8
:105AD00038394142434445460000000000F058F97F
